{
	"data": {
		"bytecode": {
			"linkReferences": {},
			"object": "608060405234801561001057600080fd5b50615c9e80620000216000396000f3fe6080604052600436106103955760003560e01c80638cfd8f5c116101dc578063cbed8b9c11610102578063eab45d9c116100a0578063f242432a1161006f578063f242432a14610ba6578063f2fde38b14610bc6578063f5ecbdbc14610be6578063f645d4f914610c0657600080fd5b8063eab45d9c14610b1f578063eb8d72b714610b3f578063ed629c5c14610b5f578063f23a6e6114610b7a57600080fd5b8063d6d0faee116100dc578063d6d0faee14610a76578063df2a5b3b14610a96578063e0df5b6f14610ab6578063e985e9c514610ad657600080fd5b8063cbed8b9c14610a23578063cc8b84bf14610a43578063d1deba1f14610a6357600080fd5b8063af3fb21c1161017a578063baf3292d11610149578063baf3292d1461097a578063bc197c811461099a578063bd85b039146109df578063c446183414610a0d57600080fd5b8063af3fb21c14610905578063b25356631461091a578063b353aaa71461093a578063b49c99b81461095a57600080fd5b806395d89b41116101b657806395d89b41146108905780639f38369a146108a5578063a22cb465146108c5578063a6c3d165146108e557600080fd5b80638cfd8f5c146108065780638da5cb5b1461083e578063950c8a741461087057600080fd5b806344770515116102c157806366ad5c8a1161025f5780637df73e271161022e5780637df73e2714610749578063844e4244146107835780638608e5f8146107b1578063883b524f146107e657600080fd5b806366ad5c8a146106d45780636c19e783146106f4578063715018a6146107145780637533d7881461072957600080fd5b80634db8226a1161029b5780634db8226a146106155780634e1273f4146106285780634f558e79146106555780635b8c41e61461068557600080fd5b806344770515146105cd5780634a9eee69146105e25780634ab4e6871461060257600080fd5b806310ddb137116103395780632eb2c2d6116103085780632eb2c2d6146105405780633d8b38f6146105605780633f1f4fa41461058057806342d65a8d146105ad57600080fd5b806310ddb137146104a1578063149e3e1f146104c157806326ff1979146104e95780632d0335ab1461050957600080fd5b806306fdde031161037557806306fdde031461041f57806307e0db17146104415780630df37483146104615780630e89341c1461048157600080fd5b80621d35671461039a578062fdd58e146103bc57806301ffc9a7146103ef575b600080fd5b3480156103a657600080fd5b506103ba6103b5366004614509565b610c25565b005b3480156103c857600080fd5b506103dc6103d73660046145bc565b610e48565b6040519081526020015b60405180910390f35b3480156103fb57600080fd5b5061040f61040a3660046145fe565b610edf565b60405190151581526020016103e6565b34801561042b57600080fd5b50610434610efc565b6040516103e6919061466b565b34801561044d57600080fd5b506103ba61045c36600461467e565b610f8f565b34801561046d57600080fd5b506103ba61047c366004614699565b61103d565b34801561048d57600080fd5b5061043461049c3660046146b5565b61109d565b3480156104ad57600080fd5b506103ba6104bc36600461467e565b611131565b3480156104cd57600080fd5b506104d6600281565b60405161ffff90911681526020016103e6565b3480156104f557600080fd5b506103ba6105043660046147a4565b6111ae565b34801561051557600080fd5b506103dc610524366004614807565b6001600160a01b031660009081526101c7602052604090205490565b34801561054c57600080fd5b506103ba61055b3660046148a7565b611266565b34801561056c57600080fd5b5061040f61057b366004614954565b611308565b34801561058c57600080fd5b506103dc61059b36600461467e565b60686020526000908152604090205481565b3480156105b957600080fd5b506103ba6105c8366004614954565b6113d4565b3480156105d957600080fd5b506103dc600081565b3480156105ee57600080fd5b506103ba6105fd3660046149a6565b61147f565b6103ba6106103660046149ff565b611670565b6103ba610623366004614aee565b61168a565b34801561063457600080fd5b50610648610643366004614b94565b6116aa565b6040516103e69190614c84565b34801561066157600080fd5b5061040f6106703660046146b5565b600090815261012d6020526040902054151590565b34801561069157600080fd5b506103dc6106a0366004614c97565b6097602090815260009384526040808520845180860184018051928152908401958401959095209452929052825290205481565b3480156106e057600080fd5b506103ba6106ef366004614509565b6117d3565b34801561070057600080fd5b506103ba61070f366004614807565b6118bf565b34801561072057600080fd5b506103ba61192d565b34801561073557600080fd5b5061043461074436600461467e565b611982565b34801561075557600080fd5b5061040f610764366004614807565b6001600160a01b031660009081526101c6602052604090205460ff1690565b34801561078f57600080fd5b506103dc61079e3660046146b5565b60009081526101c8602052604090205490565b3480156107bd57600080fd5b506107d16107cc366004614d04565b611a1c565b604080519283526020830191909152016103e6565b3480156107f257600080fd5b506103ba610801366004614807565b611a4c565b34801561081257600080fd5b506103dc610821366004614d9a565b606760209081526000928352604080842090915290825290205481565b34801561084a57600080fd5b506033546001600160a01b03165b6040516001600160a01b0390911681526020016103e6565b34801561087c57600080fd5b50606954610858906001600160a01b031681565b34801561089c57600080fd5b50610434611ab7565b3480156108b157600080fd5b506104346108c036600461467e565b611ac7565b3480156108d157600080fd5b506103ba6108e0366004614dcd565b611bdd565b3480156108f157600080fd5b506103ba610900366004614954565b611bf3565b34801561091157600080fd5b506104d6600181565b34801561092657600080fd5b506107d1610935366004614df9565b611cbd565b34801561094657600080fd5b50606554610858906001600160a01b031681565b34801561096657600080fd5b506103ba610975366004614e95565b611d6e565b34801561098657600080fd5b506103ba610995366004614807565b611f3e565b3480156109a657600080fd5b506109c66109b53660046148a7565b63bc197c8160e01b95945050505050565b6040516001600160e01b031990911681526020016103e6565b3480156109eb57600080fd5b506103dc6109fa3660046146b5565b600090815261012d602052604090205490565b348015610a1957600080fd5b506103dc61271081565b348015610a2f57600080fd5b506103ba610a3e366004614ef4565b611fdc565b348015610a4f57600080fd5b506103ba610a5e366004614807565b612096565b6103ba610a71366004614509565b612139565b348015610a8257600080fd5b506103ba610a91366004614f62565b61234f565b348015610aa257600080fd5b506103ba610ab1366004615011565b612402565b348015610ac257600080fd5b506103ba610ad136600461504d565b6124f5565b348015610ae257600080fd5b5061040f610af1366004615089565b6001600160a01b03918216600090815260fc6020908152604080832093909416825291909152205460ff1690565b348015610b2b57600080fd5b506103ba610b3a3660046150c2565b61254a565b348015610b4b57600080fd5b506103ba610b5a366004614954565b6125d5565b348015610b6b57600080fd5b5061015f5461040f9060ff1681565b348015610b8657600080fd5b506109c6610b953660046150dd565b63f23a6e6160e01b95945050505050565b348015610bb257600080fd5b506103ba610bc13660046150dd565b612670565b348015610bd257600080fd5b506103ba610be1366004614807565b612709565b348015610bf257600080fd5b50610434610c01366004615139565b6127c0565b348015610c1257600080fd5b506101c5546001600160a01b0316610858565b6065546001600160a01b0316610c39612853565b6001600160a01b031614610c945760405162461bcd60e51b815260206004820152601e60248201527f4c7a4170703a20696e76616c696420656e64706f696e742063616c6c6572000060448201526064015b60405180910390fd5b61ffff861660009081526066602052604081208054610cb290615186565b80601f0160208091040260200160405190810160405280929190818152602001828054610cde90615186565b8015610d2b5780601f10610d0057610100808354040283529160200191610d2b565b820191906000526020600020905b815481529060010190602001808311610d0e57829003601f168201915b50505050509050805186869050148015610d46575060008151115b8015610d6e575080516020820120604051610d6490889088906151c0565b6040518091039020145b610dc95760405162461bcd60e51b815260206004820152602660248201527f4c7a4170703a20696e76616c696420736f757263652073656e64696e6720636f6044820152651b9d1c9858dd60d21b6064820152608401610c8b565b610e3f8787878080601f01602080910402602001604051908101604052809392919081815260200183838082843760009201919091525050604080516020601f8a018190048102820181019092528881528a93509150889088908190840183828082843760009201919091525061288c92505050565b50505050505050565b60006001600160a01b038316610eb45760405162461bcd60e51b815260206004820152602b60248201527f455243313135353a2062616c616e636520717565727920666f7220746865207a60448201526a65726f206164647265737360a81b6064820152608401610c8b565b50600081815260fb602090815260408083206001600160a01b03861684529091529020545b92915050565b60006001600160e01b031982161580610ed95750610ed982612905565b60606101c38054610f0c90615186565b80601f0160208091040260200160405190810160405280929190818152602001828054610f3890615186565b8015610f855780601f10610f5a57610100808354040283529160200191610f85565b820191906000526020600020905b815481529060010190602001808311610f6857829003601f168201915b5050505050905090565b610f97612853565b6001600160a01b0316610fb26033546001600160a01b031690565b6001600160a01b031614610fd85760405162461bcd60e51b8152600401610c8b906151d0565b6065546040516307e0db1760e01b815261ffff831660048201526001600160a01b03909116906307e0db17906024015b600060405180830381600087803b15801561102257600080fd5b505af1158015611036573d6000803e3d6000fd5b5050505050565b611045612853565b6001600160a01b03166110606033546001600160a01b031690565b6001600160a01b0316146110865760405162461bcd60e51b8152600401610c8b906151d0565b61ffff909116600090815260686020526040902055565b606060fd80546110ac90615186565b80601f01602080910402602001604051908101604052809291908181526020018280546110d890615186565b80156111255780601f106110fa57610100808354040283529160200191611125565b820191906000526020600020905b81548152906001019060200180831161110857829003601f168201915b50505050509050919050565b611139612853565b6001600160a01b03166111546033546001600160a01b031690565b6001600160a01b03161461117a5760405162461bcd60e51b8152600401610c8b906151d0565b6065546040516310ddb13760e01b815261ffff831660048201526001600160a01b03909116906310ddb13790602401611008565b6111b6612853565b6001600160a01b03166111d16033546001600160a01b031690565b6001600160a01b0316146111f75760405162461bcd60e51b8152600401610c8b906151d0565b60005b82518110156112615781818151811061121557611215615205565b60200260200101516101c8600085848151811061123457611234615205565b6020026020010151815260200190815260200160002081905550808061125990615231565b9150506111fa565b505050565b61126e612853565b6001600160a01b0316856001600160a01b03161480611294575061129485610af1612853565b6112fb5760405162461bcd60e51b815260206004820152603260248201527f455243313135353a207472616e736665722063616c6c6572206973206e6f74206044820152711bdddb995c881b9bdc88185c1c1c9bdd995960721b6064820152608401610c8b565b611036858585858561292a565b61ffff83166000908152606660205260408120805482919061132990615186565b80601f016020809104026020016040519081016040528092919081815260200182805461135590615186565b80156113a25780601f10611377576101008083540402835291602001916113a2565b820191906000526020600020905b81548152906001019060200180831161138557829003601f168201915b5050505050905083836040516113b99291906151c0565b60405180910390208180519060200120149150509392505050565b6113dc612853565b6001600160a01b03166113f76033546001600160a01b031690565b6001600160a01b03161461141d5760405162461bcd60e51b8152600401610c8b906151d0565b6065546040516342d65a8d60e01b81526001600160a01b03909116906342d65a8d9061145190869086908690600401615273565b600060405180830381600087803b15801561146b57600080fd5b505af1158015610e3f573d6000803e3d6000fd5b6000611489612853565b6040516001600160601b0319606083901b16602082015260348101879052605481018690526074810185905290915060009060940160405160208183030381529060405280519060200120905060006114e182612ada565b905060006114ef8286612b2d565b9050611514816001600160a01b031660009081526101c6602052604090205460ff1690565b801561153e57508661153c856001600160a01b031660009081526101c7602052604090205490565b145b61158a5760405162461bcd60e51b815260206004820181905260248201527f5369676e617475726520646f6573206e6f74206d6174636820726571756573746044820152606401610c8b565b600088815261012d60205260408120546115a5908890615291565b60008a81526101c86020526040902054909150811115806115d85760405162461bcd60e51b8152600401610c8b906152a4565b6115f3868b8a60405180602001604052806000815250612b49565b6001600160a01b03861660009081526101c76020526040812080549161161883615231565b9190505550856001600160a01b03167fa53baea067b124fa4f5ff90acfbed6df1a24499f6a0de581d40e8ad128b3d1678b8b8b8b60405161165c94939291906152e8565b60405180910390a250505050505050505050565b6116808888888888888888612c36565b5050505050505050565b61168088888861169989612e1f565b6116a289612e1f565b888888612c36565b6060815183511461170f5760405162461bcd60e51b815260206004820152602960248201527f455243313135353a206163636f756e747320616e6420696473206c656e677468604482015268040dad2e6dac2e8c6d60bb1b6064820152608401610c8b565b600083516001600160401b0381111561172a5761172a6146ce565b604051908082528060200260200182016040528015611753578160200160208202803683370190505b50905060005b84518110156117cb5761179e85828151811061177757611777615205565b602002602001015185838151811061179157611791615205565b6020026020010151610e48565b8282815181106117b0576117b0615205565b60209081029190910101526117c481615231565b9050611759565b509392505050565b306117dc612853565b6001600160a01b0316146118415760405162461bcd60e51b815260206004820152602660248201527f4e6f6e626c6f636b696e674c7a4170703a2063616c6c6572206d7573742062656044820152650204c7a4170760d41b6064820152608401610c8b565b6118b78686868080601f01602080910402602001604051908101604052809392919081815260200183838082843760009201919091525050604080516020601f890181900481028201810190925287815289935091508790879081908401838280828437600092019190915250612e6a92505050565b505050505050565b6118c7612853565b6001600160a01b03166118e26033546001600160a01b031690565b6001600160a01b0316146119085760405162461bcd60e51b8152600401610c8b906151d0565b6001600160a01b031660009081526101c660205260409020805460ff19166001179055565b611935612853565b6001600160a01b03166119506033546001600160a01b031690565b6001600160a01b0316146119765760405162461bcd60e51b8152600401610c8b906151d0565b6119806000612fb7565b565b6066602052600090815260409020805461199b90615186565b80601f01602080910402602001604051908101604052809291908181526020018280546119c790615186565b8015611a145780601f106119e957610100808354040283529160200191611a14565b820191906000526020600020905b8154815290600101906020018083116119f757829003601f168201915b505050505081565b600080611a3d8888611a2d89612e1f565b611a3689612e1f565b8888611cbd565b91509150965096945050505050565b611a54612853565b6001600160a01b0316611a6f6033546001600160a01b031690565b6001600160a01b031614611a955760405162461bcd60e51b8152600401610c8b906151d0565b6001600160a01b031660009081526101c660205260409020805460ff19169055565b60606101c48054610f0c90615186565b61ffff8116600090815260666020526040812080546060929190611aea90615186565b80601f0160208091040260200160405190810160405280929190818152602001828054611b1690615186565b8015611b635780601f10611b3857610100808354040283529160200191611b63565b820191906000526020600020905b815481529060010190602001808311611b4657829003601f168201915b505050505090508051600003611bbb5760405162461bcd60e51b815260206004820152601d60248201527f4c7a4170703a206e6f20747275737465642070617468207265636f72640000006044820152606401610c8b565b611bd6600060148351611bce9190615317565b839190613009565b9392505050565b611bef611be8612853565b8383613116565b5050565b611bfb612853565b6001600160a01b0316611c166033546001600160a01b031690565b6001600160a01b031614611c3c5760405162461bcd60e51b8152600401610c8b906151d0565b818130604051602001611c519392919061532a565b60408051601f1981840301815291815261ffff8516600090815260666020522090611c7c9082615391565b507f8c0400cfe2d1199b1a725c78960bcc2a344d869b80590d0f2bd005db15a572ce838383604051611cb093929190615273565b60405180910390a1505050565b6000806000878787604051602001611cd793929190615450565b60408051601f198184030181529082905260655463040a7bb160e41b83529092506001600160a01b0316906340a7bb1090611d1e908c90309086908b908b90600401615489565b6040805180830381865afa158015611d3a573d6000803e3d6000fd5b505050506040513d601f19601f82011682018060405250810190611d5e91906154dd565b9250925050965096945050505050565b6040516001600160601b0319606087901b1660208201526034810185905260548101849052607481018390526000906094016040516020818303038152906040528051906020012090506000611dc382612ada565b90506000611dd18285612b2d565b9050611df6816001600160a01b031660009081526101c6602052604090205460ff1690565b8015611e20575085611e1e896001600160a01b031660009081526101c7602052604090205490565b145b611e6c5760405162461bcd60e51b815260206004820181905260248201527f5369676e617475726520646f6573206e6f74206d6174636820726571756573746044820152606401610c8b565b600087815261012d6020526040812054611e87908790615291565b60008981526101c8602052604090205490915081111580611eba5760405162461bcd60e51b8152600401610c8b906152a4565b611ed58a8a8960405180602001604052806000815250612b49565b6001600160a01b038a1660009081526101c760205260408120805491611efa83615231565b9190505550896001600160a01b03167fa53baea067b124fa4f5ff90acfbed6df1a24499f6a0de581d40e8ad128b3d1678a8a8a8a60405161165c94939291906152e8565b611f46612853565b6001600160a01b0316611f616033546001600160a01b031690565b6001600160a01b031614611f875760405162461bcd60e51b8152600401610c8b906151d0565b606980546001600160a01b0319166001600160a01b0383169081179091556040519081527f5db758e995a17ec1ad84bdef7e8c3293a0bd6179bcce400dff5d4c3d87db726b906020015b60405180910390a150565b611fe4612853565b6001600160a01b0316611fff6033546001600160a01b031690565b6001600160a01b0316146120255760405162461bcd60e51b8152600401610c8b906151d0565b6065546040516332fb62e760e21b81526001600160a01b039091169063cbed8b9c9061205d9088908890889088908890600401615501565b600060405180830381600087803b15801561207757600080fd5b505af115801561208b573d6000803e3d6000fd5b505050505050505050565b6101c660006120a3612853565b6001600160a01b0316815260208101919091526040016000205460ff1661210c5760405162461bcd60e51b815260206004820152601860248201527f43616c6c6572206973206e6f7420746865207369676e657200000000000000006044820152606401610c8b565b6001600160a01b03811660009081526101c76020526040812080549161213183615231565b919050555050565b61ffff8616600090815260976020526040808220905161215c90889088906151c0565b90815260408051602092819003830190206001600160401b038716600090815292529020549050806121dc5760405162461bcd60e51b815260206004820152602360248201527f4e6f6e626c6f636b696e674c7a4170703a206e6f2073746f726564206d65737360448201526261676560e81b6064820152608401610c8b565b8083836040516121ed9291906151c0565b60405180910390201461224c5760405162461bcd60e51b815260206004820152602160248201527f4e6f6e626c6f636b696e674c7a4170703a20696e76616c6964207061796c6f616044820152601960fa1b6064820152608401610c8b565b61ffff8716600090815260976020526040808220905161226f90899089906151c0565b90815260408051602092819003830181206001600160401b038916600090815290845282902093909355601f88018290048202830182019052868252612307918991899089908190840183828082843760009201919091525050604080516020601f8a018190048102820181019092528881528a935091508890889081908401838280828437600092019190915250612e6a92505050565b7fc264d91f3adc5588250e1551f547752ca0cfa8f6b530d243b9f9f4cab10ea8e5878787878560405161233e95949392919061553a565b60405180910390a150505050505050565b600061235b60016131f6565b90508015612373576000805461ff0019166101001790555b61237d8684613283565b6101c361238a8682615391565b506101c46123988582615391565b506101c580546001600160a01b0319166001600160a01b03841617905580156118b7576000805461ff0019169055604051600181527f7f26b83ff96e1f2b6a682f133852f6798a09c465da95921460cefb38474024989060200160405180910390a1505050505050565b61240a612853565b6001600160a01b03166124256033546001600160a01b031690565b6001600160a01b03161461244b5760405162461bcd60e51b8152600401610c8b906151d0565b600081116124935760405162461bcd60e51b81526020600482015260156024820152744c7a4170703a20696e76616c6964206d696e47617360581b6044820152606401610c8b565b61ffff83811660008181526067602090815260408083209487168084529482529182902085905581519283528201929092529081018290527f9d5c7c0b934da8fefa9c7760c98383778a12dfbfc0c3b3106518f43fb9508ac090606001611cb0565b6124fd612853565b6001600160a01b03166125186033546001600160a01b031690565b6001600160a01b03161461253e5760405162461bcd60e51b8152600401610c8b906151d0565b612547816132c4565b50565b612552612853565b6001600160a01b031661256d6033546001600160a01b031690565b6001600160a01b0316146125935760405162461bcd60e51b8152600401610c8b906151d0565b61015f805460ff19168215159081179091556040519081527f1584ad594a70cbe1e6515592e1272a987d922b097ead875069cebe8b40c004a490602001611fd1565b6125dd612853565b6001600160a01b03166125f86033546001600160a01b031690565b6001600160a01b03161461261e5760405162461bcd60e51b8152600401610c8b906151d0565b61ffff8316600090815260666020526040902061263c828483615575565b507ffa41487ad5d6728f0b19276fa1eddc16558578f5109fc39d2dc33c3230470dab838383604051611cb093929190615273565b612678612853565b6001600160a01b0316856001600160a01b0316148061269e575061269e85610af1612853565b6126fc5760405162461bcd60e51b815260206004820152602960248201527f455243313135353a2063616c6c6572206973206e6f74206f776e6572206e6f7260448201526808185c1c1c9bdd995960ba1b6064820152608401610c8b565b61103685858585856132d0565b612711612853565b6001600160a01b031661272c6033546001600160a01b031690565b6001600160a01b0316146127525760405162461bcd60e51b8152600401610c8b906151d0565b6001600160a01b0381166127b75760405162461bcd60e51b815260206004820152602660248201527f4f776e61626c653a206e6577206f776e657220697320746865207a65726f206160448201526564647265737360d01b6064820152608401610c8b565b61254781612fb7565b606554604051633d7b2f6f60e21b815261ffff808716600483015285166024820152306044820152606481018390526060916001600160a01b03169063f5ecbdbc90608401600060405180830381865afa158015612822573d6000803e3d6000fd5b505050506040513d6000823e601f3d908101601f1916820160405261284a9190810190615683565b95945050505050565b6000336128696101c5546001600160a01b031690565b6001600160a01b031603612884575060131936013560601c90565b503390565b90565b6000806128ef5a60966366ad5c8a60e01b898989896040516024016128b494939291906156b7565b60408051601f198184030181529190526020810180516001600160e01b03166001600160e01b0319909316929092179091523092919061340c565b91509150816118b7576118b78686868685613498565b60006001600160e01b031982166319abbbbb60e11b1480610ed95750610ed982613535565b815183511461294b5760405162461bcd60e51b8152600401610c8b906156f5565b6001600160a01b0384166129715760405162461bcd60e51b8152600401610c8b9061573d565b600061297b612853565b905061298b818787878787613585565b60005b8451811015612a745760008582815181106129ab576129ab615205565b6020026020010151905060008583815181106129c9576129c9615205565b602090810291909101810151600084815260fb835260408082206001600160a01b038e168352909352919091205490915081811015612a1a5760405162461bcd60e51b8152600401610c8b90615782565b600083815260fb602090815260408083206001600160a01b038e8116855292528083208585039055908b16825281208054849290612a59908490615291565b9250508190555050505080612a6d90615231565b905061298e565b50846001600160a01b0316866001600160a01b0316826001600160a01b03167f4a39dc06d4c0dbc64b70af90fd698a233a518aa5d07e595d983b8c0526c8f7fb8787604051612ac49291906157cc565b60405180910390a46118b7818787878787613701565b6040517f19457468657265756d205369676e6564204d6573736167653a0a3332000000006020820152603c8101829052600090605c01604051602081830303815290604052805190602001209050919050565b6000806000612b3c858561385c565b915091506117cb816138ca565b6001600160a01b038416612b6f5760405162461bcd60e51b8152600401610c8b906157f1565b6000612b79612853565b90506000612b8685612e1f565b90506000612b9385612e1f565b9050612ba483600089858589613585565b600086815260fb602090815260408083206001600160a01b038b16845290915281208054879290612bd6908490615291565b909155505060408051878152602081018790526001600160a01b03808a1692600092918716917fc3d58168c5ae7397731d063d5bbf3d657854427343f4c083240f7aacaa2d0f62910160405180910390a4610e3f83600089898989613a80565b612c438888888888613b3b565b6000868686604051602001612c5a93929190615450565b60405160208183030381529060405290508551600103612d605761015f5460ff1615612c9357612c8e886001846000613bfb565b612cb2565b815115612cb25760405162461bcd60e51b8152600401610c8b90615832565b612cc0888286868634613cda565b86604051612cce9190615876565b6040518091039020896001600160a01b03168961ffff167f968b0d61ebcf43e5d76ed87bd2c4ee2f22b4969b9f4ca49e3373c025eddd5eeb89600081518110612d1957612d19615205565b602002602001015189600081518110612d3457612d34615205565b6020026020010151604051612d53929190918252602082015260400190565b60405180910390a461208b565b60018651111561208b5761015f5460ff1615612d8957612d84886002846000613bfb565b612da8565b815115612da85760405162461bcd60e51b8152600401610c8b90615832565b612db6888286868634613cda565b86604051612dc49190615876565b6040518091039020896001600160a01b03168961ffff167fddd15f7cfbd674ac2096d598f1650367f8a8bd72b4e3abd85591099ea3b57e338989604051612e0c9291906157cc565b60405180910390a4505050505050505050565b60408051600180825281830190925260609160009190602080830190803683370190505090508281600081518110612e5957612e59615205565b602090810291909101015292915050565b600080600083806020019051810190612e8391906158f8565b60148301519295509093509150612e9c88828585613e63565b8251600103612f4557806001600160a01b031687604051612ebd9190615876565b60405180910390208961ffff167f1bf64e58d19fc43de4c44b3d1bb1fae313979af831a7a39f3297564294329f0f86600081518110612efe57612efe615205565b602002602001015186600081518110612f1957612f19615205565b6020026020010151604051612f38929190918252602082015260400190565b60405180910390a4611680565b60018351111561168057806001600160a01b031687604051612f679190615876565b60405180910390208961ffff167f1ae08edbbcd7baa8d064835de8593ce16b313414525ac89534e349f4da7926e48686604051612fa59291906157cc565b60405180910390a45050505050505050565b603380546001600160a01b038381166001600160a01b0319831681179093556040519116919082907f8be0079c531659141344cd1fd0a4f28419497f9722a3daafe3b4186f6b6457e090600090a35050565b60608161301781601f615291565b10156130565760405162461bcd60e51b815260206004820152600e60248201526d736c6963655f6f766572666c6f7760901b6044820152606401610c8b565b6130608284615291565b845110156130a45760405162461bcd60e51b8152602060048201526011602482015270736c6963655f6f75744f66426f756e647360781b6044820152606401610c8b565b6060821580156130c3576040519150600082526020820160405261310d565b6040519150601f8416801560200281840101858101878315602002848b0101015b818310156130fc5780518352602092830192016130e4565b5050858452601f01601f1916604052505b50949350505050565b816001600160a01b0316836001600160a01b0316036131895760405162461bcd60e51b815260206004820152602960248201527f455243313135353a2073657474696e6720617070726f76616c20737461747573604482015268103337b91039b2b63360b91b6064820152608401610c8b565b6001600160a01b03838116600081815260fc6020908152604080832094871680845294825291829020805460ff191686151590811790915591519182527f17307eab39ab6107e8899845ad3d59bd9653f200f220920489ca2b5937696c31910160405180910390a3505050565b60008054610100900460ff161561323d578160ff1660011480156132195750303b155b6132355760405162461bcd60e51b8152600401610c8b9061597f565b506000919050565b60005460ff8084169116106132645760405162461bcd60e51b8152600401610c8b9061597f565b506000805460ff191660ff92909216919091179055600190565b919050565b600054610100900460ff166132aa5760405162461bcd60e51b8152600401610c8b906159cd565b6132b2613e84565b6132bb82613ebb565b611bef81613ee2565b60fd611bef8282615391565b6001600160a01b0384166132f65760405162461bcd60e51b8152600401610c8b9061573d565b6000613300612853565b9050600061330d85612e1f565b9050600061331a85612e1f565b905061332a838989858589613585565b600086815260fb602090815260408083206001600160a01b038c1684529091529020548581101561336d5760405162461bcd60e51b8152600401610c8b90615782565b600087815260fb602090815260408083206001600160a01b038d8116855292528083208985039055908a168252812080548892906133ac908490615291565b909155505060408051888152602081018890526001600160a01b03808b16928c821692918816917fc3d58168c5ae7397731d063d5bbf3d657854427343f4c083240f7aacaa2d0f62910160405180910390a461208b848a8a8a8a8a613a80565b6000606060008060008661ffff166001600160401b03811115613431576134316146ce565b6040519080825280601f01601f19166020018201604052801561345b576020820181803683370190505b50905060008087516020890160008d8df191503d92508683111561347d578692505b828152826000602083013e9093509150505b94509492505050565b8180519060200120609760008761ffff1661ffff168152602001908152602001600020856040516134c99190615876565b9081526040805191829003602090810183206001600160401b0388166000908152915220919091557fe183f33de2837795525b4792ca4cd60535bd77c53b7e7030060bfcf5734d6b0c906135269087908790879087908790615a18565b60405180910390a15050505050565b60006001600160e01b03198216636cdb3d1360e11b148061356657506001600160e01b031982166303a24d0760e21b145b80610ed957506301ffc9a760e01b6001600160e01b0319831614610ed9565b6001600160a01b03851661360d5760005b835181101561360b578281815181106135b1576135b1615205565b602002602001015161012d60008684815181106135d0576135d0615205565b6020026020010151815260200190815260200160002060008282546135f59190615291565b90915550613604905081615231565b9050613596565b505b6001600160a01b0384166118b75760005b8351811015610e3f57600084828151811061363b5761363b615205565b60200260200101519050600084838151811061365957613659615205565b60200260200101519050600061012d6000848152602001908152602001600020549050818110156136dd5760405162461bcd60e51b815260206004820152602860248201527f455243313135353a206275726e20616d6f756e74206578636565647320746f74604482015267616c537570706c7960c01b6064820152608401610c8b565b600092835261012d6020526040909220910390556136fa81615231565b905061361e565b6001600160a01b0384163b156118b75760405163bc197c8160e01b81526001600160a01b0385169063bc197c81906137459089908990889088908890600401615a6a565b6020604051808303816000875af1925050508015613780575060408051601f3d908101601f1916820190925261377d91810190615aa8565b60015b61382c5761378c615ac5565b806308c379a0036137c557506137a0615ae0565b806137ab57506137c7565b8060405162461bcd60e51b8152600401610c8b919061466b565b505b60405162461bcd60e51b815260206004820152603460248201527f455243313135353a207472616e7366657220746f206e6f6e20455243313135356044820152732932b1b2b4bb32b91034b6b83632b6b2b73a32b960611b6064820152608401610c8b565b6001600160e01b0319811663bc197c8160e01b14610e3f5760405162461bcd60e51b8152600401610c8b90615b69565b60008082516041036138925760208301516040840151606085015160001a61388687828585613f2b565b945094505050506138c3565b82516040036138bb57602083015160408401516138b0868383614015565b9350935050506138c3565b506000905060025b9250929050565b60008160048111156138de576138de615bb1565b036138e65750565b60018160048111156138fa576138fa615bb1565b036139475760405162461bcd60e51b815260206004820152601860248201527f45434453413a20696e76616c6964207369676e617475726500000000000000006044820152606401610c8b565b600281600481111561395b5761395b615bb1565b036139a85760405162461bcd60e51b815260206004820152601f60248201527f45434453413a20696e76616c6964207369676e6174757265206c656e677468006044820152606401610c8b565b60038160048111156139bc576139bc615bb1565b03613a145760405162461bcd60e51b815260206004820152602260248201527f45434453413a20696e76616c6964207369676e6174757265202773272076616c604482015261756560f01b6064820152608401610c8b565b6004816004811115613a2857613a28615bb1565b036125475760405162461bcd60e51b815260206004820152602260248201527f45434453413a20696e76616c6964207369676e6174757265202776272076616c604482015261756560f01b6064820152608401610c8b565b6001600160a01b0384163b156118b75760405163f23a6e6160e01b81526001600160a01b0385169063f23a6e6190613ac49089908990889088908890600401615bc7565b6020604051808303816000875af1925050508015613aff575060408051601f3d908101601f19168201909252613afc91810190615aa8565b60015b613b0b5761378c615ac5565b6001600160e01b0319811663f23a6e6160e01b14610e3f5760405162461bcd60e51b8152600401610c8b90615b69565b6000613b45612853565b9050856001600160a01b0316816001600160a01b03161480613b8c57506001600160a01b03808716600090815260fc602090815260408083209385168352929052205460ff165b613bf05760405162461bcd60e51b815260206004820152602f60248201527f4f455243313135353a2073656e642063616c6c6572206973206e6f74206f776e60448201526e195c881b9bdc88185c1c1c9bdd9959608a1b6064820152608401610c8b565b6118b786848461404e565b6000613c068361426c565b61ffff808716600090815260676020908152604080832093891683529290529081205491925090613c38908490615291565b905060008111613c8a5760405162461bcd60e51b815260206004820152601a60248201527f4c7a4170703a206d696e4761734c696d6974206e6f74207365740000000000006044820152606401610c8b565b808210156118b75760405162461bcd60e51b815260206004820152601b60248201527f4c7a4170703a20676173206c696d697420697320746f6f206c6f7700000000006044820152606401610c8b565b61ffff861660009081526066602052604081208054613cf890615186565b80601f0160208091040260200160405190810160405280929190818152602001828054613d2490615186565b8015613d715780601f10613d4657610100808354040283529160200191613d71565b820191906000526020600020905b815481529060010190602001808311613d5457829003601f168201915b505050505090508051600003613de25760405162461bcd60e51b815260206004820152603060248201527f4c7a4170703a2064657374696e6174696f6e20636861696e206973206e6f742060448201526f61207472757374656420736f7572636560801b6064820152608401610c8b565b613ded8787516142c8565b60655460405162c5803160e81b81526001600160a01b039091169063c5803100908490613e28908b9086908c908c908c908c90600401615c01565b6000604051808303818588803b158015613e4157600080fd5b505af1158015613e55573d6000803e3d6000fd5b505050505050505050505050565b613e7e83838360405180602001604052806000815250614339565b50505050565b600054610100900460ff16613eab5760405162461bcd60e51b8152600401610c8b906159cd565b611980613eb6612853565b612fb7565b600054610100900460ff1661253e5760405162461bcd60e51b8152600401610c8b906159cd565b600054610100900460ff16613f095760405162461bcd60e51b8152600401610c8b906159cd565b606580546001600160a01b0319166001600160a01b0392909216919091179055565b6000807f7fffffffffffffffffffffffffffffff5d576e7357a4501ddfe92f46681b20a0831115613f62575060009050600361348f565b8460ff16601b14158015613f7a57508460ff16601c14155b15613f8b575060009050600461348f565b6040805160008082526020820180845289905260ff881692820192909252606081018690526080810185905260019060a0016020604051602081039080840390855afa158015613fdf573d6000803e3d6000fd5b5050604051601f1901519150506001600160a01b0381166140085760006001925092505061348f565b9660009650945050505050565b6000806001600160ff1b0383168161403260ff86901c601b615291565b905061404087828885613f2b565b935093505050935093915050565b6001600160a01b0383166140b05760405162461bcd60e51b815260206004820152602360248201527f455243313135353a206275726e2066726f6d20746865207a65726f206164647260448201526265737360e81b6064820152608401610c8b565b80518251146140d15760405162461bcd60e51b8152600401610c8b906156f5565b60006140db612853565b90506140fb81856000868660405180602001604052806000815250613585565b60005b83518110156141ff57600084828151811061411b5761411b615205565b60200260200101519050600084838151811061413957614139615205565b602090810291909101810151600084815260fb835260408082206001600160a01b038c1683529093529190912054909150818110156141c65760405162461bcd60e51b8152602060048201526024808201527f455243313135353a206275726e20616d6f756e7420657863656564732062616c604482015263616e636560e01b6064820152608401610c8b565b600092835260fb602090815260408085206001600160a01b038b16865290915290922091039055806141f781615231565b9150506140fe565b5060006001600160a01b0316846001600160a01b0316826001600160a01b03167f4a39dc06d4c0dbc64b70af90fd698a233a518aa5d07e595d983b8c0526c8f7fb86866040516142509291906157cc565b60405180910390a4604080516020810190915260009052613e7e565b60006022825110156142c05760405162461bcd60e51b815260206004820152601c60248201527f4c7a4170703a20696e76616c69642061646170746572506172616d73000000006044820152606401610c8b565b506022015190565b61ffff8216600090815260686020526040812054908190036142e957506127105b808211156112615760405162461bcd60e51b815260206004820181905260248201527f4c7a4170703a207061796c6f61642073697a6520697320746f6f206c617267656044820152606401610c8b565b6001600160a01b03841661435f5760405162461bcd60e51b8152600401610c8b906157f1565b81518351146143805760405162461bcd60e51b8152600401610c8b906156f5565b600061438a612853565b905061439b81600087878787613585565b60005b8451811015614437578381815181106143b9576143b9615205565b602002602001015160fb60008784815181106143d7576143d7615205565b602002602001015181526020019081526020016000206000886001600160a01b03166001600160a01b03168152602001908152602001600020600082825461441f9190615291565b9091555081905061442f81615231565b91505061439e565b50846001600160a01b031660006001600160a01b0316826001600160a01b03167f4a39dc06d4c0dbc64b70af90fd698a233a518aa5d07e595d983b8c0526c8f7fb87876040516144889291906157cc565b60405180910390a461103681600087878787613701565b803561ffff8116811461327e57600080fd5b60008083601f8401126144c357600080fd5b5081356001600160401b038111156144da57600080fd5b6020830191508360208285010111156138c357600080fd5b80356001600160401b038116811461327e57600080fd5b6000806000806000806080878903121561452257600080fd5b61452b8761449f565b955060208701356001600160401b038082111561454757600080fd5b6145538a838b016144b1565b909750955085915061456760408a016144f2565b9450606089013591508082111561457d57600080fd5b5061458a89828a016144b1565b979a9699509497509295939492505050565b6001600160a01b038116811461254757600080fd5b803561327e8161459c565b600080604083850312156145cf57600080fd5b82356145da8161459c565b946020939093013593505050565b6001600160e01b03198116811461254757600080fd5b60006020828403121561461057600080fd5b8135611bd6816145e8565b60005b8381101561463657818101518382015260200161461e565b50506000910152565b6000815180845261465781602086016020860161461b565b601f01601f19169290920160200192915050565b602081526000611bd6602083018461463f565b60006020828403121561469057600080fd5b611bd68261449f565b600080604083850312156146ac57600080fd5b6145da8361449f565b6000602082840312156146c757600080fd5b5035919050565b634e487b7160e01b600052604160045260246000fd5b601f8201601f191681016001600160401b0381118282101715614709576147096146ce565b6040525050565b60006001600160401b03821115614729576147296146ce565b5060051b60200190565b600082601f83011261474457600080fd5b8135602061475182614710565b60405161475e82826146e4565b83815260059390931b850182019282810191508684111561477e57600080fd5b8286015b848110156147995780358352918301918301614782565b509695505050505050565b600080604083850312156147b757600080fd5b82356001600160401b03808211156147ce57600080fd5b6147da86838701614733565b935060208501359150808211156147f057600080fd5b506147fd85828601614733565b9150509250929050565b60006020828403121561481957600080fd5b8135611bd68161459c565b60006001600160401b0382111561483d5761483d6146ce565b50601f01601f191660200190565b600082601f83011261485c57600080fd5b813561486781614824565b60405161487482826146e4565b82815285602084870101111561488957600080fd5b82602086016020830137600092810160200192909252509392505050565b600080600080600060a086880312156148bf57600080fd5b85356148ca8161459c565b945060208601356148da8161459c565b935060408601356001600160401b03808211156148f657600080fd5b61490289838a01614733565b9450606088013591508082111561491857600080fd5b61492489838a01614733565b9350608088013591508082111561493a57600080fd5b506149478882890161484b565b9150509295509295909350565b60008060006040848603121561496957600080fd5b6149728461449f565b925060208401356001600160401b0381111561498d57600080fd5b614999868287016144b1565b9497909650939450505050565b600080600080608085870312156149bc57600080fd5b84359350602085013592506040850135915060608501356001600160401b038111156149e757600080fd5b6149f38782880161484b565b91505092959194509250565b600080600080600080600080610100898b031215614a1c57600080fd5b614a25896145b1565b9750614a3360208a0161449f565b965060408901356001600160401b0380821115614a4f57600080fd5b614a5b8c838d0161484b565b975060608b0135915080821115614a7157600080fd5b614a7d8c838d01614733565b965060808b0135915080821115614a9357600080fd5b614a9f8c838d01614733565b9550614aad60a08c016145b1565b9450614abb60c08c016145b1565b935060e08b0135915080821115614ad157600080fd5b50614ade8b828c0161484b565b9150509295985092959890939650565b600080600080600080600080610100898b031215614b0b57600080fd5b8835614b168161459c565b9750614b2460208a0161449f565b965060408901356001600160401b0380821115614b4057600080fd5b614b4c8c838d0161484b565b975060608b0135965060808b0135955060a08b01359150614b6c8261459c565b90935060c08a013590614b7e8261459c565b90925060e08a01359080821115614ad157600080fd5b60008060408385031215614ba757600080fd5b82356001600160401b0380821115614bbe57600080fd5b818501915085601f830112614bd257600080fd5b81356020614bdf82614710565b604051614bec82826146e4565b83815260059390931b8501820192828101915089841115614c0c57600080fd5b948201945b83861015614c33578535614c248161459c565b82529482019490820190614c11565b965050860135925050808211156147f057600080fd5b600081518084526020808501945080840160005b83811015614c7957815187529582019590820190600101614c5d565b509495945050505050565b602081526000611bd66020830184614c49565b600080600060608486031215614cac57600080fd5b614cb58461449f565b925060208401356001600160401b03811115614cd057600080fd5b614cdc8682870161484b565b925050614ceb604085016144f2565b90509250925092565b8035801515811461327e57600080fd5b60008060008060008060c08789031215614d1d57600080fd5b614d268761449f565b955060208701356001600160401b0380821115614d4257600080fd5b614d4e8a838b0161484b565b96506040890135955060608901359450614d6a60808a01614cf4565b935060a0890135915080821115614d8057600080fd5b50614d8d89828a0161484b565b9150509295509295509295565b60008060408385031215614dad57600080fd5b614db68361449f565b9150614dc46020840161449f565b90509250929050565b60008060408385031215614de057600080fd5b8235614deb8161459c565b9150614dc460208401614cf4565b60008060008060008060c08789031215614e1257600080fd5b614e1b8761449f565b955060208701356001600160401b0380821115614e3757600080fd5b614e438a838b0161484b565b96506040890135915080821115614e5957600080fd5b614e658a838b01614733565b95506060890135915080821115614e7b57600080fd5b614e878a838b01614733565b9450614d6a60808a01614cf4565b600080600080600060a08688031215614ead57600080fd5b8535614eb88161459c565b945060208601359350604086013592506060860135915060808601356001600160401b03811115614ee857600080fd5b6149478882890161484b565b600080600080600060808688031215614f0c57600080fd5b614f158661449f565b9450614f236020870161449f565b93506040860135925060608601356001600160401b03811115614f4557600080fd5b614f51888289016144b1565b969995985093965092949392505050565b600080600080600060a08688031215614f7a57600080fd5b85356001600160401b0380821115614f9157600080fd5b614f9d89838a0161484b565b96506020880135915080821115614fb357600080fd5b614fbf89838a0161484b565b95506040880135915080821115614fd557600080fd5b50614fe28882890161484b565b9350506060860135614ff38161459c565b915060808601356150038161459c565b809150509295509295909350565b60008060006060848603121561502657600080fd5b61502f8461449f565b925061503d6020850161449f565b9150604084013590509250925092565b60006020828403121561505f57600080fd5b81356001600160401b0381111561507557600080fd5b6150818482850161484b565b949350505050565b6000806040838503121561509c57600080fd5b82356150a78161459c565b915060208301356150b78161459c565b809150509250929050565b6000602082840312156150d457600080fd5b611bd682614cf4565b600080600080600060a086880312156150f557600080fd5b85356151008161459c565b945060208601356151108161459c565b9350604086013592506060860135915060808601356001600160401b03811115614ee857600080fd5b6000806000806080858703121561514f57600080fd5b6151588561449f565b93506151666020860161449f565b925060408501356151768161459c565b9396929550929360600135925050565b600181811c9082168061519a57607f821691505b6020821081036151ba57634e487b7160e01b600052602260045260246000fd5b50919050565b8183823760009101908152919050565b6020808252818101527f4f776e61626c653a2063616c6c6572206973206e6f7420746865206f776e6572604082015260600190565b634e487b7160e01b600052603260045260246000fd5b634e487b7160e01b600052601160045260246000fd5b6000600182016152435761524361521b565b5060010190565b81835281816020850137506000828201602090810191909152601f909101601f19169091010190565b61ffff8416815260406020820152600061284a60408301848661524a565b80820180821115610ed957610ed961521b565b60208082526024908201527f4d696e7420616d6f756e74206578636565647320746f74616c20737570706c79604082015263040dac2f60e31b606082015260800190565b84815283602082015282604082015260806060820152600061530d608083018461463f565b9695505050505050565b81810381811115610ed957610ed961521b565b8284823760609190911b6001600160601b0319169101908152601401919050565b601f82111561126157600081815260208120601f850160051c810160208610156153725750805b601f850160051c820191505b818110156118b75782815560010161537e565b81516001600160401b038111156153aa576153aa6146ce565b6153be816153b88454615186565b8461534b565b602080601f8311600181146153f357600084156153db5750858301515b600019600386901b1c1916600185901b1785556118b7565b600085815260208120601f198616915b8281101561542257888601518255948401946001909101908401615403565b50858210156154405787850151600019600388901b60f8161c191681555b5050505050600190811b01905550565b606081526000615463606083018661463f565b82810360208401526154758186614c49565b9050828103604084015261530d8185614c49565b61ffff861681526001600160a01b038516602082015260a0604082018190526000906154b79083018661463f565b841515606084015282810360808401526154d1818561463f565b98975050505050505050565b600080604083850312156154f057600080fd5b505080516020909101519092909150565b600061ffff80881683528087166020840152508460408301526080606083015261552f60808301848661524a565b979650505050505050565b61ffff8616815260806020820152600061555860808301868861524a565b6001600160401b0394909416604083015250606001529392505050565b6001600160401b0383111561558c5761558c6146ce565b6155a08361559a8354615186565b8361534b565b6000601f8411600181146155d457600085156155bc5750838201355b600019600387901b1c1916600186901b178355611036565b600083815260209020601f19861690835b8281101561560557868501358255602094850194600190920191016155e5565b50868210156156225760001960f88860031b161c19848701351681555b505060018560011b0183555050505050565b600082601f83011261564557600080fd5b815161565081614824565b60405161565d82826146e4565b82815285602084870101111561567257600080fd5b61284a83602083016020880161461b565b60006020828403121561569557600080fd5b81516001600160401b038111156156ab57600080fd5b61508184828501615634565b61ffff851681526080602082015260006156d4608083018661463f565b6001600160401b0385166040840152828103606084015261552f818561463f565b60208082526028908201527f455243313135353a2069647320616e6420616d6f756e7473206c656e677468206040820152670dad2e6dac2e8c6d60c31b606082015260800190565b60208082526025908201527f455243313135353a207472616e7366657220746f20746865207a65726f206164604082015264647265737360d81b606082015260800190565b6020808252602a908201527f455243313135353a20696e73756666696369656e742062616c616e636520666f60408201526939103a3930b739b332b960b11b606082015260800190565b6040815260006157df6040830185614c49565b828103602084015261284a8185614c49565b60208082526021908201527f455243313135353a206d696e7420746f20746865207a65726f206164647265736040820152607360f81b606082015260800190565b60208082526024908201527f4c7a4170703a205f61646170746572506172616d73206d75737420626520656d604082015263383a3c9760e11b606082015260800190565b6000825161588881846020870161461b565b9190910192915050565b600082601f8301126158a357600080fd5b815160206158b082614710565b6040516158bd82826146e4565b83815260059390931b85018201928281019150868411156158dd57600080fd5b8286015b8481101561479957805183529183019183016158e1565b60008060006060848603121561590d57600080fd5b83516001600160401b038082111561592457600080fd5b61593087838801615634565b9450602086015191508082111561594657600080fd5b61595287838801615892565b9350604086015191508082111561596857600080fd5b5061597586828701615892565b9150509250925092565b6020808252602e908201527f496e697469616c697a61626c653a20636f6e747261637420697320616c72656160408201526d191e481a5b9a5d1a585b1a5e995960921b606082015260800190565b6020808252602b908201527f496e697469616c697a61626c653a20636f6e7472616374206973206e6f74206960408201526a6e697469616c697a696e6760a81b606082015260800190565b61ffff8616815260a060208201526000615a3560a083018761463f565b6001600160401b03861660408401528281036060840152615a56818661463f565b905082810360808401526154d1818561463f565b6001600160a01b0386811682528516602082015260a060408201819052600090615a9690830186614c49565b8281036060840152615a568186614c49565b600060208284031215615aba57600080fd5b8151611bd6816145e8565b600060033d11156128895760046000803e5060005160e01c90565b600060443d1015615aee5790565b6040516003193d81016004833e81513d6001600160401b038160248401118184111715615b1d57505050505090565b8285019150815181811115615b355750505050505090565b843d8701016020828501011115615b4f5750505050505090565b615b5e602082860101876146e4565b509095945050505050565b60208082526028908201527f455243313135353a204552433131353552656365697665722072656a656374656040820152676420746f6b656e7360c01b606082015260800190565b634e487b7160e01b600052602160045260246000fd5b6001600160a01b03868116825285166020820152604081018490526060810183905260a06080820181905260009061552f9083018461463f565b61ffff8716815260c060208201526000615c1e60c083018861463f565b8281036040840152615c30818861463f565b6001600160a01b0387811660608601528616608085015283810360a08501529050615c5b818561463f565b999850505050505050505056fea26469706673582212200f066f673704936b0fd410ee6f503abe6e4a9e607c641ef3ae8885613fc7e3b964736f6c63430008120033",
			"opcodes": "PUSH1 0x80 PUSH1 0x40 MSTORE CALLVALUE DUP1 ISZERO PUSH2 0x10 JUMPI PUSH1 0x0 DUP1 REVERT JUMPDEST POP PUSH2 0x5C9E DUP1 PUSH3 0x21 PUSH1 0x0 CODECOPY PUSH1 0x0 RETURN INVALID PUSH1 0x80 PUSH1 0x40 MSTORE PUSH1 0x4 CALLDATASIZE LT PUSH2 0x395 JUMPI PUSH1 0x0 CALLDATALOAD PUSH1 0xE0 SHR DUP1 PUSH4 0x8CFD8F5C GT PUSH2 0x1DC JUMPI DUP1 PUSH4 0xCBED8B9C GT PUSH2 0x102 JUMPI DUP1 PUSH4 0xEAB45D9C GT PUSH2 0xA0 JUMPI DUP1 PUSH4 0xF242432A GT PUSH2 0x6F JUMPI DUP1 PUSH4 0xF242432A EQ PUSH2 0xBA6 JUMPI DUP1 PUSH4 0xF2FDE38B EQ PUSH2 0xBC6 JUMPI DUP1 PUSH4 0xF5ECBDBC EQ PUSH2 0xBE6 JUMPI DUP1 PUSH4 0xF645D4F9 EQ PUSH2 0xC06 JUMPI PUSH1 0x0 DUP1 REVERT JUMPDEST DUP1 PUSH4 0xEAB45D9C EQ PUSH2 0xB1F JUMPI DUP1 PUSH4 0xEB8D72B7 EQ PUSH2 0xB3F JUMPI DUP1 PUSH4 0xED629C5C EQ PUSH2 0xB5F JUMPI DUP1 PUSH4 0xF23A6E61 EQ PUSH2 0xB7A JUMPI PUSH1 0x0 DUP1 REVERT JUMPDEST DUP1 PUSH4 0xD6D0FAEE GT PUSH2 0xDC JUMPI DUP1 PUSH4 0xD6D0FAEE EQ PUSH2 0xA76 JUMPI DUP1 PUSH4 0xDF2A5B3B EQ PUSH2 0xA96 JUMPI DUP1 PUSH4 0xE0DF5B6F EQ PUSH2 0xAB6 JUMPI DUP1 PUSH4 0xE985E9C5 EQ PUSH2 0xAD6 JUMPI PUSH1 0x0 DUP1 REVERT JUMPDEST DUP1 PUSH4 0xCBED8B9C EQ PUSH2 0xA23 JUMPI DUP1 PUSH4 0xCC8B84BF EQ PUSH2 0xA43 JUMPI DUP1 PUSH4 0xD1DEBA1F EQ PUSH2 0xA63 JUMPI PUSH1 0x0 DUP1 REVERT JUMPDEST DUP1 PUSH4 0xAF3FB21C GT PUSH2 0x17A JUMPI DUP1 PUSH4 0xBAF3292D GT PUSH2 0x149 JUMPI DUP1 PUSH4 0xBAF3292D EQ PUSH2 0x97A JUMPI DUP1 PUSH4 0xBC197C81 EQ PUSH2 0x99A JUMPI DUP1 PUSH4 0xBD85B039 EQ PUSH2 0x9DF JUMPI DUP1 PUSH4 0xC4461834 EQ PUSH2 0xA0D JUMPI PUSH1 0x0 DUP1 REVERT JUMPDEST DUP1 PUSH4 0xAF3FB21C EQ PUSH2 0x905 JUMPI DUP1 PUSH4 0xB2535663 EQ PUSH2 0x91A JUMPI DUP1 PUSH4 0xB353AAA7 EQ PUSH2 0x93A JUMPI DUP1 PUSH4 0xB49C99B8 EQ PUSH2 0x95A JUMPI PUSH1 0x0 DUP1 REVERT JUMPDEST DUP1 PUSH4 0x95D89B41 GT PUSH2 0x1B6 JUMPI DUP1 PUSH4 0x95D89B41 EQ PUSH2 0x890 JUMPI DUP1 PUSH4 0x9F38369A EQ PUSH2 0x8A5 JUMPI DUP1 PUSH4 0xA22CB465 EQ PUSH2 0x8C5 JUMPI DUP1 PUSH4 0xA6C3D165 EQ PUSH2 0x8E5 JUMPI PUSH1 0x0 DUP1 REVERT JUMPDEST DUP1 PUSH4 0x8CFD8F5C EQ PUSH2 0x806 JUMPI DUP1 PUSH4 0x8DA5CB5B EQ PUSH2 0x83E JUMPI DUP1 PUSH4 0x950C8A74 EQ PUSH2 0x870 JUMPI PUSH1 0x0 DUP1 REVERT JUMPDEST DUP1 PUSH4 0x44770515 GT PUSH2 0x2C1 JUMPI DUP1 PUSH4 0x66AD5C8A GT PUSH2 0x25F JUMPI DUP1 PUSH4 0x7DF73E27 GT PUSH2 0x22E JUMPI DUP1 PUSH4 0x7DF73E27 EQ PUSH2 0x749 JUMPI DUP1 PUSH4 0x844E4244 EQ PUSH2 0x783 JUMPI DUP1 PUSH4 0x8608E5F8 EQ PUSH2 0x7B1 JUMPI DUP1 PUSH4 0x883B524F EQ PUSH2 0x7E6 JUMPI PUSH1 0x0 DUP1 REVERT JUMPDEST DUP1 PUSH4 0x66AD5C8A EQ PUSH2 0x6D4 JUMPI DUP1 PUSH4 0x6C19E783 EQ PUSH2 0x6F4 JUMPI DUP1 PUSH4 0x715018A6 EQ PUSH2 0x714 JUMPI DUP1 PUSH4 0x7533D788 EQ PUSH2 0x729 JUMPI PUSH1 0x0 DUP1 REVERT JUMPDEST DUP1 PUSH4 0x4DB8226A GT PUSH2 0x29B JUMPI DUP1 PUSH4 0x4DB8226A EQ PUSH2 0x615 JUMPI DUP1 PUSH4 0x4E1273F4 EQ PUSH2 0x628 JUMPI DUP1 PUSH4 0x4F558E79 EQ PUSH2 0x655 JUMPI DUP1 PUSH4 0x5B8C41E6 EQ PUSH2 0x685 JUMPI PUSH1 0x0 DUP1 REVERT JUMPDEST DUP1 PUSH4 0x44770515 EQ PUSH2 0x5CD JUMPI DUP1 PUSH4 0x4A9EEE69 EQ PUSH2 0x5E2 JUMPI DUP1 PUSH4 0x4AB4E687 EQ PUSH2 0x602 JUMPI PUSH1 0x0 DUP1 REVERT JUMPDEST DUP1 PUSH4 0x10DDB137 GT PUSH2 0x339 JUMPI DUP1 PUSH4 0x2EB2C2D6 GT PUSH2 0x308 JUMPI DUP1 PUSH4 0x2EB2C2D6 EQ PUSH2 0x540 JUMPI DUP1 PUSH4 0x3D8B38F6 EQ PUSH2 0x560 JUMPI DUP1 PUSH4 0x3F1F4FA4 EQ PUSH2 0x580 JUMPI DUP1 PUSH4 0x42D65A8D EQ PUSH2 0x5AD JUMPI PUSH1 0x0 DUP1 REVERT JUMPDEST DUP1 PUSH4 0x10DDB137 EQ PUSH2 0x4A1 JUMPI DUP1 PUSH4 0x149E3E1F EQ PUSH2 0x4C1 JUMPI DUP1 PUSH4 0x26FF1979 EQ PUSH2 0x4E9 JUMPI DUP1 PUSH4 0x2D0335AB EQ PUSH2 0x509 JUMPI PUSH1 0x0 DUP1 REVERT JUMPDEST DUP1 PUSH4 0x6FDDE03 GT PUSH2 0x375 JUMPI DUP1 PUSH4 0x6FDDE03 EQ PUSH2 0x41F JUMPI DUP1 PUSH4 0x7E0DB17 EQ PUSH2 0x441 JUMPI DUP1 PUSH4 0xDF37483 EQ PUSH2 0x461 JUMPI DUP1 PUSH4 0xE89341C EQ PUSH2 0x481 JUMPI PUSH1 0x0 DUP1 REVERT JUMPDEST DUP1 PUSH3 0x1D3567 EQ PUSH2 0x39A JUMPI DUP1 PUSH3 0xFDD58E EQ PUSH2 0x3BC JUMPI DUP1 PUSH4 0x1FFC9A7 EQ PUSH2 0x3EF JUMPI JUMPDEST PUSH1 0x0 DUP1 REVERT JUMPDEST CALLVALUE DUP1 ISZERO PUSH2 0x3A6 JUMPI PUSH1 0x0 DUP1 REVERT JUMPDEST POP PUSH2 0x3BA PUSH2 0x3B5 CALLDATASIZE PUSH1 0x4 PUSH2 0x4509 JUMP JUMPDEST PUSH2 0xC25 JUMP JUMPDEST STOP JUMPDEST CALLVALUE DUP1 ISZERO PUSH2 0x3C8 JUMPI PUSH1 0x0 DUP1 REVERT JUMPDEST POP PUSH2 0x3DC PUSH2 0x3D7 CALLDATASIZE PUSH1 0x4 PUSH2 0x45BC JUMP JUMPDEST PUSH2 0xE48 JUMP JUMPDEST PUSH1 0x40 MLOAD SWAP1 DUP2 MSTORE PUSH1 0x20 ADD JUMPDEST PUSH1 0x40 MLOAD DUP1 SWAP2 SUB SWAP1 RETURN JUMPDEST CALLVALUE DUP1 ISZERO PUSH2 0x3FB JUMPI PUSH1 0x0 DUP1 REVERT JUMPDEST POP PUSH2 0x40F PUSH2 0x40A CALLDATASIZE PUSH1 0x4 PUSH2 0x45FE JUMP JUMPDEST PUSH2 0xEDF JUMP JUMPDEST PUSH1 0x40 MLOAD SWAP1 ISZERO ISZERO DUP2 MSTORE PUSH1 0x20 ADD PUSH2 0x3E6 JUMP JUMPDEST CALLVALUE DUP1 ISZERO PUSH2 0x42B JUMPI PUSH1 0x0 DUP1 REVERT JUMPDEST POP PUSH2 0x434 PUSH2 0xEFC JUMP JUMPDEST PUSH1 0x40 MLOAD PUSH2 0x3E6 SWAP2 SWAP1 PUSH2 0x466B JUMP JUMPDEST CALLVALUE DUP1 ISZERO PUSH2 0x44D JUMPI PUSH1 0x0 DUP1 REVERT JUMPDEST POP PUSH2 0x3BA PUSH2 0x45C CALLDATASIZE PUSH1 0x4 PUSH2 0x467E JUMP JUMPDEST PUSH2 0xF8F JUMP JUMPDEST CALLVALUE DUP1 ISZERO PUSH2 0x46D JUMPI PUSH1 0x0 DUP1 REVERT JUMPDEST POP PUSH2 0x3BA PUSH2 0x47C CALLDATASIZE PUSH1 0x4 PUSH2 0x4699 JUMP JUMPDEST PUSH2 0x103D JUMP JUMPDEST CALLVALUE DUP1 ISZERO PUSH2 0x48D JUMPI PUSH1 0x0 DUP1 REVERT JUMPDEST POP PUSH2 0x434 PUSH2 0x49C CALLDATASIZE PUSH1 0x4 PUSH2 0x46B5 JUMP JUMPDEST PUSH2 0x109D JUMP JUMPDEST CALLVALUE DUP1 ISZERO PUSH2 0x4AD JUMPI PUSH1 0x0 DUP1 REVERT JUMPDEST POP PUSH2 0x3BA PUSH2 0x4BC CALLDATASIZE PUSH1 0x4 PUSH2 0x467E JUMP JUMPDEST PUSH2 0x1131 JUMP JUMPDEST CALLVALUE DUP1 ISZERO PUSH2 0x4CD JUMPI PUSH1 0x0 DUP1 REVERT JUMPDEST POP PUSH2 0x4D6 PUSH1 0x2 DUP2 JUMP JUMPDEST PUSH1 0x40 MLOAD PUSH2 0xFFFF SWAP1 SWAP2 AND DUP2 MSTORE PUSH1 0x20 ADD PUSH2 0x3E6 JUMP JUMPDEST CALLVALUE DUP1 ISZERO PUSH2 0x4F5 JUMPI PUSH1 0x0 DUP1 REVERT JUMPDEST POP PUSH2 0x3BA PUSH2 0x504 CALLDATASIZE PUSH1 0x4 PUSH2 0x47A4 JUMP JUMPDEST PUSH2 0x11AE JUMP JUMPDEST CALLVALUE DUP1 ISZERO PUSH2 0x515 JUMPI PUSH1 0x0 DUP1 REVERT JUMPDEST POP PUSH2 0x3DC PUSH2 0x524 CALLDATASIZE PUSH1 0x4 PUSH2 0x4807 JUMP JUMPDEST PUSH1 0x1 PUSH1 0x1 PUSH1 0xA0 SHL SUB AND PUSH1 0x0 SWAP1 DUP2 MSTORE PUSH2 0x1C7 PUSH1 0x20 MSTORE PUSH1 0x40 SWAP1 KECCAK256 SLOAD SWAP1 JUMP JUMPDEST CALLVALUE DUP1 ISZERO PUSH2 0x54C JUMPI PUSH1 0x0 DUP1 REVERT JUMPDEST POP PUSH2 0x3BA PUSH2 0x55B CALLDATASIZE PUSH1 0x4 PUSH2 0x48A7 JUMP JUMPDEST PUSH2 0x1266 JUMP JUMPDEST CALLVALUE DUP1 ISZERO PUSH2 0x56C JUMPI PUSH1 0x0 DUP1 REVERT JUMPDEST POP PUSH2 0x40F PUSH2 0x57B CALLDATASIZE PUSH1 0x4 PUSH2 0x4954 JUMP JUMPDEST PUSH2 0x1308 JUMP JUMPDEST CALLVALUE DUP1 ISZERO PUSH2 0x58C JUMPI PUSH1 0x0 DUP1 REVERT JUMPDEST POP PUSH2 0x3DC PUSH2 0x59B CALLDATASIZE PUSH1 0x4 PUSH2 0x467E JUMP JUMPDEST PUSH1 0x68 PUSH1 0x20 MSTORE PUSH1 0x0 SWAP1 DUP2 MSTORE PUSH1 0x40 SWAP1 KECCAK256 SLOAD DUP2 JUMP JUMPDEST CALLVALUE DUP1 ISZERO PUSH2 0x5B9 JUMPI PUSH1 0x0 DUP1 REVERT JUMPDEST POP PUSH2 0x3BA PUSH2 0x5C8 CALLDATASIZE PUSH1 0x4 PUSH2 0x4954 JUMP JUMPDEST PUSH2 0x13D4 JUMP JUMPDEST CALLVALUE DUP1 ISZERO PUSH2 0x5D9 JUMPI PUSH1 0x0 DUP1 REVERT JUMPDEST POP PUSH2 0x3DC PUSH1 0x0 DUP2 JUMP JUMPDEST CALLVALUE DUP1 ISZERO PUSH2 0x5EE JUMPI PUSH1 0x0 DUP1 REVERT JUMPDEST POP PUSH2 0x3BA PUSH2 0x5FD CALLDATASIZE PUSH1 0x4 PUSH2 0x49A6 JUMP JUMPDEST PUSH2 0x147F JUMP JUMPDEST PUSH2 0x3BA PUSH2 0x610 CALLDATASIZE PUSH1 0x4 PUSH2 0x49FF JUMP JUMPDEST PUSH2 0x1670 JUMP JUMPDEST PUSH2 0x3BA PUSH2 0x623 CALLDATASIZE PUSH1 0x4 PUSH2 0x4AEE JUMP JUMPDEST PUSH2 0x168A JUMP JUMPDEST CALLVALUE DUP1 ISZERO PUSH2 0x634 JUMPI PUSH1 0x0 DUP1 REVERT JUMPDEST POP PUSH2 0x648 PUSH2 0x643 CALLDATASIZE PUSH1 0x4 PUSH2 0x4B94 JUMP JUMPDEST PUSH2 0x16AA JUMP JUMPDEST PUSH1 0x40 MLOAD PUSH2 0x3E6 SWAP2 SWAP1 PUSH2 0x4C84 JUMP JUMPDEST CALLVALUE DUP1 ISZERO PUSH2 0x661 JUMPI PUSH1 0x0 DUP1 REVERT JUMPDEST POP PUSH2 0x40F PUSH2 0x670 CALLDATASIZE PUSH1 0x4 PUSH2 0x46B5 JUMP JUMPDEST PUSH1 0x0 SWAP1 DUP2 MSTORE PUSH2 0x12D PUSH1 0x20 MSTORE PUSH1 0x40 SWAP1 KECCAK256 SLOAD ISZERO ISZERO SWAP1 JUMP JUMPDEST CALLVALUE DUP1 ISZERO PUSH2 0x691 JUMPI PUSH1 0x0 DUP1 REVERT JUMPDEST POP PUSH2 0x3DC PUSH2 0x6A0 CALLDATASIZE PUSH1 0x4 PUSH2 0x4C97 JUMP JUMPDEST PUSH1 0x97 PUSH1 0x20 SWAP1 DUP2 MSTORE PUSH1 0x0 SWAP4 DUP5 MSTORE PUSH1 0x40 DUP1 DUP6 KECCAK256 DUP5 MLOAD DUP1 DUP7 ADD DUP5 ADD DUP1 MLOAD SWAP3 DUP2 MSTORE SWAP1 DUP5 ADD SWAP6 DUP5 ADD SWAP6 SWAP1 SWAP6 KECCAK256 SWAP5 MSTORE SWAP3 SWAP1 MSTORE DUP3 MSTORE SWAP1 KECCAK256 SLOAD DUP2 JUMP JUMPDEST CALLVALUE DUP1 ISZERO PUSH2 0x6E0 JUMPI PUSH1 0x0 DUP1 REVERT JUMPDEST POP PUSH2 0x3BA PUSH2 0x6EF CALLDATASIZE PUSH1 0x4 PUSH2 0x4509 JUMP JUMPDEST PUSH2 0x17D3 JUMP JUMPDEST CALLVALUE DUP1 ISZERO PUSH2 0x700 JUMPI PUSH1 0x0 DUP1 REVERT JUMPDEST POP PUSH2 0x3BA PUSH2 0x70F CALLDATASIZE PUSH1 0x4 PUSH2 0x4807 JUMP JUMPDEST PUSH2 0x18BF JUMP JUMPDEST CALLVALUE DUP1 ISZERO PUSH2 0x720 JUMPI PUSH1 0x0 DUP1 REVERT JUMPDEST POP PUSH2 0x3BA PUSH2 0x192D JUMP JUMPDEST CALLVALUE DUP1 ISZERO PUSH2 0x735 JUMPI PUSH1 0x0 DUP1 REVERT JUMPDEST POP PUSH2 0x434 PUSH2 0x744 CALLDATASIZE PUSH1 0x4 PUSH2 0x467E JUMP JUMPDEST PUSH2 0x1982 JUMP JUMPDEST CALLVALUE DUP1 ISZERO PUSH2 0x755 JUMPI PUSH1 0x0 DUP1 REVERT JUMPDEST POP PUSH2 0x40F PUSH2 0x764 CALLDATASIZE PUSH1 0x4 PUSH2 0x4807 JUMP JUMPDEST PUSH1 0x1 PUSH1 0x1 PUSH1 0xA0 SHL SUB AND PUSH1 0x0 SWAP1 DUP2 MSTORE PUSH2 0x1C6 PUSH1 0x20 MSTORE PUSH1 0x40 SWAP1 KECCAK256 SLOAD PUSH1 0xFF AND SWAP1 JUMP JUMPDEST CALLVALUE DUP1 ISZERO PUSH2 0x78F JUMPI PUSH1 0x0 DUP1 REVERT JUMPDEST POP PUSH2 0x3DC PUSH2 0x79E CALLDATASIZE PUSH1 0x4 PUSH2 0x46B5 JUMP JUMPDEST PUSH1 0x0 SWAP1 DUP2 MSTORE PUSH2 0x1C8 PUSH1 0x20 MSTORE PUSH1 0x40 SWAP1 KECCAK256 SLOAD SWAP1 JUMP JUMPDEST CALLVALUE DUP1 ISZERO PUSH2 0x7BD JUMPI PUSH1 0x0 DUP1 REVERT JUMPDEST POP PUSH2 0x7D1 PUSH2 0x7CC CALLDATASIZE PUSH1 0x4 PUSH2 0x4D04 JUMP JUMPDEST PUSH2 0x1A1C JUMP JUMPDEST PUSH1 0x40 DUP1 MLOAD SWAP3 DUP4 MSTORE PUSH1 0x20 DUP4 ADD SWAP2 SWAP1 SWAP2 MSTORE ADD PUSH2 0x3E6 JUMP JUMPDEST CALLVALUE DUP1 ISZERO PUSH2 0x7F2 JUMPI PUSH1 0x0 DUP1 REVERT JUMPDEST POP PUSH2 0x3BA PUSH2 0x801 CALLDATASIZE PUSH1 0x4 PUSH2 0x4807 JUMP JUMPDEST PUSH2 0x1A4C JUMP JUMPDEST CALLVALUE DUP1 ISZERO PUSH2 0x812 JUMPI PUSH1 0x0 DUP1 REVERT JUMPDEST POP PUSH2 0x3DC PUSH2 0x821 CALLDATASIZE PUSH1 0x4 PUSH2 0x4D9A JUMP JUMPDEST PUSH1 0x67 PUSH1 0x20 SWAP1 DUP2 MSTORE PUSH1 0x0 SWAP3 DUP4 MSTORE PUSH1 0x40 DUP1 DUP5 KECCAK256 SWAP1 SWAP2 MSTORE SWAP1 DUP3 MSTORE SWAP1 KECCAK256 SLOAD DUP2 JUMP JUMPDEST CALLVALUE DUP1 ISZERO PUSH2 0x84A JUMPI PUSH1 0x0 DUP1 REVERT JUMPDEST POP PUSH1 0x33 SLOAD PUSH1 0x1 PUSH1 0x1 PUSH1 0xA0 SHL SUB AND JUMPDEST PUSH1 0x40 MLOAD PUSH1 0x1 PUSH1 0x1 PUSH1 0xA0 SHL SUB SWAP1 SWAP2 AND DUP2 MSTORE PUSH1 0x20 ADD PUSH2 0x3E6 JUMP JUMPDEST CALLVALUE DUP1 ISZERO PUSH2 0x87C JUMPI PUSH1 0x0 DUP1 REVERT JUMPDEST POP PUSH1 0x69 SLOAD PUSH2 0x858 SWAP1 PUSH1 0x1 PUSH1 0x1 PUSH1 0xA0 SHL SUB AND DUP2 JUMP JUMPDEST CALLVALUE DUP1 ISZERO PUSH2 0x89C JUMPI PUSH1 0x0 DUP1 REVERT JUMPDEST POP PUSH2 0x434 PUSH2 0x1AB7 JUMP JUMPDEST CALLVALUE DUP1 ISZERO PUSH2 0x8B1 JUMPI PUSH1 0x0 DUP1 REVERT JUMPDEST POP PUSH2 0x434 PUSH2 0x8C0 CALLDATASIZE PUSH1 0x4 PUSH2 0x467E JUMP JUMPDEST PUSH2 0x1AC7 JUMP JUMPDEST CALLVALUE DUP1 ISZERO PUSH2 0x8D1 JUMPI PUSH1 0x0 DUP1 REVERT JUMPDEST POP PUSH2 0x3BA PUSH2 0x8E0 CALLDATASIZE PUSH1 0x4 PUSH2 0x4DCD JUMP JUMPDEST PUSH2 0x1BDD JUMP JUMPDEST CALLVALUE DUP1 ISZERO PUSH2 0x8F1 JUMPI PUSH1 0x0 DUP1 REVERT JUMPDEST POP PUSH2 0x3BA PUSH2 0x900 CALLDATASIZE PUSH1 0x4 PUSH2 0x4954 JUMP JUMPDEST PUSH2 0x1BF3 JUMP JUMPDEST CALLVALUE DUP1 ISZERO PUSH2 0x911 JUMPI PUSH1 0x0 DUP1 REVERT JUMPDEST POP PUSH2 0x4D6 PUSH1 0x1 DUP2 JUMP JUMPDEST CALLVALUE DUP1 ISZERO PUSH2 0x926 JUMPI PUSH1 0x0 DUP1 REVERT JUMPDEST POP PUSH2 0x7D1 PUSH2 0x935 CALLDATASIZE PUSH1 0x4 PUSH2 0x4DF9 JUMP JUMPDEST PUSH2 0x1CBD JUMP JUMPDEST CALLVALUE DUP1 ISZERO PUSH2 0x946 JUMPI PUSH1 0x0 DUP1 REVERT JUMPDEST POP PUSH1 0x65 SLOAD PUSH2 0x858 SWAP1 PUSH1 0x1 PUSH1 0x1 PUSH1 0xA0 SHL SUB AND DUP2 JUMP JUMPDEST CALLVALUE DUP1 ISZERO PUSH2 0x966 JUMPI PUSH1 0x0 DUP1 REVERT JUMPDEST POP PUSH2 0x3BA PUSH2 0x975 CALLDATASIZE PUSH1 0x4 PUSH2 0x4E95 JUMP JUMPDEST PUSH2 0x1D6E JUMP JUMPDEST CALLVALUE DUP1 ISZERO PUSH2 0x986 JUMPI PUSH1 0x0 DUP1 REVERT JUMPDEST POP PUSH2 0x3BA PUSH2 0x995 CALLDATASIZE PUSH1 0x4 PUSH2 0x4807 JUMP JUMPDEST PUSH2 0x1F3E JUMP JUMPDEST CALLVALUE DUP1 ISZERO PUSH2 0x9A6 JUMPI PUSH1 0x0 DUP1 REVERT JUMPDEST POP PUSH2 0x9C6 PUSH2 0x9B5 CALLDATASIZE PUSH1 0x4 PUSH2 0x48A7 JUMP JUMPDEST PUSH4 0xBC197C81 PUSH1 0xE0 SHL SWAP6 SWAP5 POP POP POP POP POP JUMP JUMPDEST PUSH1 0x40 MLOAD PUSH1 0x1 PUSH1 0x1 PUSH1 0xE0 SHL SUB NOT SWAP1 SWAP2 AND DUP2 MSTORE PUSH1 0x20 ADD PUSH2 0x3E6 JUMP JUMPDEST CALLVALUE DUP1 ISZERO PUSH2 0x9EB JUMPI PUSH1 0x0 DUP1 REVERT JUMPDEST POP PUSH2 0x3DC PUSH2 0x9FA CALLDATASIZE PUSH1 0x4 PUSH2 0x46B5 JUMP JUMPDEST PUSH1 0x0 SWAP1 DUP2 MSTORE PUSH2 0x12D PUSH1 0x20 MSTORE PUSH1 0x40 SWAP1 KECCAK256 SLOAD SWAP1 JUMP JUMPDEST CALLVALUE DUP1 ISZERO PUSH2 0xA19 JUMPI PUSH1 0x0 DUP1 REVERT JUMPDEST POP PUSH2 0x3DC PUSH2 0x2710 DUP2 JUMP JUMPDEST CALLVALUE DUP1 ISZERO PUSH2 0xA2F JUMPI PUSH1 0x0 DUP1 REVERT JUMPDEST POP PUSH2 0x3BA PUSH2 0xA3E CALLDATASIZE PUSH1 0x4 PUSH2 0x4EF4 JUMP JUMPDEST PUSH2 0x1FDC JUMP JUMPDEST CALLVALUE DUP1 ISZERO PUSH2 0xA4F JUMPI PUSH1 0x0 DUP1 REVERT JUMPDEST POP PUSH2 0x3BA PUSH2 0xA5E CALLDATASIZE PUSH1 0x4 PUSH2 0x4807 JUMP JUMPDEST PUSH2 0x2096 JUMP JUMPDEST PUSH2 0x3BA PUSH2 0xA71 CALLDATASIZE PUSH1 0x4 PUSH2 0x4509 JUMP JUMPDEST PUSH2 0x2139 JUMP JUMPDEST CALLVALUE DUP1 ISZERO PUSH2 0xA82 JUMPI PUSH1 0x0 DUP1 REVERT JUMPDEST POP PUSH2 0x3BA PUSH2 0xA91 CALLDATASIZE PUSH1 0x4 PUSH2 0x4F62 JUMP JUMPDEST PUSH2 0x234F JUMP JUMPDEST CALLVALUE DUP1 ISZERO PUSH2 0xAA2 JUMPI PUSH1 0x0 DUP1 REVERT JUMPDEST POP PUSH2 0x3BA PUSH2 0xAB1 CALLDATASIZE PUSH1 0x4 PUSH2 0x5011 JUMP JUMPDEST PUSH2 0x2402 JUMP JUMPDEST CALLVALUE DUP1 ISZERO PUSH2 0xAC2 JUMPI PUSH1 0x0 DUP1 REVERT JUMPDEST POP PUSH2 0x3BA PUSH2 0xAD1 CALLDATASIZE PUSH1 0x4 PUSH2 0x504D JUMP JUMPDEST PUSH2 0x24F5 JUMP JUMPDEST CALLVALUE DUP1 ISZERO PUSH2 0xAE2 JUMPI PUSH1 0x0 DUP1 REVERT JUMPDEST POP PUSH2 0x40F PUSH2 0xAF1 CALLDATASIZE PUSH1 0x4 PUSH2 0x5089 JUMP JUMPDEST PUSH1 0x1 PUSH1 0x1 PUSH1 0xA0 SHL SUB SWAP2 DUP3 AND PUSH1 0x0 SWAP1 DUP2 MSTORE PUSH1 0xFC PUSH1 0x20 SWAP1 DUP2 MSTORE PUSH1 0x40 DUP1 DUP4 KECCAK256 SWAP4 SWAP1 SWAP5 AND DUP3 MSTORE SWAP2 SWAP1 SWAP2 MSTORE KECCAK256 SLOAD PUSH1 0xFF AND SWAP1 JUMP JUMPDEST CALLVALUE DUP1 ISZERO PUSH2 0xB2B JUMPI PUSH1 0x0 DUP1 REVERT JUMPDEST POP PUSH2 0x3BA PUSH2 0xB3A CALLDATASIZE PUSH1 0x4 PUSH2 0x50C2 JUMP JUMPDEST PUSH2 0x254A JUMP JUMPDEST CALLVALUE DUP1 ISZERO PUSH2 0xB4B JUMPI PUSH1 0x0 DUP1 REVERT JUMPDEST POP PUSH2 0x3BA PUSH2 0xB5A CALLDATASIZE PUSH1 0x4 PUSH2 0x4954 JUMP JUMPDEST PUSH2 0x25D5 JUMP JUMPDEST CALLVALUE DUP1 ISZERO PUSH2 0xB6B JUMPI PUSH1 0x0 DUP1 REVERT JUMPDEST POP PUSH2 0x15F SLOAD PUSH2 0x40F SWAP1 PUSH1 0xFF AND DUP2 JUMP JUMPDEST CALLVALUE DUP1 ISZERO PUSH2 0xB86 JUMPI PUSH1 0x0 DUP1 REVERT JUMPDEST POP PUSH2 0x9C6 PUSH2 0xB95 CALLDATASIZE PUSH1 0x4 PUSH2 0x50DD JUMP JUMPDEST PUSH4 0xF23A6E61 PUSH1 0xE0 SHL SWAP6 SWAP5 POP POP POP POP POP JUMP JUMPDEST CALLVALUE DUP1 ISZERO PUSH2 0xBB2 JUMPI PUSH1 0x0 DUP1 REVERT JUMPDEST POP PUSH2 0x3BA PUSH2 0xBC1 CALLDATASIZE PUSH1 0x4 PUSH2 0x50DD JUMP JUMPDEST PUSH2 0x2670 JUMP JUMPDEST CALLVALUE DUP1 ISZERO PUSH2 0xBD2 JUMPI PUSH1 0x0 DUP1 REVERT JUMPDEST POP PUSH2 0x3BA PUSH2 0xBE1 CALLDATASIZE PUSH1 0x4 PUSH2 0x4807 JUMP JUMPDEST PUSH2 0x2709 JUMP JUMPDEST CALLVALUE DUP1 ISZERO PUSH2 0xBF2 JUMPI PUSH1 0x0 DUP1 REVERT JUMPDEST POP PUSH2 0x434 PUSH2 0xC01 CALLDATASIZE PUSH1 0x4 PUSH2 0x5139 JUMP JUMPDEST PUSH2 0x27C0 JUMP JUMPDEST CALLVALUE DUP1 ISZERO PUSH2 0xC12 JUMPI PUSH1 0x0 DUP1 REVERT JUMPDEST POP PUSH2 0x1C5 SLOAD PUSH1 0x1 PUSH1 0x1 PUSH1 0xA0 SHL SUB AND PUSH2 0x858 JUMP JUMPDEST PUSH1 0x65 SLOAD PUSH1 0x1 PUSH1 0x1 PUSH1 0xA0 SHL SUB AND PUSH2 0xC39 PUSH2 0x2853 JUMP JUMPDEST PUSH1 0x1 PUSH1 0x1 PUSH1 0xA0 SHL SUB AND EQ PUSH2 0xC94 JUMPI PUSH1 0x40 MLOAD PUSH3 0x461BCD PUSH1 0xE5 SHL DUP2 MSTORE PUSH1 0x20 PUSH1 0x4 DUP3 ADD MSTORE PUSH1 0x1E PUSH1 0x24 DUP3 ADD MSTORE PUSH32 0x4C7A4170703A20696E76616C696420656E64706F696E742063616C6C65720000 PUSH1 0x44 DUP3 ADD MSTORE PUSH1 0x64 ADD JUMPDEST PUSH1 0x40 MLOAD DUP1 SWAP2 SUB SWAP1 REVERT JUMPDEST PUSH2 0xFFFF DUP7 AND PUSH1 0x0 SWAP1 DUP2 MSTORE PUSH1 0x66 PUSH1 0x20 MSTORE PUSH1 0x40 DUP2 KECCAK256 DUP1 SLOAD PUSH2 0xCB2 SWAP1 PUSH2 0x5186 JUMP JUMPDEST DUP1 PUSH1 0x1F ADD PUSH1 0x20 DUP1 SWAP2 DIV MUL PUSH1 0x20 ADD PUSH1 0x40 MLOAD SWAP1 DUP2 ADD PUSH1 0x40 MSTORE DUP1 SWAP3 SWAP2 SWAP1 DUP2 DUP2 MSTORE PUSH1 0x20 ADD DUP3 DUP1 SLOAD PUSH2 0xCDE SWAP1 PUSH2 0x5186 JUMP JUMPDEST DUP1 ISZERO PUSH2 0xD2B JUMPI DUP1 PUSH1 0x1F LT PUSH2 0xD00 JUMPI PUSH2 0x100 DUP1 DUP4 SLOAD DIV MUL DUP4 MSTORE SWAP2 PUSH1 0x20 ADD SWAP2 PUSH2 0xD2B JUMP JUMPDEST DUP3 ADD SWAP2 SWAP1 PUSH1 0x0 MSTORE PUSH1 0x20 PUSH1 0x0 KECCAK256 SWAP1 JUMPDEST DUP2 SLOAD DUP2 MSTORE SWAP1 PUSH1 0x1 ADD SWAP1 PUSH1 0x20 ADD DUP1 DUP4 GT PUSH2 0xD0E JUMPI DUP3 SWAP1 SUB PUSH1 0x1F AND DUP3 ADD SWAP2 JUMPDEST POP POP POP POP POP SWAP1 POP DUP1 MLOAD DUP7 DUP7 SWAP1 POP EQ DUP1 ISZERO PUSH2 0xD46 JUMPI POP PUSH1 0x0 DUP2 MLOAD GT JUMPDEST DUP1 ISZERO PUSH2 0xD6E JUMPI POP DUP1 MLOAD PUSH1 0x20 DUP3 ADD KECCAK256 PUSH1 0x40 MLOAD PUSH2 0xD64 SWAP1 DUP9 SWAP1 DUP9 SWAP1 PUSH2 0x51C0 JUMP JUMPDEST PUSH1 0x40 MLOAD DUP1 SWAP2 SUB SWAP1 KECCAK256 EQ JUMPDEST PUSH2 0xDC9 JUMPI PUSH1 0x40 MLOAD PUSH3 0x461BCD PUSH1 0xE5 SHL DUP2 MSTORE PUSH1 0x20 PUSH1 0x4 DUP3 ADD MSTORE PUSH1 0x26 PUSH1 0x24 DUP3 ADD MSTORE PUSH32 0x4C7A4170703A20696E76616C696420736F757263652073656E64696E6720636F PUSH1 0x44 DUP3 ADD MSTORE PUSH6 0x1B9D1C9858DD PUSH1 0xD2 SHL PUSH1 0x64 DUP3 ADD MSTORE PUSH1 0x84 ADD PUSH2 0xC8B JUMP JUMPDEST PUSH2 0xE3F DUP8 DUP8 DUP8 DUP1 DUP1 PUSH1 0x1F ADD PUSH1 0x20 DUP1 SWAP2 DIV MUL PUSH1 0x20 ADD PUSH1 0x40 MLOAD SWAP1 DUP2 ADD PUSH1 0x40 MSTORE DUP1 SWAP4 SWAP3 SWAP2 SWAP1 DUP2 DUP2 MSTORE PUSH1 0x20 ADD DUP4 DUP4 DUP1 DUP3 DUP5 CALLDATACOPY PUSH1 0x0 SWAP3 ADD SWAP2 SWAP1 SWAP2 MSTORE POP POP PUSH1 0x40 DUP1 MLOAD PUSH1 0x20 PUSH1 0x1F DUP11 ADD DUP2 SWAP1 DIV DUP2 MUL DUP3 ADD DUP2 ADD SWAP1 SWAP3 MSTORE DUP9 DUP2 MSTORE DUP11 SWAP4 POP SWAP2 POP DUP9 SWAP1 DUP9 SWAP1 DUP2 SWAP1 DUP5 ADD DUP4 DUP3 DUP1 DUP3 DUP5 CALLDATACOPY PUSH1 0x0 SWAP3 ADD SWAP2 SWAP1 SWAP2 MSTORE POP PUSH2 0x288C SWAP3 POP POP POP JUMP JUMPDEST POP POP POP POP POP POP POP JUMP JUMPDEST PUSH1 0x0 PUSH1 0x1 PUSH1 0x1 PUSH1 0xA0 SHL SUB DUP4 AND PUSH2 0xEB4 JUMPI PUSH1 0x40 MLOAD PUSH3 0x461BCD PUSH1 0xE5 SHL DUP2 MSTORE PUSH1 0x20 PUSH1 0x4 DUP3 ADD MSTORE PUSH1 0x2B PUSH1 0x24 DUP3 ADD MSTORE PUSH32 0x455243313135353A2062616C616E636520717565727920666F7220746865207A PUSH1 0x44 DUP3 ADD MSTORE PUSH11 0x65726F2061646472657373 PUSH1 0xA8 SHL PUSH1 0x64 DUP3 ADD MSTORE PUSH1 0x84 ADD PUSH2 0xC8B JUMP JUMPDEST POP PUSH1 0x0 DUP2 DUP2 MSTORE PUSH1 0xFB PUSH1 0x20 SWAP1 DUP2 MSTORE PUSH1 0x40 DUP1 DUP4 KECCAK256 PUSH1 0x1 PUSH1 0x1 PUSH1 0xA0 SHL SUB DUP7 AND DUP5 MSTORE SWAP1 SWAP2 MSTORE SWAP1 KECCAK256 SLOAD JUMPDEST SWAP3 SWAP2 POP POP JUMP JUMPDEST PUSH1 0x0 PUSH1 0x1 PUSH1 0x1 PUSH1 0xE0 SHL SUB NOT DUP3 AND ISZERO DUP1 PUSH2 0xED9 JUMPI POP PUSH2 0xED9 DUP3 PUSH2 0x2905 JUMP JUMPDEST PUSH1 0x60 PUSH2 0x1C3 DUP1 SLOAD PUSH2 0xF0C SWAP1 PUSH2 0x5186 JUMP JUMPDEST DUP1 PUSH1 0x1F ADD PUSH1 0x20 DUP1 SWAP2 DIV MUL PUSH1 0x20 ADD PUSH1 0x40 MLOAD SWAP1 DUP2 ADD PUSH1 0x40 MSTORE DUP1 SWAP3 SWAP2 SWAP1 DUP2 DUP2 MSTORE PUSH1 0x20 ADD DUP3 DUP1 SLOAD PUSH2 0xF38 SWAP1 PUSH2 0x5186 JUMP JUMPDEST DUP1 ISZERO PUSH2 0xF85 JUMPI DUP1 PUSH1 0x1F LT PUSH2 0xF5A JUMPI PUSH2 0x100 DUP1 DUP4 SLOAD DIV MUL DUP4 MSTORE SWAP2 PUSH1 0x20 ADD SWAP2 PUSH2 0xF85 JUMP JUMPDEST DUP3 ADD SWAP2 SWAP1 PUSH1 0x0 MSTORE PUSH1 0x20 PUSH1 0x0 KECCAK256 SWAP1 JUMPDEST DUP2 SLOAD DUP2 MSTORE SWAP1 PUSH1 0x1 ADD SWAP1 PUSH1 0x20 ADD DUP1 DUP4 GT PUSH2 0xF68 JUMPI DUP3 SWAP1 SUB PUSH1 0x1F AND DUP3 ADD SWAP2 JUMPDEST POP POP POP POP POP SWAP1 POP SWAP1 JUMP JUMPDEST PUSH2 0xF97 PUSH2 0x2853 JUMP JUMPDEST PUSH1 0x1 PUSH1 0x1 PUSH1 0xA0 SHL SUB AND PUSH2 0xFB2 PUSH1 0x33 SLOAD PUSH1 0x1 PUSH1 0x1 PUSH1 0xA0 SHL SUB AND SWAP1 JUMP JUMPDEST PUSH1 0x1 PUSH1 0x1 PUSH1 0xA0 SHL SUB AND EQ PUSH2 0xFD8 JUMPI PUSH1 0x40 MLOAD PUSH3 0x461BCD PUSH1 0xE5 SHL DUP2 MSTORE PUSH1 0x4 ADD PUSH2 0xC8B SWAP1 PUSH2 0x51D0 JUMP JUMPDEST PUSH1 0x65 SLOAD PUSH1 0x40 MLOAD PUSH4 0x7E0DB17 PUSH1 0xE0 SHL DUP2 MSTORE PUSH2 0xFFFF DUP4 AND PUSH1 0x4 DUP3 ADD MSTORE PUSH1 0x1 PUSH1 0x1 PUSH1 0xA0 SHL SUB SWAP1 SWAP2 AND SWAP1 PUSH4 0x7E0DB17 SWAP1 PUSH1 0x24 ADD JUMPDEST PUSH1 0x0 PUSH1 0x40 MLOAD DUP1 DUP4 SUB DUP2 PUSH1 0x0 DUP8 DUP1 EXTCODESIZE ISZERO DUP1 ISZERO PUSH2 0x1022 JUMPI PUSH1 0x0 DUP1 REVERT JUMPDEST POP GAS CALL ISZERO DUP1 ISZERO PUSH2 0x1036 JUMPI RETURNDATASIZE PUSH1 0x0 DUP1 RETURNDATACOPY RETURNDATASIZE PUSH1 0x0 REVERT JUMPDEST POP POP POP POP POP JUMP JUMPDEST PUSH2 0x1045 PUSH2 0x2853 JUMP JUMPDEST PUSH1 0x1 PUSH1 0x1 PUSH1 0xA0 SHL SUB AND PUSH2 0x1060 PUSH1 0x33 SLOAD PUSH1 0x1 PUSH1 0x1 PUSH1 0xA0 SHL SUB AND SWAP1 JUMP JUMPDEST PUSH1 0x1 PUSH1 0x1 PUSH1 0xA0 SHL SUB AND EQ PUSH2 0x1086 JUMPI PUSH1 0x40 MLOAD PUSH3 0x461BCD PUSH1 0xE5 SHL DUP2 MSTORE PUSH1 0x4 ADD PUSH2 0xC8B SWAP1 PUSH2 0x51D0 JUMP JUMPDEST PUSH2 0xFFFF SWAP1 SWAP2 AND PUSH1 0x0 SWAP1 DUP2 MSTORE PUSH1 0x68 PUSH1 0x20 MSTORE PUSH1 0x40 SWAP1 KECCAK256 SSTORE JUMP JUMPDEST PUSH1 0x60 PUSH1 0xFD DUP1 SLOAD PUSH2 0x10AC SWAP1 PUSH2 0x5186 JUMP JUMPDEST DUP1 PUSH1 0x1F ADD PUSH1 0x20 DUP1 SWAP2 DIV MUL PUSH1 0x20 ADD PUSH1 0x40 MLOAD SWAP1 DUP2 ADD PUSH1 0x40 MSTORE DUP1 SWAP3 SWAP2 SWAP1 DUP2 DUP2 MSTORE PUSH1 0x20 ADD DUP3 DUP1 SLOAD PUSH2 0x10D8 SWAP1 PUSH2 0x5186 JUMP JUMPDEST DUP1 ISZERO PUSH2 0x1125 JUMPI DUP1 PUSH1 0x1F LT PUSH2 0x10FA JUMPI PUSH2 0x100 DUP1 DUP4 SLOAD DIV MUL DUP4 MSTORE SWAP2 PUSH1 0x20 ADD SWAP2 PUSH2 0x1125 JUMP JUMPDEST DUP3 ADD SWAP2 SWAP1 PUSH1 0x0 MSTORE PUSH1 0x20 PUSH1 0x0 KECCAK256 SWAP1 JUMPDEST DUP2 SLOAD DUP2 MSTORE SWAP1 PUSH1 0x1 ADD SWAP1 PUSH1 0x20 ADD DUP1 DUP4 GT PUSH2 0x1108 JUMPI DUP3 SWAP1 SUB PUSH1 0x1F AND DUP3 ADD SWAP2 JUMPDEST POP POP POP POP POP SWAP1 POP SWAP2 SWAP1 POP JUMP JUMPDEST PUSH2 0x1139 PUSH2 0x2853 JUMP JUMPDEST PUSH1 0x1 PUSH1 0x1 PUSH1 0xA0 SHL SUB AND PUSH2 0x1154 PUSH1 0x33 SLOAD PUSH1 0x1 PUSH1 0x1 PUSH1 0xA0 SHL SUB AND SWAP1 JUMP JUMPDEST PUSH1 0x1 PUSH1 0x1 PUSH1 0xA0 SHL SUB AND EQ PUSH2 0x117A JUMPI PUSH1 0x40 MLOAD PUSH3 0x461BCD PUSH1 0xE5 SHL DUP2 MSTORE PUSH1 0x4 ADD PUSH2 0xC8B SWAP1 PUSH2 0x51D0 JUMP JUMPDEST PUSH1 0x65 SLOAD PUSH1 0x40 MLOAD PUSH4 0x10DDB137 PUSH1 0xE0 SHL DUP2 MSTORE PUSH2 0xFFFF DUP4 AND PUSH1 0x4 DUP3 ADD MSTORE PUSH1 0x1 PUSH1 0x1 PUSH1 0xA0 SHL SUB SWAP1 SWAP2 AND SWAP1 PUSH4 0x10DDB137 SWAP1 PUSH1 0x24 ADD PUSH2 0x1008 JUMP JUMPDEST PUSH2 0x11B6 PUSH2 0x2853 JUMP JUMPDEST PUSH1 0x1 PUSH1 0x1 PUSH1 0xA0 SHL SUB AND PUSH2 0x11D1 PUSH1 0x33 SLOAD PUSH1 0x1 PUSH1 0x1 PUSH1 0xA0 SHL SUB AND SWAP1 JUMP JUMPDEST PUSH1 0x1 PUSH1 0x1 PUSH1 0xA0 SHL SUB AND EQ PUSH2 0x11F7 JUMPI PUSH1 0x40 MLOAD PUSH3 0x461BCD PUSH1 0xE5 SHL DUP2 MSTORE PUSH1 0x4 ADD PUSH2 0xC8B SWAP1 PUSH2 0x51D0 JUMP JUMPDEST PUSH1 0x0 JUMPDEST DUP3 MLOAD DUP2 LT ISZERO PUSH2 0x1261 JUMPI DUP2 DUP2 DUP2 MLOAD DUP2 LT PUSH2 0x1215 JUMPI PUSH2 0x1215 PUSH2 0x5205 JUMP JUMPDEST PUSH1 0x20 MUL PUSH1 0x20 ADD ADD MLOAD PUSH2 0x1C8 PUSH1 0x0 DUP6 DUP5 DUP2 MLOAD DUP2 LT PUSH2 0x1234 JUMPI PUSH2 0x1234 PUSH2 0x5205 JUMP JUMPDEST PUSH1 0x20 MUL PUSH1 0x20 ADD ADD MLOAD DUP2 MSTORE PUSH1 0x20 ADD SWAP1 DUP2 MSTORE PUSH1 0x20 ADD PUSH1 0x0 KECCAK256 DUP2 SWAP1 SSTORE POP DUP1 DUP1 PUSH2 0x1259 SWAP1 PUSH2 0x5231 JUMP JUMPDEST SWAP2 POP POP PUSH2 0x11FA JUMP JUMPDEST POP POP POP JUMP JUMPDEST PUSH2 0x126E PUSH2 0x2853 JUMP JUMPDEST PUSH1 0x1 PUSH1 0x1 PUSH1 0xA0 SHL SUB AND DUP6 PUSH1 0x1 PUSH1 0x1 PUSH1 0xA0 SHL SUB AND EQ DUP1 PUSH2 0x1294 JUMPI POP PUSH2 0x1294 DUP6 PUSH2 0xAF1 PUSH2 0x2853 JUMP JUMPDEST PUSH2 0x12FB JUMPI PUSH1 0x40 MLOAD PUSH3 0x461BCD PUSH1 0xE5 SHL DUP2 MSTORE PUSH1 0x20 PUSH1 0x4 DUP3 ADD MSTORE PUSH1 0x32 PUSH1 0x24 DUP3 ADD MSTORE PUSH32 0x455243313135353A207472616E736665722063616C6C6572206973206E6F7420 PUSH1 0x44 DUP3 ADD MSTORE PUSH18 0x1BDDDB995C881B9BDC88185C1C1C9BDD9959 PUSH1 0x72 SHL PUSH1 0x64 DUP3 ADD MSTORE PUSH1 0x84 ADD PUSH2 0xC8B JUMP JUMPDEST PUSH2 0x1036 DUP6 DUP6 DUP6 DUP6 DUP6 PUSH2 0x292A JUMP JUMPDEST PUSH2 0xFFFF DUP4 AND PUSH1 0x0 SWAP1 DUP2 MSTORE PUSH1 0x66 PUSH1 0x20 MSTORE PUSH1 0x40 DUP2 KECCAK256 DUP1 SLOAD DUP3 SWAP2 SWAP1 PUSH2 0x1329 SWAP1 PUSH2 0x5186 JUMP JUMPDEST DUP1 PUSH1 0x1F ADD PUSH1 0x20 DUP1 SWAP2 DIV MUL PUSH1 0x20 ADD PUSH1 0x40 MLOAD SWAP1 DUP2 ADD PUSH1 0x40 MSTORE DUP1 SWAP3 SWAP2 SWAP1 DUP2 DUP2 MSTORE PUSH1 0x20 ADD DUP3 DUP1 SLOAD PUSH2 0x1355 SWAP1 PUSH2 0x5186 JUMP JUMPDEST DUP1 ISZERO PUSH2 0x13A2 JUMPI DUP1 PUSH1 0x1F LT PUSH2 0x1377 JUMPI PUSH2 0x100 DUP1 DUP4 SLOAD DIV MUL DUP4 MSTORE SWAP2 PUSH1 0x20 ADD SWAP2 PUSH2 0x13A2 JUMP JUMPDEST DUP3 ADD SWAP2 SWAP1 PUSH1 0x0 MSTORE PUSH1 0x20 PUSH1 0x0 KECCAK256 SWAP1 JUMPDEST DUP2 SLOAD DUP2 MSTORE SWAP1 PUSH1 0x1 ADD SWAP1 PUSH1 0x20 ADD DUP1 DUP4 GT PUSH2 0x1385 JUMPI DUP3 SWAP1 SUB PUSH1 0x1F AND DUP3 ADD SWAP2 JUMPDEST POP POP POP POP POP SWAP1 POP DUP4 DUP4 PUSH1 0x40 MLOAD PUSH2 0x13B9 SWAP3 SWAP2 SWAP1 PUSH2 0x51C0 JUMP JUMPDEST PUSH1 0x40 MLOAD DUP1 SWAP2 SUB SWAP1 KECCAK256 DUP2 DUP1 MLOAD SWAP1 PUSH1 0x20 ADD KECCAK256 EQ SWAP2 POP POP SWAP4 SWAP3 POP POP POP JUMP JUMPDEST PUSH2 0x13DC PUSH2 0x2853 JUMP JUMPDEST PUSH1 0x1 PUSH1 0x1 PUSH1 0xA0 SHL SUB AND PUSH2 0x13F7 PUSH1 0x33 SLOAD PUSH1 0x1 PUSH1 0x1 PUSH1 0xA0 SHL SUB AND SWAP1 JUMP JUMPDEST PUSH1 0x1 PUSH1 0x1 PUSH1 0xA0 SHL SUB AND EQ PUSH2 0x141D JUMPI PUSH1 0x40 MLOAD PUSH3 0x461BCD PUSH1 0xE5 SHL DUP2 MSTORE PUSH1 0x4 ADD PUSH2 0xC8B SWAP1 PUSH2 0x51D0 JUMP JUMPDEST PUSH1 0x65 SLOAD PUSH1 0x40 MLOAD PUSH4 0x42D65A8D PUSH1 0xE0 SHL DUP2 MSTORE PUSH1 0x1 PUSH1 0x1 PUSH1 0xA0 SHL SUB SWAP1 SWAP2 AND SWAP1 PUSH4 0x42D65A8D SWAP1 PUSH2 0x1451 SWAP1 DUP7 SWAP1 DUP7 SWAP1 DUP7 SWAP1 PUSH1 0x4 ADD PUSH2 0x5273 JUMP JUMPDEST PUSH1 0x0 PUSH1 0x40 MLOAD DUP1 DUP4 SUB DUP2 PUSH1 0x0 DUP8 DUP1 EXTCODESIZE ISZERO DUP1 ISZERO PUSH2 0x146B JUMPI PUSH1 0x0 DUP1 REVERT JUMPDEST POP GAS CALL ISZERO DUP1 ISZERO PUSH2 0xE3F JUMPI RETURNDATASIZE PUSH1 0x0 DUP1 RETURNDATACOPY RETURNDATASIZE PUSH1 0x0 REVERT JUMPDEST PUSH1 0x0 PUSH2 0x1489 PUSH2 0x2853 JUMP JUMPDEST PUSH1 0x40 MLOAD PUSH1 0x1 PUSH1 0x1 PUSH1 0x60 SHL SUB NOT PUSH1 0x60 DUP4 SWAP1 SHL AND PUSH1 0x20 DUP3 ADD MSTORE PUSH1 0x34 DUP2 ADD DUP8 SWAP1 MSTORE PUSH1 0x54 DUP2 ADD DUP7 SWAP1 MSTORE PUSH1 0x74 DUP2 ADD DUP6 SWAP1 MSTORE SWAP1 SWAP2 POP PUSH1 0x0 SWAP1 PUSH1 0x94 ADD PUSH1 0x40 MLOAD PUSH1 0x20 DUP2 DUP4 SUB SUB DUP2 MSTORE SWAP1 PUSH1 0x40 MSTORE DUP1 MLOAD SWAP1 PUSH1 0x20 ADD KECCAK256 SWAP1 POP PUSH1 0x0 PUSH2 0x14E1 DUP3 PUSH2 0x2ADA JUMP JUMPDEST SWAP1 POP PUSH1 0x0 PUSH2 0x14EF DUP3 DUP7 PUSH2 0x2B2D JUMP JUMPDEST SWAP1 POP PUSH2 0x1514 DUP2 PUSH1 0x1 PUSH1 0x1 PUSH1 0xA0 SHL SUB AND PUSH1 0x0 SWAP1 DUP2 MSTORE PUSH2 0x1C6 PUSH1 0x20 MSTORE PUSH1 0x40 SWAP1 KECCAK256 SLOAD PUSH1 0xFF AND SWAP1 JUMP JUMPDEST DUP1 ISZERO PUSH2 0x153E JUMPI POP DUP7 PUSH2 0x153C DUP6 PUSH1 0x1 PUSH1 0x1 PUSH1 0xA0 SHL SUB AND PUSH1 0x0 SWAP1 DUP2 MSTORE PUSH2 0x1C7 PUSH1 0x20 MSTORE PUSH1 0x40 SWAP1 KECCAK256 SLOAD SWAP1 JUMP JUMPDEST EQ JUMPDEST PUSH2 0x158A JUMPI PUSH1 0x40 MLOAD PUSH3 0x461BCD PUSH1 0xE5 SHL DUP2 MSTORE PUSH1 0x20 PUSH1 0x4 DUP3 ADD DUP2 SWAP1 MSTORE PUSH1 0x24 DUP3 ADD MSTORE PUSH32 0x5369676E617475726520646F6573206E6F74206D617463682072657175657374 PUSH1 0x44 DUP3 ADD MSTORE PUSH1 0x64 ADD PUSH2 0xC8B JUMP JUMPDEST PUSH1 0x0 DUP9 DUP2 MSTORE PUSH2 0x12D PUSH1 0x20 MSTORE PUSH1 0x40 DUP2 KECCAK256 SLOAD PUSH2 0x15A5 SWAP1 DUP9 SWAP1 PUSH2 0x5291 JUMP JUMPDEST PUSH1 0x0 DUP11 DUP2 MSTORE PUSH2 0x1C8 PUSH1 0x20 MSTORE PUSH1 0x40 SWAP1 KECCAK256 SLOAD SWAP1 SWAP2 POP DUP2 GT ISZERO DUP1 PUSH2 0x15D8 JUMPI PUSH1 0x40 MLOAD PUSH3 0x461BCD PUSH1 0xE5 SHL DUP2 MSTORE PUSH1 0x4 ADD PUSH2 0xC8B SWAP1 PUSH2 0x52A4 JUMP JUMPDEST PUSH2 0x15F3 DUP7 DUP12 DUP11 PUSH1 0x40 MLOAD DUP1 PUSH1 0x20 ADD PUSH1 0x40 MSTORE DUP1 PUSH1 0x0 DUP2 MSTORE POP PUSH2 0x2B49 JUMP JUMPDEST PUSH1 0x1 PUSH1 0x1 PUSH1 0xA0 SHL SUB DUP7 AND PUSH1 0x0 SWAP1 DUP2 MSTORE PUSH2 0x1C7 PUSH1 0x20 MSTORE PUSH1 0x40 DUP2 KECCAK256 DUP1 SLOAD SWAP2 PUSH2 0x1618 DUP4 PUSH2 0x5231 JUMP JUMPDEST SWAP2 SWAP1 POP SSTORE POP DUP6 PUSH1 0x1 PUSH1 0x1 PUSH1 0xA0 SHL SUB AND PUSH32 0xA53BAEA067B124FA4F5FF90ACFBED6DF1A24499F6A0DE581D40E8AD128B3D167 DUP12 DUP12 DUP12 DUP12 PUSH1 0x40 MLOAD PUSH2 0x165C SWAP5 SWAP4 SWAP3 SWAP2 SWAP1 PUSH2 0x52E8 JUMP JUMPDEST PUSH1 0x40 MLOAD DUP1 SWAP2 SUB SWAP1 LOG2 POP POP POP POP POP POP POP POP POP POP JUMP JUMPDEST PUSH2 0x1680 DUP9 DUP9 DUP9 DUP9 DUP9 DUP9 DUP9 DUP9 PUSH2 0x2C36 JUMP JUMPDEST POP POP POP POP POP POP POP POP JUMP JUMPDEST PUSH2 0x1680 DUP9 DUP9 DUP9 PUSH2 0x1699 DUP10 PUSH2 0x2E1F JUMP JUMPDEST PUSH2 0x16A2 DUP10 PUSH2 0x2E1F JUMP JUMPDEST DUP9 DUP9 DUP9 PUSH2 0x2C36 JUMP JUMPDEST PUSH1 0x60 DUP2 MLOAD DUP4 MLOAD EQ PUSH2 0x170F JUMPI PUSH1 0x40 MLOAD PUSH3 0x461BCD PUSH1 0xE5 SHL DUP2 MSTORE PUSH1 0x20 PUSH1 0x4 DUP3 ADD MSTORE PUSH1 0x29 PUSH1 0x24 DUP3 ADD MSTORE PUSH32 0x455243313135353A206163636F756E747320616E6420696473206C656E677468 PUSH1 0x44 DUP3 ADD MSTORE PUSH9 0x40DAD2E6DAC2E8C6D PUSH1 0xBB SHL PUSH1 0x64 DUP3 ADD MSTORE PUSH1 0x84 ADD PUSH2 0xC8B JUMP JUMPDEST PUSH1 0x0 DUP4 MLOAD PUSH1 0x1 PUSH1 0x1 PUSH1 0x40 SHL SUB DUP2 GT ISZERO PUSH2 0x172A JUMPI PUSH2 0x172A PUSH2 0x46CE JUMP JUMPDEST PUSH1 0x40 MLOAD SWAP1 DUP1 DUP3 MSTORE DUP1 PUSH1 0x20 MUL PUSH1 0x20 ADD DUP3 ADD PUSH1 0x40 MSTORE DUP1 ISZERO PUSH2 0x1753 JUMPI DUP2 PUSH1 0x20 ADD PUSH1 0x20 DUP3 MUL DUP1 CALLDATASIZE DUP4 CALLDATACOPY ADD SWAP1 POP JUMPDEST POP SWAP1 POP PUSH1 0x0 JUMPDEST DUP5 MLOAD DUP2 LT ISZERO PUSH2 0x17CB JUMPI PUSH2 0x179E DUP6 DUP3 DUP2 MLOAD DUP2 LT PUSH2 0x1777 JUMPI PUSH2 0x1777 PUSH2 0x5205 JUMP JUMPDEST PUSH1 0x20 MUL PUSH1 0x20 ADD ADD MLOAD DUP6 DUP4 DUP2 MLOAD DUP2 LT PUSH2 0x1791 JUMPI PUSH2 0x1791 PUSH2 0x5205 JUMP JUMPDEST PUSH1 0x20 MUL PUSH1 0x20 ADD ADD MLOAD PUSH2 0xE48 JUMP JUMPDEST DUP3 DUP3 DUP2 MLOAD DUP2 LT PUSH2 0x17B0 JUMPI PUSH2 0x17B0 PUSH2 0x5205 JUMP JUMPDEST PUSH1 0x20 SWAP1 DUP2 MUL SWAP2 SWAP1 SWAP2 ADD ADD MSTORE PUSH2 0x17C4 DUP2 PUSH2 0x5231 JUMP JUMPDEST SWAP1 POP PUSH2 0x1759 JUMP JUMPDEST POP SWAP4 SWAP3 POP POP POP JUMP JUMPDEST ADDRESS PUSH2 0x17DC PUSH2 0x2853 JUMP JUMPDEST PUSH1 0x1 PUSH1 0x1 PUSH1 0xA0 SHL SUB AND EQ PUSH2 0x1841 JUMPI PUSH1 0x40 MLOAD PUSH3 0x461BCD PUSH1 0xE5 SHL DUP2 MSTORE PUSH1 0x20 PUSH1 0x4 DUP3 ADD MSTORE PUSH1 0x26 PUSH1 0x24 DUP3 ADD MSTORE PUSH32 0x4E6F6E626C6F636B696E674C7A4170703A2063616C6C6572206D757374206265 PUSH1 0x44 DUP3 ADD MSTORE PUSH6 0x204C7A41707 PUSH1 0xD4 SHL PUSH1 0x64 DUP3 ADD MSTORE PUSH1 0x84 ADD PUSH2 0xC8B JUMP JUMPDEST PUSH2 0x18B7 DUP7 DUP7 DUP7 DUP1 DUP1 PUSH1 0x1F ADD PUSH1 0x20 DUP1 SWAP2 DIV MUL PUSH1 0x20 ADD PUSH1 0x40 MLOAD SWAP1 DUP2 ADD PUSH1 0x40 MSTORE DUP1 SWAP4 SWAP3 SWAP2 SWAP1 DUP2 DUP2 MSTORE PUSH1 0x20 ADD DUP4 DUP4 DUP1 DUP3 DUP5 CALLDATACOPY PUSH1 0x0 SWAP3 ADD SWAP2 SWAP1 SWAP2 MSTORE POP POP PUSH1 0x40 DUP1 MLOAD PUSH1 0x20 PUSH1 0x1F DUP10 ADD DUP2 SWAP1 DIV DUP2 MUL DUP3 ADD DUP2 ADD SWAP1 SWAP3 MSTORE DUP8 DUP2 MSTORE DUP10 SWAP4 POP SWAP2 POP DUP8 SWAP1 DUP8 SWAP1 DUP2 SWAP1 DUP5 ADD DUP4 DUP3 DUP1 DUP3 DUP5 CALLDATACOPY PUSH1 0x0 SWAP3 ADD SWAP2 SWAP1 SWAP2 MSTORE POP PUSH2 0x2E6A SWAP3 POP POP POP JUMP JUMPDEST POP POP POP POP POP POP JUMP JUMPDEST PUSH2 0x18C7 PUSH2 0x2853 JUMP JUMPDEST PUSH1 0x1 PUSH1 0x1 PUSH1 0xA0 SHL SUB AND PUSH2 0x18E2 PUSH1 0x33 SLOAD PUSH1 0x1 PUSH1 0x1 PUSH1 0xA0 SHL SUB AND SWAP1 JUMP JUMPDEST PUSH1 0x1 PUSH1 0x1 PUSH1 0xA0 SHL SUB AND EQ PUSH2 0x1908 JUMPI PUSH1 0x40 MLOAD PUSH3 0x461BCD PUSH1 0xE5 SHL DUP2 MSTORE PUSH1 0x4 ADD PUSH2 0xC8B SWAP1 PUSH2 0x51D0 JUMP JUMPDEST PUSH1 0x1 PUSH1 0x1 PUSH1 0xA0 SHL SUB AND PUSH1 0x0 SWAP1 DUP2 MSTORE PUSH2 0x1C6 PUSH1 0x20 MSTORE PUSH1 0x40 SWAP1 KECCAK256 DUP1 SLOAD PUSH1 0xFF NOT AND PUSH1 0x1 OR SWAP1 SSTORE JUMP JUMPDEST PUSH2 0x1935 PUSH2 0x2853 JUMP JUMPDEST PUSH1 0x1 PUSH1 0x1 PUSH1 0xA0 SHL SUB AND PUSH2 0x1950 PUSH1 0x33 SLOAD PUSH1 0x1 PUSH1 0x1 PUSH1 0xA0 SHL SUB AND SWAP1 JUMP JUMPDEST PUSH1 0x1 PUSH1 0x1 PUSH1 0xA0 SHL SUB AND EQ PUSH2 0x1976 JUMPI PUSH1 0x40 MLOAD PUSH3 0x461BCD PUSH1 0xE5 SHL DUP2 MSTORE PUSH1 0x4 ADD PUSH2 0xC8B SWAP1 PUSH2 0x51D0 JUMP JUMPDEST PUSH2 0x1980 PUSH1 0x0 PUSH2 0x2FB7 JUMP JUMPDEST JUMP JUMPDEST PUSH1 0x66 PUSH1 0x20 MSTORE PUSH1 0x0 SWAP1 DUP2 MSTORE PUSH1 0x40 SWAP1 KECCAK256 DUP1 SLOAD PUSH2 0x199B SWAP1 PUSH2 0x5186 JUMP JUMPDEST DUP1 PUSH1 0x1F ADD PUSH1 0x20 DUP1 SWAP2 DIV MUL PUSH1 0x20 ADD PUSH1 0x40 MLOAD SWAP1 DUP2 ADD PUSH1 0x40 MSTORE DUP1 SWAP3 SWAP2 SWAP1 DUP2 DUP2 MSTORE PUSH1 0x20 ADD DUP3 DUP1 SLOAD PUSH2 0x19C7 SWAP1 PUSH2 0x5186 JUMP JUMPDEST DUP1 ISZERO PUSH2 0x1A14 JUMPI DUP1 PUSH1 0x1F LT PUSH2 0x19E9 JUMPI PUSH2 0x100 DUP1 DUP4 SLOAD DIV MUL DUP4 MSTORE SWAP2 PUSH1 0x20 ADD SWAP2 PUSH2 0x1A14 JUMP JUMPDEST DUP3 ADD SWAP2 SWAP1 PUSH1 0x0 MSTORE PUSH1 0x20 PUSH1 0x0 KECCAK256 SWAP1 JUMPDEST DUP2 SLOAD DUP2 MSTORE SWAP1 PUSH1 0x1 ADD SWAP1 PUSH1 0x20 ADD DUP1 DUP4 GT PUSH2 0x19F7 JUMPI DUP3 SWAP1 SUB PUSH1 0x1F AND DUP3 ADD SWAP2 JUMPDEST POP POP POP POP POP DUP2 JUMP JUMPDEST PUSH1 0x0 DUP1 PUSH2 0x1A3D DUP9 DUP9 PUSH2 0x1A2D DUP10 PUSH2 0x2E1F JUMP JUMPDEST PUSH2 0x1A36 DUP10 PUSH2 0x2E1F JUMP JUMPDEST DUP9 DUP9 PUSH2 0x1CBD JUMP JUMPDEST SWAP2 POP SWAP2 POP SWAP7 POP SWAP7 SWAP5 POP POP POP POP POP JUMP JUMPDEST PUSH2 0x1A54 PUSH2 0x2853 JUMP JUMPDEST PUSH1 0x1 PUSH1 0x1 PUSH1 0xA0 SHL SUB AND PUSH2 0x1A6F PUSH1 0x33 SLOAD PUSH1 0x1 PUSH1 0x1 PUSH1 0xA0 SHL SUB AND SWAP1 JUMP JUMPDEST PUSH1 0x1 PUSH1 0x1 PUSH1 0xA0 SHL SUB AND EQ PUSH2 0x1A95 JUMPI PUSH1 0x40 MLOAD PUSH3 0x461BCD PUSH1 0xE5 SHL DUP2 MSTORE PUSH1 0x4 ADD PUSH2 0xC8B SWAP1 PUSH2 0x51D0 JUMP JUMPDEST PUSH1 0x1 PUSH1 0x1 PUSH1 0xA0 SHL SUB AND PUSH1 0x0 SWAP1 DUP2 MSTORE PUSH2 0x1C6 PUSH1 0x20 MSTORE PUSH1 0x40 SWAP1 KECCAK256 DUP1 SLOAD PUSH1 0xFF NOT AND SWAP1 SSTORE JUMP JUMPDEST PUSH1 0x60 PUSH2 0x1C4 DUP1 SLOAD PUSH2 0xF0C SWAP1 PUSH2 0x5186 JUMP JUMPDEST PUSH2 0xFFFF DUP2 AND PUSH1 0x0 SWAP1 DUP2 MSTORE PUSH1 0x66 PUSH1 0x20 MSTORE PUSH1 0x40 DUP2 KECCAK256 DUP1 SLOAD PUSH1 0x60 SWAP3 SWAP2 SWAP1 PUSH2 0x1AEA SWAP1 PUSH2 0x5186 JUMP JUMPDEST DUP1 PUSH1 0x1F ADD PUSH1 0x20 DUP1 SWAP2 DIV MUL PUSH1 0x20 ADD PUSH1 0x40 MLOAD SWAP1 DUP2 ADD PUSH1 0x40 MSTORE DUP1 SWAP3 SWAP2 SWAP1 DUP2 DUP2 MSTORE PUSH1 0x20 ADD DUP3 DUP1 SLOAD PUSH2 0x1B16 SWAP1 PUSH2 0x5186 JUMP JUMPDEST DUP1 ISZERO PUSH2 0x1B63 JUMPI DUP1 PUSH1 0x1F LT PUSH2 0x1B38 JUMPI PUSH2 0x100 DUP1 DUP4 SLOAD DIV MUL DUP4 MSTORE SWAP2 PUSH1 0x20 ADD SWAP2 PUSH2 0x1B63 JUMP JUMPDEST DUP3 ADD SWAP2 SWAP1 PUSH1 0x0 MSTORE PUSH1 0x20 PUSH1 0x0 KECCAK256 SWAP1 JUMPDEST DUP2 SLOAD DUP2 MSTORE SWAP1 PUSH1 0x1 ADD SWAP1 PUSH1 0x20 ADD DUP1 DUP4 GT PUSH2 0x1B46 JUMPI DUP3 SWAP1 SUB PUSH1 0x1F AND DUP3 ADD SWAP2 JUMPDEST POP POP POP POP POP SWAP1 POP DUP1 MLOAD PUSH1 0x0 SUB PUSH2 0x1BBB JUMPI PUSH1 0x40 MLOAD PUSH3 0x461BCD PUSH1 0xE5 SHL DUP2 MSTORE PUSH1 0x20 PUSH1 0x4 DUP3 ADD MSTORE PUSH1 0x1D PUSH1 0x24 DUP3 ADD MSTORE PUSH32 0x4C7A4170703A206E6F20747275737465642070617468207265636F7264000000 PUSH1 0x44 DUP3 ADD MSTORE PUSH1 0x64 ADD PUSH2 0xC8B JUMP JUMPDEST PUSH2 0x1BD6 PUSH1 0x0 PUSH1 0x14 DUP4 MLOAD PUSH2 0x1BCE SWAP2 SWAP1 PUSH2 0x5317 JUMP JUMPDEST DUP4 SWAP2 SWAP1 PUSH2 0x3009 JUMP JUMPDEST SWAP4 SWAP3 POP POP POP JUMP JUMPDEST PUSH2 0x1BEF PUSH2 0x1BE8 PUSH2 0x2853 JUMP JUMPDEST DUP4 DUP4 PUSH2 0x3116 JUMP JUMPDEST POP POP JUMP JUMPDEST PUSH2 0x1BFB PUSH2 0x2853 JUMP JUMPDEST PUSH1 0x1 PUSH1 0x1 PUSH1 0xA0 SHL SUB AND PUSH2 0x1C16 PUSH1 0x33 SLOAD PUSH1 0x1 PUSH1 0x1 PUSH1 0xA0 SHL SUB AND SWAP1 JUMP JUMPDEST PUSH1 0x1 PUSH1 0x1 PUSH1 0xA0 SHL SUB AND EQ PUSH2 0x1C3C JUMPI PUSH1 0x40 MLOAD PUSH3 0x461BCD PUSH1 0xE5 SHL DUP2 MSTORE PUSH1 0x4 ADD PUSH2 0xC8B SWAP1 PUSH2 0x51D0 JUMP JUMPDEST DUP2 DUP2 ADDRESS PUSH1 0x40 MLOAD PUSH1 0x20 ADD PUSH2 0x1C51 SWAP4 SWAP3 SWAP2 SWAP1 PUSH2 0x532A JUMP JUMPDEST PUSH1 0x40 DUP1 MLOAD PUSH1 0x1F NOT DUP2 DUP5 SUB ADD DUP2 MSTORE SWAP2 DUP2 MSTORE PUSH2 0xFFFF DUP6 AND PUSH1 0x0 SWAP1 DUP2 MSTORE PUSH1 0x66 PUSH1 0x20 MSTORE KECCAK256 SWAP1 PUSH2 0x1C7C SWAP1 DUP3 PUSH2 0x5391 JUMP JUMPDEST POP PUSH32 0x8C0400CFE2D1199B1A725C78960BCC2A344D869B80590D0F2BD005DB15A572CE DUP4 DUP4 DUP4 PUSH1 0x40 MLOAD PUSH2 0x1CB0 SWAP4 SWAP3 SWAP2 SWAP1 PUSH2 0x5273 JUMP JUMPDEST PUSH1 0x40 MLOAD DUP1 SWAP2 SUB SWAP1 LOG1 POP POP POP JUMP JUMPDEST PUSH1 0x0 DUP1 PUSH1 0x0 DUP8 DUP8 DUP8 PUSH1 0x40 MLOAD PUSH1 0x20 ADD PUSH2 0x1CD7 SWAP4 SWAP3 SWAP2 SWAP1 PUSH2 0x5450 JUMP JUMPDEST PUSH1 0x40 DUP1 MLOAD PUSH1 0x1F NOT DUP2 DUP5 SUB ADD DUP2 MSTORE SWAP1 DUP3 SWAP1 MSTORE PUSH1 0x65 SLOAD PUSH4 0x40A7BB1 PUSH1 0xE4 SHL DUP4 MSTORE SWAP1 SWAP3 POP PUSH1 0x1 PUSH1 0x1 PUSH1 0xA0 SHL SUB AND SWAP1 PUSH4 0x40A7BB10 SWAP1 PUSH2 0x1D1E SWAP1 DUP13 SWAP1 ADDRESS SWAP1 DUP7 SWAP1 DUP12 SWAP1 DUP12 SWAP1 PUSH1 0x4 ADD PUSH2 0x5489 JUMP JUMPDEST PUSH1 0x40 DUP1 MLOAD DUP1 DUP4 SUB DUP2 DUP7 GAS STATICCALL ISZERO DUP1 ISZERO PUSH2 0x1D3A JUMPI RETURNDATASIZE PUSH1 0x0 DUP1 RETURNDATACOPY RETURNDATASIZE PUSH1 0x0 REVERT JUMPDEST POP POP POP POP PUSH1 0x40 MLOAD RETURNDATASIZE PUSH1 0x1F NOT PUSH1 0x1F DUP3 ADD AND DUP3 ADD DUP1 PUSH1 0x40 MSTORE POP DUP2 ADD SWAP1 PUSH2 0x1D5E SWAP2 SWAP1 PUSH2 0x54DD JUMP JUMPDEST SWAP3 POP SWAP3 POP POP SWAP7 POP SWAP7 SWAP5 POP POP POP POP POP JUMP JUMPDEST PUSH1 0x40 MLOAD PUSH1 0x1 PUSH1 0x1 PUSH1 0x60 SHL SUB NOT PUSH1 0x60 DUP8 SWAP1 SHL AND PUSH1 0x20 DUP3 ADD MSTORE PUSH1 0x34 DUP2 ADD DUP6 SWAP1 MSTORE PUSH1 0x54 DUP2 ADD DUP5 SWAP1 MSTORE PUSH1 0x74 DUP2 ADD DUP4 SWAP1 MSTORE PUSH1 0x0 SWAP1 PUSH1 0x94 ADD PUSH1 0x40 MLOAD PUSH1 0x20 DUP2 DUP4 SUB SUB DUP2 MSTORE SWAP1 PUSH1 0x40 MSTORE DUP1 MLOAD SWAP1 PUSH1 0x20 ADD KECCAK256 SWAP1 POP PUSH1 0x0 PUSH2 0x1DC3 DUP3 PUSH2 0x2ADA JUMP JUMPDEST SWAP1 POP PUSH1 0x0 PUSH2 0x1DD1 DUP3 DUP6 PUSH2 0x2B2D JUMP JUMPDEST SWAP1 POP PUSH2 0x1DF6 DUP2 PUSH1 0x1 PUSH1 0x1 PUSH1 0xA0 SHL SUB AND PUSH1 0x0 SWAP1 DUP2 MSTORE PUSH2 0x1C6 PUSH1 0x20 MSTORE PUSH1 0x40 SWAP1 KECCAK256 SLOAD PUSH1 0xFF AND SWAP1 JUMP JUMPDEST DUP1 ISZERO PUSH2 0x1E20 JUMPI POP DUP6 PUSH2 0x1E1E DUP10 PUSH1 0x1 PUSH1 0x1 PUSH1 0xA0 SHL SUB AND PUSH1 0x0 SWAP1 DUP2 MSTORE PUSH2 0x1C7 PUSH1 0x20 MSTORE PUSH1 0x40 SWAP1 KECCAK256 SLOAD SWAP1 JUMP JUMPDEST EQ JUMPDEST PUSH2 0x1E6C JUMPI PUSH1 0x40 MLOAD PUSH3 0x461BCD PUSH1 0xE5 SHL DUP2 MSTORE PUSH1 0x20 PUSH1 0x4 DUP3 ADD DUP2 SWAP1 MSTORE PUSH1 0x24 DUP3 ADD MSTORE PUSH32 0x5369676E617475726520646F6573206E6F74206D617463682072657175657374 PUSH1 0x44 DUP3 ADD MSTORE PUSH1 0x64 ADD PUSH2 0xC8B JUMP JUMPDEST PUSH1 0x0 DUP8 DUP2 MSTORE PUSH2 0x12D PUSH1 0x20 MSTORE PUSH1 0x40 DUP2 KECCAK256 SLOAD PUSH2 0x1E87 SWAP1 DUP8 SWAP1 PUSH2 0x5291 JUMP JUMPDEST PUSH1 0x0 DUP10 DUP2 MSTORE PUSH2 0x1C8 PUSH1 0x20 MSTORE PUSH1 0x40 SWAP1 KECCAK256 SLOAD SWAP1 SWAP2 POP DUP2 GT ISZERO DUP1 PUSH2 0x1EBA JUMPI PUSH1 0x40 MLOAD PUSH3 0x461BCD PUSH1 0xE5 SHL DUP2 MSTORE PUSH1 0x4 ADD PUSH2 0xC8B SWAP1 PUSH2 0x52A4 JUMP JUMPDEST PUSH2 0x1ED5 DUP11 DUP11 DUP10 PUSH1 0x40 MLOAD DUP1 PUSH1 0x20 ADD PUSH1 0x40 MSTORE DUP1 PUSH1 0x0 DUP2 MSTORE POP PUSH2 0x2B49 JUMP JUMPDEST PUSH1 0x1 PUSH1 0x1 PUSH1 0xA0 SHL SUB DUP11 AND PUSH1 0x0 SWAP1 DUP2 MSTORE PUSH2 0x1C7 PUSH1 0x20 MSTORE PUSH1 0x40 DUP2 KECCAK256 DUP1 SLOAD SWAP2 PUSH2 0x1EFA DUP4 PUSH2 0x5231 JUMP JUMPDEST SWAP2 SWAP1 POP SSTORE POP DUP10 PUSH1 0x1 PUSH1 0x1 PUSH1 0xA0 SHL SUB AND PUSH32 0xA53BAEA067B124FA4F5FF90ACFBED6DF1A24499F6A0DE581D40E8AD128B3D167 DUP11 DUP11 DUP11 DUP11 PUSH1 0x40 MLOAD PUSH2 0x165C SWAP5 SWAP4 SWAP3 SWAP2 SWAP1 PUSH2 0x52E8 JUMP JUMPDEST PUSH2 0x1F46 PUSH2 0x2853 JUMP JUMPDEST PUSH1 0x1 PUSH1 0x1 PUSH1 0xA0 SHL SUB AND PUSH2 0x1F61 PUSH1 0x33 SLOAD PUSH1 0x1 PUSH1 0x1 PUSH1 0xA0 SHL SUB AND SWAP1 JUMP JUMPDEST PUSH1 0x1 PUSH1 0x1 PUSH1 0xA0 SHL SUB AND EQ PUSH2 0x1F87 JUMPI PUSH1 0x40 MLOAD PUSH3 0x461BCD PUSH1 0xE5 SHL DUP2 MSTORE PUSH1 0x4 ADD PUSH2 0xC8B SWAP1 PUSH2 0x51D0 JUMP JUMPDEST PUSH1 0x69 DUP1 SLOAD PUSH1 0x1 PUSH1 0x1 PUSH1 0xA0 SHL SUB NOT AND PUSH1 0x1 PUSH1 0x1 PUSH1 0xA0 SHL SUB DUP4 AND SWAP1 DUP2 OR SWAP1 SWAP2 SSTORE PUSH1 0x40 MLOAD SWAP1 DUP2 MSTORE PUSH32 0x5DB758E995A17EC1AD84BDEF7E8C3293A0BD6179BCCE400DFF5D4C3D87DB726B SWAP1 PUSH1 0x20 ADD JUMPDEST PUSH1 0x40 MLOAD DUP1 SWAP2 SUB SWAP1 LOG1 POP JUMP JUMPDEST PUSH2 0x1FE4 PUSH2 0x2853 JUMP JUMPDEST PUSH1 0x1 PUSH1 0x1 PUSH1 0xA0 SHL SUB AND PUSH2 0x1FFF PUSH1 0x33 SLOAD PUSH1 0x1 PUSH1 0x1 PUSH1 0xA0 SHL SUB AND SWAP1 JUMP JUMPDEST PUSH1 0x1 PUSH1 0x1 PUSH1 0xA0 SHL SUB AND EQ PUSH2 0x2025 JUMPI PUSH1 0x40 MLOAD PUSH3 0x461BCD PUSH1 0xE5 SHL DUP2 MSTORE PUSH1 0x4 ADD PUSH2 0xC8B SWAP1 PUSH2 0x51D0 JUMP JUMPDEST PUSH1 0x65 SLOAD PUSH1 0x40 MLOAD PUSH4 0x32FB62E7 PUSH1 0xE2 SHL DUP2 MSTORE PUSH1 0x1 PUSH1 0x1 PUSH1 0xA0 SHL SUB SWAP1 SWAP2 AND SWAP1 PUSH4 0xCBED8B9C SWAP1 PUSH2 0x205D SWAP1 DUP9 SWAP1 DUP9 SWAP1 DUP9 SWAP1 DUP9 SWAP1 DUP9 SWAP1 PUSH1 0x4 ADD PUSH2 0x5501 JUMP JUMPDEST PUSH1 0x0 PUSH1 0x40 MLOAD DUP1 DUP4 SUB DUP2 PUSH1 0x0 DUP8 DUP1 EXTCODESIZE ISZERO DUP1 ISZERO PUSH2 0x2077 JUMPI PUSH1 0x0 DUP1 REVERT JUMPDEST POP GAS CALL ISZERO DUP1 ISZERO PUSH2 0x208B JUMPI RETURNDATASIZE PUSH1 0x0 DUP1 RETURNDATACOPY RETURNDATASIZE PUSH1 0x0 REVERT JUMPDEST POP POP POP POP POP POP POP POP POP JUMP JUMPDEST PUSH2 0x1C6 PUSH1 0x0 PUSH2 0x20A3 PUSH2 0x2853 JUMP JUMPDEST PUSH1 0x1 PUSH1 0x1 PUSH1 0xA0 SHL SUB AND DUP2 MSTORE PUSH1 0x20 DUP2 ADD SWAP2 SWAP1 SWAP2 MSTORE PUSH1 0x40 ADD PUSH1 0x0 KECCAK256 SLOAD PUSH1 0xFF AND PUSH2 0x210C JUMPI PUSH1 0x40 MLOAD PUSH3 0x461BCD PUSH1 0xE5 SHL DUP2 MSTORE PUSH1 0x20 PUSH1 0x4 DUP3 ADD MSTORE PUSH1 0x18 PUSH1 0x24 DUP3 ADD MSTORE PUSH32 0x43616C6C6572206973206E6F7420746865207369676E65720000000000000000 PUSH1 0x44 DUP3 ADD MSTORE PUSH1 0x64 ADD PUSH2 0xC8B JUMP JUMPDEST PUSH1 0x1 PUSH1 0x1 PUSH1 0xA0 SHL SUB DUP2 AND PUSH1 0x0 SWAP1 DUP2 MSTORE PUSH2 0x1C7 PUSH1 0x20 MSTORE PUSH1 0x40 DUP2 KECCAK256 DUP1 SLOAD SWAP2 PUSH2 0x2131 DUP4 PUSH2 0x5231 JUMP JUMPDEST SWAP2 SWAP1 POP SSTORE POP POP JUMP JUMPDEST PUSH2 0xFFFF DUP7 AND PUSH1 0x0 SWAP1 DUP2 MSTORE PUSH1 0x97 PUSH1 0x20 MSTORE PUSH1 0x40 DUP1 DUP3 KECCAK256 SWAP1 MLOAD PUSH2 0x215C SWAP1 DUP9 SWAP1 DUP9 SWAP1 PUSH2 0x51C0 JUMP JUMPDEST SWAP1 DUP2 MSTORE PUSH1 0x40 DUP1 MLOAD PUSH1 0x20 SWAP3 DUP2 SWAP1 SUB DUP4 ADD SWAP1 KECCAK256 PUSH1 0x1 PUSH1 0x1 PUSH1 0x40 SHL SUB DUP8 AND PUSH1 0x0 SWAP1 DUP2 MSTORE SWAP3 MSTORE SWAP1 KECCAK256 SLOAD SWAP1 POP DUP1 PUSH2 0x21DC JUMPI PUSH1 0x40 MLOAD PUSH3 0x461BCD PUSH1 0xE5 SHL DUP2 MSTORE PUSH1 0x20 PUSH1 0x4 DUP3 ADD MSTORE PUSH1 0x23 PUSH1 0x24 DUP3 ADD MSTORE PUSH32 0x4E6F6E626C6F636B696E674C7A4170703A206E6F2073746F726564206D657373 PUSH1 0x44 DUP3 ADD MSTORE PUSH3 0x616765 PUSH1 0xE8 SHL PUSH1 0x64 DUP3 ADD MSTORE PUSH1 0x84 ADD PUSH2 0xC8B JUMP JUMPDEST DUP1 DUP4 DUP4 PUSH1 0x40 MLOAD PUSH2 0x21ED SWAP3 SWAP2 SWAP1 PUSH2 0x51C0 JUMP JUMPDEST PUSH1 0x40 MLOAD DUP1 SWAP2 SUB SWAP1 KECCAK256 EQ PUSH2 0x224C JUMPI PUSH1 0x40 MLOAD PUSH3 0x461BCD PUSH1 0xE5 SHL DUP2 MSTORE PUSH1 0x20 PUSH1 0x4 DUP3 ADD MSTORE PUSH1 0x21 PUSH1 0x24 DUP3 ADD MSTORE PUSH32 0x4E6F6E626C6F636B696E674C7A4170703A20696E76616C6964207061796C6F61 PUSH1 0x44 DUP3 ADD MSTORE PUSH1 0x19 PUSH1 0xFA SHL PUSH1 0x64 DUP3 ADD MSTORE PUSH1 0x84 ADD PUSH2 0xC8B JUMP JUMPDEST PUSH2 0xFFFF DUP8 AND PUSH1 0x0 SWAP1 DUP2 MSTORE PUSH1 0x97 PUSH1 0x20 MSTORE PUSH1 0x40 DUP1 DUP3 KECCAK256 SWAP1 MLOAD PUSH2 0x226F SWAP1 DUP10 SWAP1 DUP10 SWAP1 PUSH2 0x51C0 JUMP JUMPDEST SWAP1 DUP2 MSTORE PUSH1 0x40 DUP1 MLOAD PUSH1 0x20 SWAP3 DUP2 SWAP1 SUB DUP4 ADD DUP2 KECCAK256 PUSH1 0x1 PUSH1 0x1 PUSH1 0x40 SHL SUB DUP10 AND PUSH1 0x0 SWAP1 DUP2 MSTORE SWAP1 DUP5 MSTORE DUP3 SWAP1 KECCAK256 SWAP4 SWAP1 SWAP4 SSTORE PUSH1 0x1F DUP9 ADD DUP3 SWAP1 DIV DUP3 MUL DUP4 ADD DUP3 ADD SWAP1 MSTORE DUP7 DUP3 MSTORE PUSH2 0x2307 SWAP2 DUP10 SWAP2 DUP10 SWAP1 DUP10 SWAP1 DUP2 SWAP1 DUP5 ADD DUP4 DUP3 DUP1 DUP3 DUP5 CALLDATACOPY PUSH1 0x0 SWAP3 ADD SWAP2 SWAP1 SWAP2 MSTORE POP POP PUSH1 0x40 DUP1 MLOAD PUSH1 0x20 PUSH1 0x1F DUP11 ADD DUP2 SWAP1 DIV DUP2 MUL DUP3 ADD DUP2 ADD SWAP1 SWAP3 MSTORE DUP9 DUP2 MSTORE DUP11 SWAP4 POP SWAP2 POP DUP9 SWAP1 DUP9 SWAP1 DUP2 SWAP1 DUP5 ADD DUP4 DUP3 DUP1 DUP3 DUP5 CALLDATACOPY PUSH1 0x0 SWAP3 ADD SWAP2 SWAP1 SWAP2 MSTORE POP PUSH2 0x2E6A SWAP3 POP POP POP JUMP JUMPDEST PUSH32 0xC264D91F3ADC5588250E1551F547752CA0CFA8F6B530D243B9F9F4CAB10EA8E5 DUP8 DUP8 DUP8 DUP8 DUP6 PUSH1 0x40 MLOAD PUSH2 0x233E SWAP6 SWAP5 SWAP4 SWAP3 SWAP2 SWAP1 PUSH2 0x553A JUMP JUMPDEST PUSH1 0x40 MLOAD DUP1 SWAP2 SUB SWAP1 LOG1 POP POP POP POP POP POP POP JUMP JUMPDEST PUSH1 0x0 PUSH2 0x235B PUSH1 0x1 PUSH2 0x31F6 JUMP JUMPDEST SWAP1 POP DUP1 ISZERO PUSH2 0x2373 JUMPI PUSH1 0x0 DUP1 SLOAD PUSH2 0xFF00 NOT AND PUSH2 0x100 OR SWAP1 SSTORE JUMPDEST PUSH2 0x237D DUP7 DUP5 PUSH2 0x3283 JUMP JUMPDEST PUSH2 0x1C3 PUSH2 0x238A DUP7 DUP3 PUSH2 0x5391 JUMP JUMPDEST POP PUSH2 0x1C4 PUSH2 0x2398 DUP6 DUP3 PUSH2 0x5391 JUMP JUMPDEST POP PUSH2 0x1C5 DUP1 SLOAD PUSH1 0x1 PUSH1 0x1 PUSH1 0xA0 SHL SUB NOT AND PUSH1 0x1 PUSH1 0x1 PUSH1 0xA0 SHL SUB DUP5 AND OR SWAP1 SSTORE DUP1 ISZERO PUSH2 0x18B7 JUMPI PUSH1 0x0 DUP1 SLOAD PUSH2 0xFF00 NOT AND SWAP1 SSTORE PUSH1 0x40 MLOAD PUSH1 0x1 DUP2 MSTORE PUSH32 0x7F26B83FF96E1F2B6A682F133852F6798A09C465DA95921460CEFB3847402498 SWAP1 PUSH1 0x20 ADD PUSH1 0x40 MLOAD DUP1 SWAP2 SUB SWAP1 LOG1 POP POP POP POP POP POP JUMP JUMPDEST PUSH2 0x240A PUSH2 0x2853 JUMP JUMPDEST PUSH1 0x1 PUSH1 0x1 PUSH1 0xA0 SHL SUB AND PUSH2 0x2425 PUSH1 0x33 SLOAD PUSH1 0x1 PUSH1 0x1 PUSH1 0xA0 SHL SUB AND SWAP1 JUMP JUMPDEST PUSH1 0x1 PUSH1 0x1 PUSH1 0xA0 SHL SUB AND EQ PUSH2 0x244B JUMPI PUSH1 0x40 MLOAD PUSH3 0x461BCD PUSH1 0xE5 SHL DUP2 MSTORE PUSH1 0x4 ADD PUSH2 0xC8B SWAP1 PUSH2 0x51D0 JUMP JUMPDEST PUSH1 0x0 DUP2 GT PUSH2 0x2493 JUMPI PUSH1 0x40 MLOAD PUSH3 0x461BCD PUSH1 0xE5 SHL DUP2 MSTORE PUSH1 0x20 PUSH1 0x4 DUP3 ADD MSTORE PUSH1 0x15 PUSH1 0x24 DUP3 ADD MSTORE PUSH21 0x4C7A4170703A20696E76616C6964206D696E476173 PUSH1 0x58 SHL PUSH1 0x44 DUP3 ADD MSTORE PUSH1 0x64 ADD PUSH2 0xC8B JUMP JUMPDEST PUSH2 0xFFFF DUP4 DUP2 AND PUSH1 0x0 DUP2 DUP2 MSTORE PUSH1 0x67 PUSH1 0x20 SWAP1 DUP2 MSTORE PUSH1 0x40 DUP1 DUP4 KECCAK256 SWAP5 DUP8 AND DUP1 DUP5 MSTORE SWAP5 DUP3 MSTORE SWAP2 DUP3 SWAP1 KECCAK256 DUP6 SWAP1 SSTORE DUP2 MLOAD SWAP3 DUP4 MSTORE DUP3 ADD SWAP3 SWAP1 SWAP3 MSTORE SWAP1 DUP2 ADD DUP3 SWAP1 MSTORE PUSH32 0x9D5C7C0B934DA8FEFA9C7760C98383778A12DFBFC0C3B3106518F43FB9508AC0 SWAP1 PUSH1 0x60 ADD PUSH2 0x1CB0 JUMP JUMPDEST PUSH2 0x24FD PUSH2 0x2853 JUMP JUMPDEST PUSH1 0x1 PUSH1 0x1 PUSH1 0xA0 SHL SUB AND PUSH2 0x2518 PUSH1 0x33 SLOAD PUSH1 0x1 PUSH1 0x1 PUSH1 0xA0 SHL SUB AND SWAP1 JUMP JUMPDEST PUSH1 0x1 PUSH1 0x1 PUSH1 0xA0 SHL SUB AND EQ PUSH2 0x253E JUMPI PUSH1 0x40 MLOAD PUSH3 0x461BCD PUSH1 0xE5 SHL DUP2 MSTORE PUSH1 0x4 ADD PUSH2 0xC8B SWAP1 PUSH2 0x51D0 JUMP JUMPDEST PUSH2 0x2547 DUP2 PUSH2 0x32C4 JUMP JUMPDEST POP JUMP JUMPDEST PUSH2 0x2552 PUSH2 0x2853 JUMP JUMPDEST PUSH1 0x1 PUSH1 0x1 PUSH1 0xA0 SHL SUB AND PUSH2 0x256D PUSH1 0x33 SLOAD PUSH1 0x1 PUSH1 0x1 PUSH1 0xA0 SHL SUB AND SWAP1 JUMP JUMPDEST PUSH1 0x1 PUSH1 0x1 PUSH1 0xA0 SHL SUB AND EQ PUSH2 0x2593 JUMPI PUSH1 0x40 MLOAD PUSH3 0x461BCD PUSH1 0xE5 SHL DUP2 MSTORE PUSH1 0x4 ADD PUSH2 0xC8B SWAP1 PUSH2 0x51D0 JUMP JUMPDEST PUSH2 0x15F DUP1 SLOAD PUSH1 0xFF NOT AND DUP3 ISZERO ISZERO SWAP1 DUP2 OR SWAP1 SWAP2 SSTORE PUSH1 0x40 MLOAD SWAP1 DUP2 MSTORE PUSH32 0x1584AD594A70CBE1E6515592E1272A987D922B097EAD875069CEBE8B40C004A4 SWAP1 PUSH1 0x20 ADD PUSH2 0x1FD1 JUMP JUMPDEST PUSH2 0x25DD PUSH2 0x2853 JUMP JUMPDEST PUSH1 0x1 PUSH1 0x1 PUSH1 0xA0 SHL SUB AND PUSH2 0x25F8 PUSH1 0x33 SLOAD PUSH1 0x1 PUSH1 0x1 PUSH1 0xA0 SHL SUB AND SWAP1 JUMP JUMPDEST PUSH1 0x1 PUSH1 0x1 PUSH1 0xA0 SHL SUB AND EQ PUSH2 0x261E JUMPI PUSH1 0x40 MLOAD PUSH3 0x461BCD PUSH1 0xE5 SHL DUP2 MSTORE PUSH1 0x4 ADD PUSH2 0xC8B SWAP1 PUSH2 0x51D0 JUMP JUMPDEST PUSH2 0xFFFF DUP4 AND PUSH1 0x0 SWAP1 DUP2 MSTORE PUSH1 0x66 PUSH1 0x20 MSTORE PUSH1 0x40 SWAP1 KECCAK256 PUSH2 0x263C DUP3 DUP5 DUP4 PUSH2 0x5575 JUMP JUMPDEST POP PUSH32 0xFA41487AD5D6728F0B19276FA1EDDC16558578F5109FC39D2DC33C3230470DAB DUP4 DUP4 DUP4 PUSH1 0x40 MLOAD PUSH2 0x1CB0 SWAP4 SWAP3 SWAP2 SWAP1 PUSH2 0x5273 JUMP JUMPDEST PUSH2 0x2678 PUSH2 0x2853 JUMP JUMPDEST PUSH1 0x1 PUSH1 0x1 PUSH1 0xA0 SHL SUB AND DUP6 PUSH1 0x1 PUSH1 0x1 PUSH1 0xA0 SHL SUB AND EQ DUP1 PUSH2 0x269E JUMPI POP PUSH2 0x269E DUP6 PUSH2 0xAF1 PUSH2 0x2853 JUMP JUMPDEST PUSH2 0x26FC JUMPI PUSH1 0x40 MLOAD PUSH3 0x461BCD PUSH1 0xE5 SHL DUP2 MSTORE PUSH1 0x20 PUSH1 0x4 DUP3 ADD MSTORE PUSH1 0x29 PUSH1 0x24 DUP3 ADD MSTORE PUSH32 0x455243313135353A2063616C6C6572206973206E6F74206F776E6572206E6F72 PUSH1 0x44 DUP3 ADD MSTORE PUSH9 0x8185C1C1C9BDD9959 PUSH1 0xBA SHL PUSH1 0x64 DUP3 ADD MSTORE PUSH1 0x84 ADD PUSH2 0xC8B JUMP JUMPDEST PUSH2 0x1036 DUP6 DUP6 DUP6 DUP6 DUP6 PUSH2 0x32D0 JUMP JUMPDEST PUSH2 0x2711 PUSH2 0x2853 JUMP JUMPDEST PUSH1 0x1 PUSH1 0x1 PUSH1 0xA0 SHL SUB AND PUSH2 0x272C PUSH1 0x33 SLOAD PUSH1 0x1 PUSH1 0x1 PUSH1 0xA0 SHL SUB AND SWAP1 JUMP JUMPDEST PUSH1 0x1 PUSH1 0x1 PUSH1 0xA0 SHL SUB AND EQ PUSH2 0x2752 JUMPI PUSH1 0x40 MLOAD PUSH3 0x461BCD PUSH1 0xE5 SHL DUP2 MSTORE PUSH1 0x4 ADD PUSH2 0xC8B SWAP1 PUSH2 0x51D0 JUMP JUMPDEST PUSH1 0x1 PUSH1 0x1 PUSH1 0xA0 SHL SUB DUP2 AND PUSH2 0x27B7 JUMPI PUSH1 0x40 MLOAD PUSH3 0x461BCD PUSH1 0xE5 SHL DUP2 MSTORE PUSH1 0x20 PUSH1 0x4 DUP3 ADD MSTORE PUSH1 0x26 PUSH1 0x24 DUP3 ADD MSTORE PUSH32 0x4F776E61626C653A206E6577206F776E657220697320746865207A65726F2061 PUSH1 0x44 DUP3 ADD MSTORE PUSH6 0x646472657373 PUSH1 0xD0 SHL PUSH1 0x64 DUP3 ADD MSTORE PUSH1 0x84 ADD PUSH2 0xC8B JUMP JUMPDEST PUSH2 0x2547 DUP2 PUSH2 0x2FB7 JUMP JUMPDEST PUSH1 0x65 SLOAD PUSH1 0x40 MLOAD PUSH4 0x3D7B2F6F PUSH1 0xE2 SHL DUP2 MSTORE PUSH2 0xFFFF DUP1 DUP8 AND PUSH1 0x4 DUP4 ADD MSTORE DUP6 AND PUSH1 0x24 DUP3 ADD MSTORE ADDRESS PUSH1 0x44 DUP3 ADD MSTORE PUSH1 0x64 DUP2 ADD DUP4 SWAP1 MSTORE PUSH1 0x60 SWAP2 PUSH1 0x1 PUSH1 0x1 PUSH1 0xA0 SHL SUB AND SWAP1 PUSH4 0xF5ECBDBC SWAP1 PUSH1 0x84 ADD PUSH1 0x0 PUSH1 0x40 MLOAD DUP1 DUP4 SUB DUP2 DUP7 GAS STATICCALL ISZERO DUP1 ISZERO PUSH2 0x2822 JUMPI RETURNDATASIZE PUSH1 0x0 DUP1 RETURNDATACOPY RETURNDATASIZE PUSH1 0x0 REVERT JUMPDEST POP POP POP POP PUSH1 0x40 MLOAD RETURNDATASIZE PUSH1 0x0 DUP3 RETURNDATACOPY PUSH1 0x1F RETURNDATASIZE SWAP1 DUP2 ADD PUSH1 0x1F NOT AND DUP3 ADD PUSH1 0x40 MSTORE PUSH2 0x284A SWAP2 SWAP1 DUP2 ADD SWAP1 PUSH2 0x5683 JUMP JUMPDEST SWAP6 SWAP5 POP POP POP POP POP JUMP JUMPDEST PUSH1 0x0 CALLER PUSH2 0x2869 PUSH2 0x1C5 SLOAD PUSH1 0x1 PUSH1 0x1 PUSH1 0xA0 SHL SUB AND SWAP1 JUMP JUMPDEST PUSH1 0x1 PUSH1 0x1 PUSH1 0xA0 SHL SUB AND SUB PUSH2 0x2884 JUMPI POP PUSH1 0x13 NOT CALLDATASIZE ADD CALLDATALOAD PUSH1 0x60 SHR SWAP1 JUMP JUMPDEST POP CALLER SWAP1 JUMP JUMPDEST SWAP1 JUMP JUMPDEST PUSH1 0x0 DUP1 PUSH2 0x28EF GAS PUSH1 0x96 PUSH4 0x66AD5C8A PUSH1 0xE0 SHL DUP10 DUP10 DUP10 DUP10 PUSH1 0x40 MLOAD PUSH1 0x24 ADD PUSH2 0x28B4 SWAP5 SWAP4 SWAP3 SWAP2 SWAP1 PUSH2 0x56B7 JUMP JUMPDEST PUSH1 0x40 DUP1 MLOAD PUSH1 0x1F NOT DUP2 DUP5 SUB ADD DUP2 MSTORE SWAP2 SWAP1 MSTORE PUSH1 0x20 DUP2 ADD DUP1 MLOAD PUSH1 0x1 PUSH1 0x1 PUSH1 0xE0 SHL SUB AND PUSH1 0x1 PUSH1 0x1 PUSH1 0xE0 SHL SUB NOT SWAP1 SWAP4 AND SWAP3 SWAP1 SWAP3 OR SWAP1 SWAP2 MSTORE ADDRESS SWAP3 SWAP2 SWAP1 PUSH2 0x340C JUMP JUMPDEST SWAP2 POP SWAP2 POP DUP2 PUSH2 0x18B7 JUMPI PUSH2 0x18B7 DUP7 DUP7 DUP7 DUP7 DUP6 PUSH2 0x3498 JUMP JUMPDEST PUSH1 0x0 PUSH1 0x1 PUSH1 0x1 PUSH1 0xE0 SHL SUB NOT DUP3 AND PUSH4 0x19ABBBBB PUSH1 0xE1 SHL EQ DUP1 PUSH2 0xED9 JUMPI POP PUSH2 0xED9 DUP3 PUSH2 0x3535 JUMP JUMPDEST DUP2 MLOAD DUP4 MLOAD EQ PUSH2 0x294B JUMPI PUSH1 0x40 MLOAD PUSH3 0x461BCD PUSH1 0xE5 SHL DUP2 MSTORE PUSH1 0x4 ADD PUSH2 0xC8B SWAP1 PUSH2 0x56F5 JUMP JUMPDEST PUSH1 0x1 PUSH1 0x1 PUSH1 0xA0 SHL SUB DUP5 AND PUSH2 0x2971 JUMPI PUSH1 0x40 MLOAD PUSH3 0x461BCD PUSH1 0xE5 SHL DUP2 MSTORE PUSH1 0x4 ADD PUSH2 0xC8B SWAP1 PUSH2 0x573D JUMP JUMPDEST PUSH1 0x0 PUSH2 0x297B PUSH2 0x2853 JUMP JUMPDEST SWAP1 POP PUSH2 0x298B DUP2 DUP8 DUP8 DUP8 DUP8 DUP8 PUSH2 0x3585 JUMP JUMPDEST PUSH1 0x0 JUMPDEST DUP5 MLOAD DUP2 LT ISZERO PUSH2 0x2A74 JUMPI PUSH1 0x0 DUP6 DUP3 DUP2 MLOAD DUP2 LT PUSH2 0x29AB JUMPI PUSH2 0x29AB PUSH2 0x5205 JUMP JUMPDEST PUSH1 0x20 MUL PUSH1 0x20 ADD ADD MLOAD SWAP1 POP PUSH1 0x0 DUP6 DUP4 DUP2 MLOAD DUP2 LT PUSH2 0x29C9 JUMPI PUSH2 0x29C9 PUSH2 0x5205 JUMP JUMPDEST PUSH1 0x20 SWAP1 DUP2 MUL SWAP2 SWAP1 SWAP2 ADD DUP2 ADD MLOAD PUSH1 0x0 DUP5 DUP2 MSTORE PUSH1 0xFB DUP4 MSTORE PUSH1 0x40 DUP1 DUP3 KECCAK256 PUSH1 0x1 PUSH1 0x1 PUSH1 0xA0 SHL SUB DUP15 AND DUP4 MSTORE SWAP1 SWAP4 MSTORE SWAP2 SWAP1 SWAP2 KECCAK256 SLOAD SWAP1 SWAP2 POP DUP2 DUP2 LT ISZERO PUSH2 0x2A1A JUMPI PUSH1 0x40 MLOAD PUSH3 0x461BCD PUSH1 0xE5 SHL DUP2 MSTORE PUSH1 0x4 ADD PUSH2 0xC8B SWAP1 PUSH2 0x5782 JUMP JUMPDEST PUSH1 0x0 DUP4 DUP2 MSTORE PUSH1 0xFB PUSH1 0x20 SWAP1 DUP2 MSTORE PUSH1 0x40 DUP1 DUP4 KECCAK256 PUSH1 0x1 PUSH1 0x1 PUSH1 0xA0 SHL SUB DUP15 DUP2 AND DUP6 MSTORE SWAP3 MSTORE DUP1 DUP4 KECCAK256 DUP6 DUP6 SUB SWAP1 SSTORE SWAP1 DUP12 AND DUP3 MSTORE DUP2 KECCAK256 DUP1 SLOAD DUP5 SWAP3 SWAP1 PUSH2 0x2A59 SWAP1 DUP5 SWAP1 PUSH2 0x5291 JUMP JUMPDEST SWAP3 POP POP DUP2 SWAP1 SSTORE POP POP POP POP DUP1 PUSH2 0x2A6D SWAP1 PUSH2 0x5231 JUMP JUMPDEST SWAP1 POP PUSH2 0x298E JUMP JUMPDEST POP DUP5 PUSH1 0x1 PUSH1 0x1 PUSH1 0xA0 SHL SUB AND DUP7 PUSH1 0x1 PUSH1 0x1 PUSH1 0xA0 SHL SUB AND DUP3 PUSH1 0x1 PUSH1 0x1 PUSH1 0xA0 SHL SUB AND PUSH32 0x4A39DC06D4C0DBC64B70AF90FD698A233A518AA5D07E595D983B8C0526C8F7FB DUP8 DUP8 PUSH1 0x40 MLOAD PUSH2 0x2AC4 SWAP3 SWAP2 SWAP1 PUSH2 0x57CC JUMP JUMPDEST PUSH1 0x40 MLOAD DUP1 SWAP2 SUB SWAP1 LOG4 PUSH2 0x18B7 DUP2 DUP8 DUP8 DUP8 DUP8 DUP8 PUSH2 0x3701 JUMP JUMPDEST PUSH1 0x40 MLOAD PUSH32 0x19457468657265756D205369676E6564204D6573736167653A0A333200000000 PUSH1 0x20 DUP3 ADD MSTORE PUSH1 0x3C DUP2 ADD DUP3 SWAP1 MSTORE PUSH1 0x0 SWAP1 PUSH1 0x5C ADD PUSH1 0x40 MLOAD PUSH1 0x20 DUP2 DUP4 SUB SUB DUP2 MSTORE SWAP1 PUSH1 0x40 MSTORE DUP1 MLOAD SWAP1 PUSH1 0x20 ADD KECCAK256 SWAP1 POP SWAP2 SWAP1 POP JUMP JUMPDEST PUSH1 0x0 DUP1 PUSH1 0x0 PUSH2 0x2B3C DUP6 DUP6 PUSH2 0x385C JUMP JUMPDEST SWAP2 POP SWAP2 POP PUSH2 0x17CB DUP2 PUSH2 0x38CA JUMP JUMPDEST PUSH1 0x1 PUSH1 0x1 PUSH1 0xA0 SHL SUB DUP5 AND PUSH2 0x2B6F JUMPI PUSH1 0x40 MLOAD PUSH3 0x461BCD PUSH1 0xE5 SHL DUP2 MSTORE PUSH1 0x4 ADD PUSH2 0xC8B SWAP1 PUSH2 0x57F1 JUMP JUMPDEST PUSH1 0x0 PUSH2 0x2B79 PUSH2 0x2853 JUMP JUMPDEST SWAP1 POP PUSH1 0x0 PUSH2 0x2B86 DUP6 PUSH2 0x2E1F JUMP JUMPDEST SWAP1 POP PUSH1 0x0 PUSH2 0x2B93 DUP6 PUSH2 0x2E1F JUMP JUMPDEST SWAP1 POP PUSH2 0x2BA4 DUP4 PUSH1 0x0 DUP10 DUP6 DUP6 DUP10 PUSH2 0x3585 JUMP JUMPDEST PUSH1 0x0 DUP7 DUP2 MSTORE PUSH1 0xFB PUSH1 0x20 SWAP1 DUP2 MSTORE PUSH1 0x40 DUP1 DUP4 KECCAK256 PUSH1 0x1 PUSH1 0x1 PUSH1 0xA0 SHL SUB DUP12 AND DUP5 MSTORE SWAP1 SWAP2 MSTORE DUP2 KECCAK256 DUP1 SLOAD DUP8 SWAP3 SWAP1 PUSH2 0x2BD6 SWAP1 DUP5 SWAP1 PUSH2 0x5291 JUMP JUMPDEST SWAP1 SWAP2 SSTORE POP POP PUSH1 0x40 DUP1 MLOAD DUP8 DUP2 MSTORE PUSH1 0x20 DUP2 ADD DUP8 SWAP1 MSTORE PUSH1 0x1 PUSH1 0x1 PUSH1 0xA0 SHL SUB DUP1 DUP11 AND SWAP3 PUSH1 0x0 SWAP3 SWAP2 DUP8 AND SWAP2 PUSH32 0xC3D58168C5AE7397731D063D5BBF3D657854427343F4C083240F7AACAA2D0F62 SWAP2 ADD PUSH1 0x40 MLOAD DUP1 SWAP2 SUB SWAP1 LOG4 PUSH2 0xE3F DUP4 PUSH1 0x0 DUP10 DUP10 DUP10 DUP10 PUSH2 0x3A80 JUMP JUMPDEST PUSH2 0x2C43 DUP9 DUP9 DUP9 DUP9 DUP9 PUSH2 0x3B3B JUMP JUMPDEST PUSH1 0x0 DUP7 DUP7 DUP7 PUSH1 0x40 MLOAD PUSH1 0x20 ADD PUSH2 0x2C5A SWAP4 SWAP3 SWAP2 SWAP1 PUSH2 0x5450 JUMP JUMPDEST PUSH1 0x40 MLOAD PUSH1 0x20 DUP2 DUP4 SUB SUB DUP2 MSTORE SWAP1 PUSH1 0x40 MSTORE SWAP1 POP DUP6 MLOAD PUSH1 0x1 SUB PUSH2 0x2D60 JUMPI PUSH2 0x15F SLOAD PUSH1 0xFF AND ISZERO PUSH2 0x2C93 JUMPI PUSH2 0x2C8E DUP9 PUSH1 0x1 DUP5 PUSH1 0x0 PUSH2 0x3BFB JUMP JUMPDEST PUSH2 0x2CB2 JUMP JUMPDEST DUP2 MLOAD ISZERO PUSH2 0x2CB2 JUMPI PUSH1 0x40 MLOAD PUSH3 0x461BCD PUSH1 0xE5 SHL DUP2 MSTORE PUSH1 0x4 ADD PUSH2 0xC8B SWAP1 PUSH2 0x5832 JUMP JUMPDEST PUSH2 0x2CC0 DUP9 DUP3 DUP7 DUP7 DUP7 CALLVALUE PUSH2 0x3CDA JUMP JUMPDEST DUP7 PUSH1 0x40 MLOAD PUSH2 0x2CCE SWAP2 SWAP1 PUSH2 0x5876 JUMP JUMPDEST PUSH1 0x40 MLOAD DUP1 SWAP2 SUB SWAP1 KECCAK256 DUP10 PUSH1 0x1 PUSH1 0x1 PUSH1 0xA0 SHL SUB AND DUP10 PUSH2 0xFFFF AND PUSH32 0x968B0D61EBCF43E5D76ED87BD2C4EE2F22B4969B9F4CA49E3373C025EDDD5EEB DUP10 PUSH1 0x0 DUP2 MLOAD DUP2 LT PUSH2 0x2D19 JUMPI PUSH2 0x2D19 PUSH2 0x5205 JUMP JUMPDEST PUSH1 0x20 MUL PUSH1 0x20 ADD ADD MLOAD DUP10 PUSH1 0x0 DUP2 MLOAD DUP2 LT PUSH2 0x2D34 JUMPI PUSH2 0x2D34 PUSH2 0x5205 JUMP JUMPDEST PUSH1 0x20 MUL PUSH1 0x20 ADD ADD MLOAD PUSH1 0x40 MLOAD PUSH2 0x2D53 SWAP3 SWAP2 SWAP1 SWAP2 DUP3 MSTORE PUSH1 0x20 DUP3 ADD MSTORE PUSH1 0x40 ADD SWAP1 JUMP JUMPDEST PUSH1 0x40 MLOAD DUP1 SWAP2 SUB SWAP1 LOG4 PUSH2 0x208B JUMP JUMPDEST PUSH1 0x1 DUP7 MLOAD GT ISZERO PUSH2 0x208B JUMPI PUSH2 0x15F SLOAD PUSH1 0xFF AND ISZERO PUSH2 0x2D89 JUMPI PUSH2 0x2D84 DUP9 PUSH1 0x2 DUP5 PUSH1 0x0 PUSH2 0x3BFB JUMP JUMPDEST PUSH2 0x2DA8 JUMP JUMPDEST DUP2 MLOAD ISZERO PUSH2 0x2DA8 JUMPI PUSH1 0x40 MLOAD PUSH3 0x461BCD PUSH1 0xE5 SHL DUP2 MSTORE PUSH1 0x4 ADD PUSH2 0xC8B SWAP1 PUSH2 0x5832 JUMP JUMPDEST PUSH2 0x2DB6 DUP9 DUP3 DUP7 DUP7 DUP7 CALLVALUE PUSH2 0x3CDA JUMP JUMPDEST DUP7 PUSH1 0x40 MLOAD PUSH2 0x2DC4 SWAP2 SWAP1 PUSH2 0x5876 JUMP JUMPDEST PUSH1 0x40 MLOAD DUP1 SWAP2 SUB SWAP1 KECCAK256 DUP10 PUSH1 0x1 PUSH1 0x1 PUSH1 0xA0 SHL SUB AND DUP10 PUSH2 0xFFFF AND PUSH32 0xDDD15F7CFBD674AC2096D598F1650367F8A8BD72B4E3ABD85591099EA3B57E33 DUP10 DUP10 PUSH1 0x40 MLOAD PUSH2 0x2E0C SWAP3 SWAP2 SWAP1 PUSH2 0x57CC JUMP JUMPDEST PUSH1 0x40 MLOAD DUP1 SWAP2 SUB SWAP1 LOG4 POP POP POP POP POP POP POP POP POP JUMP JUMPDEST PUSH1 0x40 DUP1 MLOAD PUSH1 0x1 DUP1 DUP3 MSTORE DUP2 DUP4 ADD SWAP1 SWAP3 MSTORE PUSH1 0x60 SWAP2 PUSH1 0x0 SWAP2 SWAP1 PUSH1 0x20 DUP1 DUP4 ADD SWAP1 DUP1 CALLDATASIZE DUP4 CALLDATACOPY ADD SWAP1 POP POP SWAP1 POP DUP3 DUP2 PUSH1 0x0 DUP2 MLOAD DUP2 LT PUSH2 0x2E59 JUMPI PUSH2 0x2E59 PUSH2 0x5205 JUMP JUMPDEST PUSH1 0x20 SWAP1 DUP2 MUL SWAP2 SWAP1 SWAP2 ADD ADD MSTORE SWAP3 SWAP2 POP POP JUMP JUMPDEST PUSH1 0x0 DUP1 PUSH1 0x0 DUP4 DUP1 PUSH1 0x20 ADD SWAP1 MLOAD DUP2 ADD SWAP1 PUSH2 0x2E83 SWAP2 SWAP1 PUSH2 0x58F8 JUMP JUMPDEST PUSH1 0x14 DUP4 ADD MLOAD SWAP3 SWAP6 POP SWAP1 SWAP4 POP SWAP2 POP PUSH2 0x2E9C DUP9 DUP3 DUP6 DUP6 PUSH2 0x3E63 JUMP JUMPDEST DUP3 MLOAD PUSH1 0x1 SUB PUSH2 0x2F45 JUMPI DUP1 PUSH1 0x1 PUSH1 0x1 PUSH1 0xA0 SHL SUB AND DUP8 PUSH1 0x40 MLOAD PUSH2 0x2EBD SWAP2 SWAP1 PUSH2 0x5876 JUMP JUMPDEST PUSH1 0x40 MLOAD DUP1 SWAP2 SUB SWAP1 KECCAK256 DUP10 PUSH2 0xFFFF AND PUSH32 0x1BF64E58D19FC43DE4C44B3D1BB1FAE313979AF831A7A39F3297564294329F0F DUP7 PUSH1 0x0 DUP2 MLOAD DUP2 LT PUSH2 0x2EFE JUMPI PUSH2 0x2EFE PUSH2 0x5205 JUMP JUMPDEST PUSH1 0x20 MUL PUSH1 0x20 ADD ADD MLOAD DUP7 PUSH1 0x0 DUP2 MLOAD DUP2 LT PUSH2 0x2F19 JUMPI PUSH2 0x2F19 PUSH2 0x5205 JUMP JUMPDEST PUSH1 0x20 MUL PUSH1 0x20 ADD ADD MLOAD PUSH1 0x40 MLOAD PUSH2 0x2F38 SWAP3 SWAP2 SWAP1 SWAP2 DUP3 MSTORE PUSH1 0x20 DUP3 ADD MSTORE PUSH1 0x40 ADD SWAP1 JUMP JUMPDEST PUSH1 0x40 MLOAD DUP1 SWAP2 SUB SWAP1 LOG4 PUSH2 0x1680 JUMP JUMPDEST PUSH1 0x1 DUP4 MLOAD GT ISZERO PUSH2 0x1680 JUMPI DUP1 PUSH1 0x1 PUSH1 0x1 PUSH1 0xA0 SHL SUB AND DUP8 PUSH1 0x40 MLOAD PUSH2 0x2F67 SWAP2 SWAP1 PUSH2 0x5876 JUMP JUMPDEST PUSH1 0x40 MLOAD DUP1 SWAP2 SUB SWAP1 KECCAK256 DUP10 PUSH2 0xFFFF AND PUSH32 0x1AE08EDBBCD7BAA8D064835DE8593CE16B313414525AC89534E349F4DA7926E4 DUP7 DUP7 PUSH1 0x40 MLOAD PUSH2 0x2FA5 SWAP3 SWAP2 SWAP1 PUSH2 0x57CC JUMP JUMPDEST PUSH1 0x40 MLOAD DUP1 SWAP2 SUB SWAP1 LOG4 POP POP POP POP POP POP POP POP JUMP JUMPDEST PUSH1 0x33 DUP1 SLOAD PUSH1 0x1 PUSH1 0x1 PUSH1 0xA0 SHL SUB DUP4 DUP2 AND PUSH1 0x1 PUSH1 0x1 PUSH1 0xA0 SHL SUB NOT DUP4 AND DUP2 OR SWAP1 SWAP4 SSTORE PUSH1 0x40 MLOAD SWAP2 AND SWAP2 SWAP1 DUP3 SWAP1 PUSH32 0x8BE0079C531659141344CD1FD0A4F28419497F9722A3DAAFE3B4186F6B6457E0 SWAP1 PUSH1 0x0 SWAP1 LOG3 POP POP JUMP JUMPDEST PUSH1 0x60 DUP2 PUSH2 0x3017 DUP2 PUSH1 0x1F PUSH2 0x5291 JUMP JUMPDEST LT ISZERO PUSH2 0x3056 JUMPI PUSH1 0x40 MLOAD PUSH3 0x461BCD PUSH1 0xE5 SHL DUP2 MSTORE PUSH1 0x20 PUSH1 0x4 DUP3 ADD MSTORE PUSH1 0xE PUSH1 0x24 DUP3 ADD MSTORE PUSH14 0x736C6963655F6F766572666C6F77 PUSH1 0x90 SHL PUSH1 0x44 DUP3 ADD MSTORE PUSH1 0x64 ADD PUSH2 0xC8B JUMP JUMPDEST PUSH2 0x3060 DUP3 DUP5 PUSH2 0x5291 JUMP JUMPDEST DUP5 MLOAD LT ISZERO PUSH2 0x30A4 JUMPI PUSH1 0x40 MLOAD PUSH3 0x461BCD PUSH1 0xE5 SHL DUP2 MSTORE PUSH1 0x20 PUSH1 0x4 DUP3 ADD MSTORE PUSH1 0x11 PUSH1 0x24 DUP3 ADD MSTORE PUSH17 0x736C6963655F6F75744F66426F756E6473 PUSH1 0x78 SHL PUSH1 0x44 DUP3 ADD MSTORE PUSH1 0x64 ADD PUSH2 0xC8B JUMP JUMPDEST PUSH1 0x60 DUP3 ISZERO DUP1 ISZERO PUSH2 0x30C3 JUMPI PUSH1 0x40 MLOAD SWAP2 POP PUSH1 0x0 DUP3 MSTORE PUSH1 0x20 DUP3 ADD PUSH1 0x40 MSTORE PUSH2 0x310D JUMP JUMPDEST PUSH1 0x40 MLOAD SWAP2 POP PUSH1 0x1F DUP5 AND DUP1 ISZERO PUSH1 0x20 MUL DUP2 DUP5 ADD ADD DUP6 DUP2 ADD DUP8 DUP4 ISZERO PUSH1 0x20 MUL DUP5 DUP12 ADD ADD ADD JUMPDEST DUP2 DUP4 LT ISZERO PUSH2 0x30FC JUMPI DUP1 MLOAD DUP4 MSTORE PUSH1 0x20 SWAP3 DUP4 ADD SWAP3 ADD PUSH2 0x30E4 JUMP JUMPDEST POP POP DUP6 DUP5 MSTORE PUSH1 0x1F ADD PUSH1 0x1F NOT AND PUSH1 0x40 MSTORE POP JUMPDEST POP SWAP5 SWAP4 POP POP POP POP JUMP JUMPDEST DUP2 PUSH1 0x1 PUSH1 0x1 PUSH1 0xA0 SHL SUB AND DUP4 PUSH1 0x1 PUSH1 0x1 PUSH1 0xA0 SHL SUB AND SUB PUSH2 0x3189 JUMPI PUSH1 0x40 MLOAD PUSH3 0x461BCD PUSH1 0xE5 SHL DUP2 MSTORE PUSH1 0x20 PUSH1 0x4 DUP3 ADD MSTORE PUSH1 0x29 PUSH1 0x24 DUP3 ADD MSTORE PUSH32 0x455243313135353A2073657474696E6720617070726F76616C20737461747573 PUSH1 0x44 DUP3 ADD MSTORE PUSH9 0x103337B91039B2B633 PUSH1 0xB9 SHL PUSH1 0x64 DUP3 ADD MSTORE PUSH1 0x84 ADD PUSH2 0xC8B JUMP JUMPDEST PUSH1 0x1 PUSH1 0x1 PUSH1 0xA0 SHL SUB DUP4 DUP2 AND PUSH1 0x0 DUP2 DUP2 MSTORE PUSH1 0xFC PUSH1 0x20 SWAP1 DUP2 MSTORE PUSH1 0x40 DUP1 DUP4 KECCAK256 SWAP5 DUP8 AND DUP1 DUP5 MSTORE SWAP5 DUP3 MSTORE SWAP2 DUP3 SWAP1 KECCAK256 DUP1 SLOAD PUSH1 0xFF NOT AND DUP7 ISZERO ISZERO SWAP1 DUP2 OR SWAP1 SWAP2 SSTORE SWAP2 MLOAD SWAP2 DUP3 MSTORE PUSH32 0x17307EAB39AB6107E8899845AD3D59BD9653F200F220920489CA2B5937696C31 SWAP2 ADD PUSH1 0x40 MLOAD DUP1 SWAP2 SUB SWAP1 LOG3 POP POP POP JUMP JUMPDEST PUSH1 0x0 DUP1 SLOAD PUSH2 0x100 SWAP1 DIV PUSH1 0xFF AND ISZERO PUSH2 0x323D JUMPI DUP2 PUSH1 0xFF AND PUSH1 0x1 EQ DUP1 ISZERO PUSH2 0x3219 JUMPI POP ADDRESS EXTCODESIZE ISZERO JUMPDEST PUSH2 0x3235 JUMPI PUSH1 0x40 MLOAD PUSH3 0x461BCD PUSH1 0xE5 SHL DUP2 MSTORE PUSH1 0x4 ADD PUSH2 0xC8B SWAP1 PUSH2 0x597F JUMP JUMPDEST POP PUSH1 0x0 SWAP2 SWAP1 POP JUMP JUMPDEST PUSH1 0x0 SLOAD PUSH1 0xFF DUP1 DUP5 AND SWAP2 AND LT PUSH2 0x3264 JUMPI PUSH1 0x40 MLOAD PUSH3 0x461BCD PUSH1 0xE5 SHL DUP2 MSTORE PUSH1 0x4 ADD PUSH2 0xC8B SWAP1 PUSH2 0x597F JUMP JUMPDEST POP PUSH1 0x0 DUP1 SLOAD PUSH1 0xFF NOT AND PUSH1 0xFF SWAP3 SWAP1 SWAP3 AND SWAP2 SWAP1 SWAP2 OR SWAP1 SSTORE PUSH1 0x1 SWAP1 JUMP JUMPDEST SWAP2 SWAP1 POP JUMP JUMPDEST PUSH1 0x0 SLOAD PUSH2 0x100 SWAP1 DIV PUSH1 0xFF AND PUSH2 0x32AA JUMPI PUSH1 0x40 MLOAD PUSH3 0x461BCD PUSH1 0xE5 SHL DUP2 MSTORE PUSH1 0x4 ADD PUSH2 0xC8B SWAP1 PUSH2 0x59CD JUMP JUMPDEST PUSH2 0x32B2 PUSH2 0x3E84 JUMP JUMPDEST PUSH2 0x32BB DUP3 PUSH2 0x3EBB JUMP JUMPDEST PUSH2 0x1BEF DUP2 PUSH2 0x3EE2 JUMP JUMPDEST PUSH1 0xFD PUSH2 0x1BEF DUP3 DUP3 PUSH2 0x5391 JUMP JUMPDEST PUSH1 0x1 PUSH1 0x1 PUSH1 0xA0 SHL SUB DUP5 AND PUSH2 0x32F6 JUMPI PUSH1 0x40 MLOAD PUSH3 0x461BCD PUSH1 0xE5 SHL DUP2 MSTORE PUSH1 0x4 ADD PUSH2 0xC8B SWAP1 PUSH2 0x573D JUMP JUMPDEST PUSH1 0x0 PUSH2 0x3300 PUSH2 0x2853 JUMP JUMPDEST SWAP1 POP PUSH1 0x0 PUSH2 0x330D DUP6 PUSH2 0x2E1F JUMP JUMPDEST SWAP1 POP PUSH1 0x0 PUSH2 0x331A DUP6 PUSH2 0x2E1F JUMP JUMPDEST SWAP1 POP PUSH2 0x332A DUP4 DUP10 DUP10 DUP6 DUP6 DUP10 PUSH2 0x3585 JUMP JUMPDEST PUSH1 0x0 DUP7 DUP2 MSTORE PUSH1 0xFB PUSH1 0x20 SWAP1 DUP2 MSTORE PUSH1 0x40 DUP1 DUP4 KECCAK256 PUSH1 0x1 PUSH1 0x1 PUSH1 0xA0 SHL SUB DUP13 AND DUP5 MSTORE SWAP1 SWAP2 MSTORE SWAP1 KECCAK256 SLOAD DUP6 DUP2 LT ISZERO PUSH2 0x336D JUMPI PUSH1 0x40 MLOAD PUSH3 0x461BCD PUSH1 0xE5 SHL DUP2 MSTORE PUSH1 0x4 ADD PUSH2 0xC8B SWAP1 PUSH2 0x5782 JUMP JUMPDEST PUSH1 0x0 DUP8 DUP2 MSTORE PUSH1 0xFB PUSH1 0x20 SWAP1 DUP2 MSTORE PUSH1 0x40 DUP1 DUP4 KECCAK256 PUSH1 0x1 PUSH1 0x1 PUSH1 0xA0 SHL SUB DUP14 DUP2 AND DUP6 MSTORE SWAP3 MSTORE DUP1 DUP4 KECCAK256 DUP10 DUP6 SUB SWAP1 SSTORE SWAP1 DUP11 AND DUP3 MSTORE DUP2 KECCAK256 DUP1 SLOAD DUP9 SWAP3 SWAP1 PUSH2 0x33AC SWAP1 DUP5 SWAP1 PUSH2 0x5291 JUMP JUMPDEST SWAP1 SWAP2 SSTORE POP POP PUSH1 0x40 DUP1 MLOAD DUP9 DUP2 MSTORE PUSH1 0x20 DUP2 ADD DUP9 SWAP1 MSTORE PUSH1 0x1 PUSH1 0x1 PUSH1 0xA0 SHL SUB DUP1 DUP12 AND SWAP3 DUP13 DUP3 AND SWAP3 SWAP2 DUP9 AND SWAP2 PUSH32 0xC3D58168C5AE7397731D063D5BBF3D657854427343F4C083240F7AACAA2D0F62 SWAP2 ADD PUSH1 0x40 MLOAD DUP1 SWAP2 SUB SWAP1 LOG4 PUSH2 0x208B DUP5 DUP11 DUP11 DUP11 DUP11 DUP11 PUSH2 0x3A80 JUMP JUMPDEST PUSH1 0x0 PUSH1 0x60 PUSH1 0x0 DUP1 PUSH1 0x0 DUP7 PUSH2 0xFFFF AND PUSH1 0x1 PUSH1 0x1 PUSH1 0x40 SHL SUB DUP2 GT ISZERO PUSH2 0x3431 JUMPI PUSH2 0x3431 PUSH2 0x46CE JUMP JUMPDEST PUSH1 0x40 MLOAD SWAP1 DUP1 DUP3 MSTORE DUP1 PUSH1 0x1F ADD PUSH1 0x1F NOT AND PUSH1 0x20 ADD DUP3 ADD PUSH1 0x40 MSTORE DUP1 ISZERO PUSH2 0x345B JUMPI PUSH1 0x20 DUP3 ADD DUP2 DUP1 CALLDATASIZE DUP4 CALLDATACOPY ADD SWAP1 POP JUMPDEST POP SWAP1 POP PUSH1 0x0 DUP1 DUP8 MLOAD PUSH1 0x20 DUP10 ADD PUSH1 0x0 DUP14 DUP14 CALL SWAP2 POP RETURNDATASIZE SWAP3 POP DUP7 DUP4 GT ISZERO PUSH2 0x347D JUMPI DUP7 SWAP3 POP JUMPDEST DUP3 DUP2 MSTORE DUP3 PUSH1 0x0 PUSH1 0x20 DUP4 ADD RETURNDATACOPY SWAP1 SWAP4 POP SWAP2 POP POP JUMPDEST SWAP5 POP SWAP5 SWAP3 POP POP POP JUMP JUMPDEST DUP2 DUP1 MLOAD SWAP1 PUSH1 0x20 ADD KECCAK256 PUSH1 0x97 PUSH1 0x0 DUP8 PUSH2 0xFFFF AND PUSH2 0xFFFF AND DUP2 MSTORE PUSH1 0x20 ADD SWAP1 DUP2 MSTORE PUSH1 0x20 ADD PUSH1 0x0 KECCAK256 DUP6 PUSH1 0x40 MLOAD PUSH2 0x34C9 SWAP2 SWAP1 PUSH2 0x5876 JUMP JUMPDEST SWAP1 DUP2 MSTORE PUSH1 0x40 DUP1 MLOAD SWAP2 DUP3 SWAP1 SUB PUSH1 0x20 SWAP1 DUP2 ADD DUP4 KECCAK256 PUSH1 0x1 PUSH1 0x1 PUSH1 0x40 SHL SUB DUP9 AND PUSH1 0x0 SWAP1 DUP2 MSTORE SWAP2 MSTORE KECCAK256 SWAP2 SWAP1 SWAP2 SSTORE PUSH32 0xE183F33DE2837795525B4792CA4CD60535BD77C53B7E7030060BFCF5734D6B0C SWAP1 PUSH2 0x3526 SWAP1 DUP8 SWAP1 DUP8 SWAP1 DUP8 SWAP1 DUP8 SWAP1 DUP8 SWAP1 PUSH2 0x5A18 JUMP JUMPDEST PUSH1 0x40 MLOAD DUP1 SWAP2 SUB SWAP1 LOG1 POP POP POP POP POP JUMP JUMPDEST PUSH1 0x0 PUSH1 0x1 PUSH1 0x1 PUSH1 0xE0 SHL SUB NOT DUP3 AND PUSH4 0x6CDB3D13 PUSH1 0xE1 SHL EQ DUP1 PUSH2 0x3566 JUMPI POP PUSH1 0x1 PUSH1 0x1 PUSH1 0xE0 SHL SUB NOT DUP3 AND PUSH4 0x3A24D07 PUSH1 0xE2 SHL EQ JUMPDEST DUP1 PUSH2 0xED9 JUMPI POP PUSH4 0x1FFC9A7 PUSH1 0xE0 SHL PUSH1 0x1 PUSH1 0x1 PUSH1 0xE0 SHL SUB NOT DUP4 AND EQ PUSH2 0xED9 JUMP JUMPDEST PUSH1 0x1 PUSH1 0x1 PUSH1 0xA0 SHL SUB DUP6 AND PUSH2 0x360D JUMPI PUSH1 0x0 JUMPDEST DUP4 MLOAD DUP2 LT ISZERO PUSH2 0x360B JUMPI DUP3 DUP2 DUP2 MLOAD DUP2 LT PUSH2 0x35B1 JUMPI PUSH2 0x35B1 PUSH2 0x5205 JUMP JUMPDEST PUSH1 0x20 MUL PUSH1 0x20 ADD ADD MLOAD PUSH2 0x12D PUSH1 0x0 DUP7 DUP5 DUP2 MLOAD DUP2 LT PUSH2 0x35D0 JUMPI PUSH2 0x35D0 PUSH2 0x5205 JUMP JUMPDEST PUSH1 0x20 MUL PUSH1 0x20 ADD ADD MLOAD DUP2 MSTORE PUSH1 0x20 ADD SWAP1 DUP2 MSTORE PUSH1 0x20 ADD PUSH1 0x0 KECCAK256 PUSH1 0x0 DUP3 DUP3 SLOAD PUSH2 0x35F5 SWAP2 SWAP1 PUSH2 0x5291 JUMP JUMPDEST SWAP1 SWAP2 SSTORE POP PUSH2 0x3604 SWAP1 POP DUP2 PUSH2 0x5231 JUMP JUMPDEST SWAP1 POP PUSH2 0x3596 JUMP JUMPDEST POP JUMPDEST PUSH1 0x1 PUSH1 0x1 PUSH1 0xA0 SHL SUB DUP5 AND PUSH2 0x18B7 JUMPI PUSH1 0x0 JUMPDEST DUP4 MLOAD DUP2 LT ISZERO PUSH2 0xE3F JUMPI PUSH1 0x0 DUP5 DUP3 DUP2 MLOAD DUP2 LT PUSH2 0x363B JUMPI PUSH2 0x363B PUSH2 0x5205 JUMP JUMPDEST PUSH1 0x20 MUL PUSH1 0x20 ADD ADD MLOAD SWAP1 POP PUSH1 0x0 DUP5 DUP4 DUP2 MLOAD DUP2 LT PUSH2 0x3659 JUMPI PUSH2 0x3659 PUSH2 0x5205 JUMP JUMPDEST PUSH1 0x20 MUL PUSH1 0x20 ADD ADD MLOAD SWAP1 POP PUSH1 0x0 PUSH2 0x12D PUSH1 0x0 DUP5 DUP2 MSTORE PUSH1 0x20 ADD SWAP1 DUP2 MSTORE PUSH1 0x20 ADD PUSH1 0x0 KECCAK256 SLOAD SWAP1 POP DUP2 DUP2 LT ISZERO PUSH2 0x36DD JUMPI PUSH1 0x40 MLOAD PUSH3 0x461BCD PUSH1 0xE5 SHL DUP2 MSTORE PUSH1 0x20 PUSH1 0x4 DUP3 ADD MSTORE PUSH1 0x28 PUSH1 0x24 DUP3 ADD MSTORE PUSH32 0x455243313135353A206275726E20616D6F756E74206578636565647320746F74 PUSH1 0x44 DUP3 ADD MSTORE PUSH8 0x616C537570706C79 PUSH1 0xC0 SHL PUSH1 0x64 DUP3 ADD MSTORE PUSH1 0x84 ADD PUSH2 0xC8B JUMP JUMPDEST PUSH1 0x0 SWAP3 DUP4 MSTORE PUSH2 0x12D PUSH1 0x20 MSTORE PUSH1 0x40 SWAP1 SWAP3 KECCAK256 SWAP2 SUB SWAP1 SSTORE PUSH2 0x36FA DUP2 PUSH2 0x5231 JUMP JUMPDEST SWAP1 POP PUSH2 0x361E JUMP JUMPDEST PUSH1 0x1 PUSH1 0x1 PUSH1 0xA0 SHL SUB DUP5 AND EXTCODESIZE ISZERO PUSH2 0x18B7 JUMPI PUSH1 0x40 MLOAD PUSH4 0xBC197C81 PUSH1 0xE0 SHL DUP2 MSTORE PUSH1 0x1 PUSH1 0x1 PUSH1 0xA0 SHL SUB DUP6 AND SWAP1 PUSH4 0xBC197C81 SWAP1 PUSH2 0x3745 SWAP1 DUP10 SWAP1 DUP10 SWAP1 DUP9 SWAP1 DUP9 SWAP1 DUP9 SWAP1 PUSH1 0x4 ADD PUSH2 0x5A6A JUMP JUMPDEST PUSH1 0x20 PUSH1 0x40 MLOAD DUP1 DUP4 SUB DUP2 PUSH1 0x0 DUP8 GAS CALL SWAP3 POP POP POP DUP1 ISZERO PUSH2 0x3780 JUMPI POP PUSH1 0x40 DUP1 MLOAD PUSH1 0x1F RETURNDATASIZE SWAP1 DUP2 ADD PUSH1 0x1F NOT AND DUP3 ADD SWAP1 SWAP3 MSTORE PUSH2 0x377D SWAP2 DUP2 ADD SWAP1 PUSH2 0x5AA8 JUMP JUMPDEST PUSH1 0x1 JUMPDEST PUSH2 0x382C JUMPI PUSH2 0x378C PUSH2 0x5AC5 JUMP JUMPDEST DUP1 PUSH4 0x8C379A0 SUB PUSH2 0x37C5 JUMPI POP PUSH2 0x37A0 PUSH2 0x5AE0 JUMP JUMPDEST DUP1 PUSH2 0x37AB JUMPI POP PUSH2 0x37C7 JUMP JUMPDEST DUP1 PUSH1 0x40 MLOAD PUSH3 0x461BCD PUSH1 0xE5 SHL DUP2 MSTORE PUSH1 0x4 ADD PUSH2 0xC8B SWAP2 SWAP1 PUSH2 0x466B JUMP JUMPDEST POP JUMPDEST PUSH1 0x40 MLOAD PUSH3 0x461BCD PUSH1 0xE5 SHL DUP2 MSTORE PUSH1 0x20 PUSH1 0x4 DUP3 ADD MSTORE PUSH1 0x34 PUSH1 0x24 DUP3 ADD MSTORE PUSH32 0x455243313135353A207472616E7366657220746F206E6F6E2045524331313535 PUSH1 0x44 DUP3 ADD MSTORE PUSH20 0x2932B1B2B4BB32B91034B6B83632B6B2B73A32B9 PUSH1 0x61 SHL PUSH1 0x64 DUP3 ADD MSTORE PUSH1 0x84 ADD PUSH2 0xC8B JUMP JUMPDEST PUSH1 0x1 PUSH1 0x1 PUSH1 0xE0 SHL SUB NOT DUP2 AND PUSH4 0xBC197C81 PUSH1 0xE0 SHL EQ PUSH2 0xE3F JUMPI PUSH1 0x40 MLOAD PUSH3 0x461BCD PUSH1 0xE5 SHL DUP2 MSTORE PUSH1 0x4 ADD PUSH2 0xC8B SWAP1 PUSH2 0x5B69 JUMP JUMPDEST PUSH1 0x0 DUP1 DUP3 MLOAD PUSH1 0x41 SUB PUSH2 0x3892 JUMPI PUSH1 0x20 DUP4 ADD MLOAD PUSH1 0x40 DUP5 ADD MLOAD PUSH1 0x60 DUP6 ADD MLOAD PUSH1 0x0 BYTE PUSH2 0x3886 DUP8 DUP3 DUP6 DUP6 PUSH2 0x3F2B JUMP JUMPDEST SWAP5 POP SWAP5 POP POP POP POP PUSH2 0x38C3 JUMP JUMPDEST DUP3 MLOAD PUSH1 0x40 SUB PUSH2 0x38BB JUMPI PUSH1 0x20 DUP4 ADD MLOAD PUSH1 0x40 DUP5 ADD MLOAD PUSH2 0x38B0 DUP7 DUP4 DUP4 PUSH2 0x4015 JUMP JUMPDEST SWAP4 POP SWAP4 POP POP POP PUSH2 0x38C3 JUMP JUMPDEST POP PUSH1 0x0 SWAP1 POP PUSH1 0x2 JUMPDEST SWAP3 POP SWAP3 SWAP1 POP JUMP JUMPDEST PUSH1 0x0 DUP2 PUSH1 0x4 DUP2 GT ISZERO PUSH2 0x38DE JUMPI PUSH2 0x38DE PUSH2 0x5BB1 JUMP JUMPDEST SUB PUSH2 0x38E6 JUMPI POP JUMP JUMPDEST PUSH1 0x1 DUP2 PUSH1 0x4 DUP2 GT ISZERO PUSH2 0x38FA JUMPI PUSH2 0x38FA PUSH2 0x5BB1 JUMP JUMPDEST SUB PUSH2 0x3947 JUMPI PUSH1 0x40 MLOAD PUSH3 0x461BCD PUSH1 0xE5 SHL DUP2 MSTORE PUSH1 0x20 PUSH1 0x4 DUP3 ADD MSTORE PUSH1 0x18 PUSH1 0x24 DUP3 ADD MSTORE PUSH32 0x45434453413A20696E76616C6964207369676E61747572650000000000000000 PUSH1 0x44 DUP3 ADD MSTORE PUSH1 0x64 ADD PUSH2 0xC8B JUMP JUMPDEST PUSH1 0x2 DUP2 PUSH1 0x4 DUP2 GT ISZERO PUSH2 0x395B JUMPI PUSH2 0x395B PUSH2 0x5BB1 JUMP JUMPDEST SUB PUSH2 0x39A8 JUMPI PUSH1 0x40 MLOAD PUSH3 0x461BCD PUSH1 0xE5 SHL DUP2 MSTORE PUSH1 0x20 PUSH1 0x4 DUP3 ADD MSTORE PUSH1 0x1F PUSH1 0x24 DUP3 ADD MSTORE PUSH32 0x45434453413A20696E76616C6964207369676E6174757265206C656E67746800 PUSH1 0x44 DUP3 ADD MSTORE PUSH1 0x64 ADD PUSH2 0xC8B JUMP JUMPDEST PUSH1 0x3 DUP2 PUSH1 0x4 DUP2 GT ISZERO PUSH2 0x39BC JUMPI PUSH2 0x39BC PUSH2 0x5BB1 JUMP JUMPDEST SUB PUSH2 0x3A14 JUMPI PUSH1 0x40 MLOAD PUSH3 0x461BCD PUSH1 0xE5 SHL DUP2 MSTORE PUSH1 0x20 PUSH1 0x4 DUP3 ADD MSTORE PUSH1 0x22 PUSH1 0x24 DUP3 ADD MSTORE PUSH32 0x45434453413A20696E76616C6964207369676E6174757265202773272076616C PUSH1 0x44 DUP3 ADD MSTORE PUSH2 0x7565 PUSH1 0xF0 SHL PUSH1 0x64 DUP3 ADD MSTORE PUSH1 0x84 ADD PUSH2 0xC8B JUMP JUMPDEST PUSH1 0x4 DUP2 PUSH1 0x4 DUP2 GT ISZERO PUSH2 0x3A28 JUMPI PUSH2 0x3A28 PUSH2 0x5BB1 JUMP JUMPDEST SUB PUSH2 0x2547 JUMPI PUSH1 0x40 MLOAD PUSH3 0x461BCD PUSH1 0xE5 SHL DUP2 MSTORE PUSH1 0x20 PUSH1 0x4 DUP3 ADD MSTORE PUSH1 0x22 PUSH1 0x24 DUP3 ADD MSTORE PUSH32 0x45434453413A20696E76616C6964207369676E6174757265202776272076616C PUSH1 0x44 DUP3 ADD MSTORE PUSH2 0x7565 PUSH1 0xF0 SHL PUSH1 0x64 DUP3 ADD MSTORE PUSH1 0x84 ADD PUSH2 0xC8B JUMP JUMPDEST PUSH1 0x1 PUSH1 0x1 PUSH1 0xA0 SHL SUB DUP5 AND EXTCODESIZE ISZERO PUSH2 0x18B7 JUMPI PUSH1 0x40 MLOAD PUSH4 0xF23A6E61 PUSH1 0xE0 SHL DUP2 MSTORE PUSH1 0x1 PUSH1 0x1 PUSH1 0xA0 SHL SUB DUP6 AND SWAP1 PUSH4 0xF23A6E61 SWAP1 PUSH2 0x3AC4 SWAP1 DUP10 SWAP1 DUP10 SWAP1 DUP9 SWAP1 DUP9 SWAP1 DUP9 SWAP1 PUSH1 0x4 ADD PUSH2 0x5BC7 JUMP JUMPDEST PUSH1 0x20 PUSH1 0x40 MLOAD DUP1 DUP4 SUB DUP2 PUSH1 0x0 DUP8 GAS CALL SWAP3 POP POP POP DUP1 ISZERO PUSH2 0x3AFF JUMPI POP PUSH1 0x40 DUP1 MLOAD PUSH1 0x1F RETURNDATASIZE SWAP1 DUP2 ADD PUSH1 0x1F NOT AND DUP3 ADD SWAP1 SWAP3 MSTORE PUSH2 0x3AFC SWAP2 DUP2 ADD SWAP1 PUSH2 0x5AA8 JUMP JUMPDEST PUSH1 0x1 JUMPDEST PUSH2 0x3B0B JUMPI PUSH2 0x378C PUSH2 0x5AC5 JUMP JUMPDEST PUSH1 0x1 PUSH1 0x1 PUSH1 0xE0 SHL SUB NOT DUP2 AND PUSH4 0xF23A6E61 PUSH1 0xE0 SHL EQ PUSH2 0xE3F JUMPI PUSH1 0x40 MLOAD PUSH3 0x461BCD PUSH1 0xE5 SHL DUP2 MSTORE PUSH1 0x4 ADD PUSH2 0xC8B SWAP1 PUSH2 0x5B69 JUMP JUMPDEST PUSH1 0x0 PUSH2 0x3B45 PUSH2 0x2853 JUMP JUMPDEST SWAP1 POP DUP6 PUSH1 0x1 PUSH1 0x1 PUSH1 0xA0 SHL SUB AND DUP2 PUSH1 0x1 PUSH1 0x1 PUSH1 0xA0 SHL SUB AND EQ DUP1 PUSH2 0x3B8C JUMPI POP PUSH1 0x1 PUSH1 0x1 PUSH1 0xA0 SHL SUB DUP1 DUP8 AND PUSH1 0x0 SWAP1 DUP2 MSTORE PUSH1 0xFC PUSH1 0x20 SWAP1 DUP2 MSTORE PUSH1 0x40 DUP1 DUP4 KECCAK256 SWAP4 DUP6 AND DUP4 MSTORE SWAP3 SWAP1 MSTORE KECCAK256 SLOAD PUSH1 0xFF AND JUMPDEST PUSH2 0x3BF0 JUMPI PUSH1 0x40 MLOAD PUSH3 0x461BCD PUSH1 0xE5 SHL DUP2 MSTORE PUSH1 0x20 PUSH1 0x4 DUP3 ADD MSTORE PUSH1 0x2F PUSH1 0x24 DUP3 ADD MSTORE PUSH32 0x4F455243313135353A2073656E642063616C6C6572206973206E6F74206F776E PUSH1 0x44 DUP3 ADD MSTORE PUSH15 0x195C881B9BDC88185C1C1C9BDD9959 PUSH1 0x8A SHL PUSH1 0x64 DUP3 ADD MSTORE PUSH1 0x84 ADD PUSH2 0xC8B JUMP JUMPDEST PUSH2 0x18B7 DUP7 DUP5 DUP5 PUSH2 0x404E JUMP JUMPDEST PUSH1 0x0 PUSH2 0x3C06 DUP4 PUSH2 0x426C JUMP JUMPDEST PUSH2 0xFFFF DUP1 DUP8 AND PUSH1 0x0 SWAP1 DUP2 MSTORE PUSH1 0x67 PUSH1 0x20 SWAP1 DUP2 MSTORE PUSH1 0x40 DUP1 DUP4 KECCAK256 SWAP4 DUP10 AND DUP4 MSTORE SWAP3 SWAP1 MSTORE SWAP1 DUP2 KECCAK256 SLOAD SWAP2 SWAP3 POP SWAP1 PUSH2 0x3C38 SWAP1 DUP5 SWAP1 PUSH2 0x5291 JUMP JUMPDEST SWAP1 POP PUSH1 0x0 DUP2 GT PUSH2 0x3C8A JUMPI PUSH1 0x40 MLOAD PUSH3 0x461BCD PUSH1 0xE5 SHL DUP2 MSTORE PUSH1 0x20 PUSH1 0x4 DUP3 ADD MSTORE PUSH1 0x1A PUSH1 0x24 DUP3 ADD MSTORE PUSH32 0x4C7A4170703A206D696E4761734C696D6974206E6F7420736574000000000000 PUSH1 0x44 DUP3 ADD MSTORE PUSH1 0x64 ADD PUSH2 0xC8B JUMP JUMPDEST DUP1 DUP3 LT ISZERO PUSH2 0x18B7 JUMPI PUSH1 0x40 MLOAD PUSH3 0x461BCD PUSH1 0xE5 SHL DUP2 MSTORE PUSH1 0x20 PUSH1 0x4 DUP3 ADD MSTORE PUSH1 0x1B PUSH1 0x24 DUP3 ADD MSTORE PUSH32 0x4C7A4170703A20676173206C696D697420697320746F6F206C6F770000000000 PUSH1 0x44 DUP3 ADD MSTORE PUSH1 0x64 ADD PUSH2 0xC8B JUMP JUMPDEST PUSH2 0xFFFF DUP7 AND PUSH1 0x0 SWAP1 DUP2 MSTORE PUSH1 0x66 PUSH1 0x20 MSTORE PUSH1 0x40 DUP2 KECCAK256 DUP1 SLOAD PUSH2 0x3CF8 SWAP1 PUSH2 0x5186 JUMP JUMPDEST DUP1 PUSH1 0x1F ADD PUSH1 0x20 DUP1 SWAP2 DIV MUL PUSH1 0x20 ADD PUSH1 0x40 MLOAD SWAP1 DUP2 ADD PUSH1 0x40 MSTORE DUP1 SWAP3 SWAP2 SWAP1 DUP2 DUP2 MSTORE PUSH1 0x20 ADD DUP3 DUP1 SLOAD PUSH2 0x3D24 SWAP1 PUSH2 0x5186 JUMP JUMPDEST DUP1 ISZERO PUSH2 0x3D71 JUMPI DUP1 PUSH1 0x1F LT PUSH2 0x3D46 JUMPI PUSH2 0x100 DUP1 DUP4 SLOAD DIV MUL DUP4 MSTORE SWAP2 PUSH1 0x20 ADD SWAP2 PUSH2 0x3D71 JUMP JUMPDEST DUP3 ADD SWAP2 SWAP1 PUSH1 0x0 MSTORE PUSH1 0x20 PUSH1 0x0 KECCAK256 SWAP1 JUMPDEST DUP2 SLOAD DUP2 MSTORE SWAP1 PUSH1 0x1 ADD SWAP1 PUSH1 0x20 ADD DUP1 DUP4 GT PUSH2 0x3D54 JUMPI DUP3 SWAP1 SUB PUSH1 0x1F AND DUP3 ADD SWAP2 JUMPDEST POP POP POP POP POP SWAP1 POP DUP1 MLOAD PUSH1 0x0 SUB PUSH2 0x3DE2 JUMPI PUSH1 0x40 MLOAD PUSH3 0x461BCD PUSH1 0xE5 SHL DUP2 MSTORE PUSH1 0x20 PUSH1 0x4 DUP3 ADD MSTORE PUSH1 0x30 PUSH1 0x24 DUP3 ADD MSTORE PUSH32 0x4C7A4170703A2064657374696E6174696F6E20636861696E206973206E6F7420 PUSH1 0x44 DUP3 ADD MSTORE PUSH16 0x61207472757374656420736F75726365 PUSH1 0x80 SHL PUSH1 0x64 DUP3 ADD MSTORE PUSH1 0x84 ADD PUSH2 0xC8B JUMP JUMPDEST PUSH2 0x3DED DUP8 DUP8 MLOAD PUSH2 0x42C8 JUMP JUMPDEST PUSH1 0x65 SLOAD PUSH1 0x40 MLOAD PUSH3 0xC58031 PUSH1 0xE8 SHL DUP2 MSTORE PUSH1 0x1 PUSH1 0x1 PUSH1 0xA0 SHL SUB SWAP1 SWAP2 AND SWAP1 PUSH4 0xC5803100 SWAP1 DUP5 SWAP1 PUSH2 0x3E28 SWAP1 DUP12 SWAP1 DUP7 SWAP1 DUP13 SWAP1 DUP13 SWAP1 DUP13 SWAP1 DUP13 SWAP1 PUSH1 0x4 ADD PUSH2 0x5C01 JUMP JUMPDEST PUSH1 0x0 PUSH1 0x40 MLOAD DUP1 DUP4 SUB DUP2 DUP6 DUP9 DUP1 EXTCODESIZE ISZERO DUP1 ISZERO PUSH2 0x3E41 JUMPI PUSH1 0x0 DUP1 REVERT JUMPDEST POP GAS CALL ISZERO DUP1 ISZERO PUSH2 0x3E55 JUMPI RETURNDATASIZE PUSH1 0x0 DUP1 RETURNDATACOPY RETURNDATASIZE PUSH1 0x0 REVERT JUMPDEST POP POP POP POP POP POP POP POP POP POP POP POP JUMP JUMPDEST PUSH2 0x3E7E DUP4 DUP4 DUP4 PUSH1 0x40 MLOAD DUP1 PUSH1 0x20 ADD PUSH1 0x40 MSTORE DUP1 PUSH1 0x0 DUP2 MSTORE POP PUSH2 0x4339 JUMP JUMPDEST POP POP POP POP JUMP JUMPDEST PUSH1 0x0 SLOAD PUSH2 0x100 SWAP1 DIV PUSH1 0xFF AND PUSH2 0x3EAB JUMPI PUSH1 0x40 MLOAD PUSH3 0x461BCD PUSH1 0xE5 SHL DUP2 MSTORE PUSH1 0x4 ADD PUSH2 0xC8B SWAP1 PUSH2 0x59CD JUMP JUMPDEST PUSH2 0x1980 PUSH2 0x3EB6 PUSH2 0x2853 JUMP JUMPDEST PUSH2 0x2FB7 JUMP JUMPDEST PUSH1 0x0 SLOAD PUSH2 0x100 SWAP1 DIV PUSH1 0xFF AND PUSH2 0x253E JUMPI PUSH1 0x40 MLOAD PUSH3 0x461BCD PUSH1 0xE5 SHL DUP2 MSTORE PUSH1 0x4 ADD PUSH2 0xC8B SWAP1 PUSH2 0x59CD JUMP JUMPDEST PUSH1 0x0 SLOAD PUSH2 0x100 SWAP1 DIV PUSH1 0xFF AND PUSH2 0x3F09 JUMPI PUSH1 0x40 MLOAD PUSH3 0x461BCD PUSH1 0xE5 SHL DUP2 MSTORE PUSH1 0x4 ADD PUSH2 0xC8B SWAP1 PUSH2 0x59CD JUMP JUMPDEST PUSH1 0x65 DUP1 SLOAD PUSH1 0x1 PUSH1 0x1 PUSH1 0xA0 SHL SUB NOT AND PUSH1 0x1 PUSH1 0x1 PUSH1 0xA0 SHL SUB SWAP3 SWAP1 SWAP3 AND SWAP2 SWAP1 SWAP2 OR SWAP1 SSTORE JUMP JUMPDEST PUSH1 0x0 DUP1 PUSH32 0x7FFFFFFFFFFFFFFFFFFFFFFFFFFFFFFF5D576E7357A4501DDFE92F46681B20A0 DUP4 GT ISZERO PUSH2 0x3F62 JUMPI POP PUSH1 0x0 SWAP1 POP PUSH1 0x3 PUSH2 0x348F JUMP JUMPDEST DUP5 PUSH1 0xFF AND PUSH1 0x1B EQ ISZERO DUP1 ISZERO PUSH2 0x3F7A JUMPI POP DUP5 PUSH1 0xFF AND PUSH1 0x1C EQ ISZERO JUMPDEST ISZERO PUSH2 0x3F8B JUMPI POP PUSH1 0x0 SWAP1 POP PUSH1 0x4 PUSH2 0x348F JUMP JUMPDEST PUSH1 0x40 DUP1 MLOAD PUSH1 0x0 DUP1 DUP3 MSTORE PUSH1 0x20 DUP3 ADD DUP1 DUP5 MSTORE DUP10 SWAP1 MSTORE PUSH1 0xFF DUP9 AND SWAP3 DUP3 ADD SWAP3 SWAP1 SWAP3 MSTORE PUSH1 0x60 DUP2 ADD DUP7 SWAP1 MSTORE PUSH1 0x80 DUP2 ADD DUP6 SWAP1 MSTORE PUSH1 0x1 SWAP1 PUSH1 0xA0 ADD PUSH1 0x20 PUSH1 0x40 MLOAD PUSH1 0x20 DUP2 SUB SWAP1 DUP1 DUP5 SUB SWAP1 DUP6 GAS STATICCALL ISZERO DUP1 ISZERO PUSH2 0x3FDF JUMPI RETURNDATASIZE PUSH1 0x0 DUP1 RETURNDATACOPY RETURNDATASIZE PUSH1 0x0 REVERT JUMPDEST POP POP PUSH1 0x40 MLOAD PUSH1 0x1F NOT ADD MLOAD SWAP2 POP POP PUSH1 0x1 PUSH1 0x1 PUSH1 0xA0 SHL SUB DUP2 AND PUSH2 0x4008 JUMPI PUSH1 0x0 PUSH1 0x1 SWAP3 POP SWAP3 POP POP PUSH2 0x348F JUMP JUMPDEST SWAP7 PUSH1 0x0 SWAP7 POP SWAP5 POP POP POP POP POP JUMP JUMPDEST PUSH1 0x0 DUP1 PUSH1 0x1 PUSH1 0x1 PUSH1 0xFF SHL SUB DUP4 AND DUP2 PUSH2 0x4032 PUSH1 0xFF DUP7 SWAP1 SHR PUSH1 0x1B PUSH2 0x5291 JUMP JUMPDEST SWAP1 POP PUSH2 0x4040 DUP8 DUP3 DUP9 DUP6 PUSH2 0x3F2B JUMP JUMPDEST SWAP4 POP SWAP4 POP POP POP SWAP4 POP SWAP4 SWAP2 POP POP JUMP JUMPDEST PUSH1 0x1 PUSH1 0x1 PUSH1 0xA0 SHL SUB DUP4 AND PUSH2 0x40B0 JUMPI PUSH1 0x40 MLOAD PUSH3 0x461BCD PUSH1 0xE5 SHL DUP2 MSTORE PUSH1 0x20 PUSH1 0x4 DUP3 ADD MSTORE PUSH1 0x23 PUSH1 0x24 DUP3 ADD MSTORE PUSH32 0x455243313135353A206275726E2066726F6D20746865207A65726F2061646472 PUSH1 0x44 DUP3 ADD MSTORE PUSH3 0x657373 PUSH1 0xE8 SHL PUSH1 0x64 DUP3 ADD MSTORE PUSH1 0x84 ADD PUSH2 0xC8B JUMP JUMPDEST DUP1 MLOAD DUP3 MLOAD EQ PUSH2 0x40D1 JUMPI PUSH1 0x40 MLOAD PUSH3 0x461BCD PUSH1 0xE5 SHL DUP2 MSTORE PUSH1 0x4 ADD PUSH2 0xC8B SWAP1 PUSH2 0x56F5 JUMP JUMPDEST PUSH1 0x0 PUSH2 0x40DB PUSH2 0x2853 JUMP JUMPDEST SWAP1 POP PUSH2 0x40FB DUP2 DUP6 PUSH1 0x0 DUP7 DUP7 PUSH1 0x40 MLOAD DUP1 PUSH1 0x20 ADD PUSH1 0x40 MSTORE DUP1 PUSH1 0x0 DUP2 MSTORE POP PUSH2 0x3585 JUMP JUMPDEST PUSH1 0x0 JUMPDEST DUP4 MLOAD DUP2 LT ISZERO PUSH2 0x41FF JUMPI PUSH1 0x0 DUP5 DUP3 DUP2 MLOAD DUP2 LT PUSH2 0x411B JUMPI PUSH2 0x411B PUSH2 0x5205 JUMP JUMPDEST PUSH1 0x20 MUL PUSH1 0x20 ADD ADD MLOAD SWAP1 POP PUSH1 0x0 DUP5 DUP4 DUP2 MLOAD DUP2 LT PUSH2 0x4139 JUMPI PUSH2 0x4139 PUSH2 0x5205 JUMP JUMPDEST PUSH1 0x20 SWAP1 DUP2 MUL SWAP2 SWAP1 SWAP2 ADD DUP2 ADD MLOAD PUSH1 0x0 DUP5 DUP2 MSTORE PUSH1 0xFB DUP4 MSTORE PUSH1 0x40 DUP1 DUP3 KECCAK256 PUSH1 0x1 PUSH1 0x1 PUSH1 0xA0 SHL SUB DUP13 AND DUP4 MSTORE SWAP1 SWAP4 MSTORE SWAP2 SWAP1 SWAP2 KECCAK256 SLOAD SWAP1 SWAP2 POP DUP2 DUP2 LT ISZERO PUSH2 0x41C6 JUMPI PUSH1 0x40 MLOAD PUSH3 0x461BCD PUSH1 0xE5 SHL DUP2 MSTORE PUSH1 0x20 PUSH1 0x4 DUP3 ADD MSTORE PUSH1 0x24 DUP1 DUP3 ADD MSTORE PUSH32 0x455243313135353A206275726E20616D6F756E7420657863656564732062616C PUSH1 0x44 DUP3 ADD MSTORE PUSH4 0x616E6365 PUSH1 0xE0 SHL PUSH1 0x64 DUP3 ADD MSTORE PUSH1 0x84 ADD PUSH2 0xC8B JUMP JUMPDEST PUSH1 0x0 SWAP3 DUP4 MSTORE PUSH1 0xFB PUSH1 0x20 SWAP1 DUP2 MSTORE PUSH1 0x40 DUP1 DUP6 KECCAK256 PUSH1 0x1 PUSH1 0x1 PUSH1 0xA0 SHL SUB DUP12 AND DUP7 MSTORE SWAP1 SWAP2 MSTORE SWAP1 SWAP3 KECCAK256 SWAP2 SUB SWAP1 SSTORE DUP1 PUSH2 0x41F7 DUP2 PUSH2 0x5231 JUMP JUMPDEST SWAP2 POP POP PUSH2 0x40FE JUMP JUMPDEST POP PUSH1 0x0 PUSH1 0x1 PUSH1 0x1 PUSH1 0xA0 SHL SUB AND DUP5 PUSH1 0x1 PUSH1 0x1 PUSH1 0xA0 SHL SUB AND DUP3 PUSH1 0x1 PUSH1 0x1 PUSH1 0xA0 SHL SUB AND PUSH32 0x4A39DC06D4C0DBC64B70AF90FD698A233A518AA5D07E595D983B8C0526C8F7FB DUP7 DUP7 PUSH1 0x40 MLOAD PUSH2 0x4250 SWAP3 SWAP2 SWAP1 PUSH2 0x57CC JUMP JUMPDEST PUSH1 0x40 MLOAD DUP1 SWAP2 SUB SWAP1 LOG4 PUSH1 0x40 DUP1 MLOAD PUSH1 0x20 DUP2 ADD SWAP1 SWAP2 MSTORE PUSH1 0x0 SWAP1 MSTORE PUSH2 0x3E7E JUMP JUMPDEST PUSH1 0x0 PUSH1 0x22 DUP3 MLOAD LT ISZERO PUSH2 0x42C0 JUMPI PUSH1 0x40 MLOAD PUSH3 0x461BCD PUSH1 0xE5 SHL DUP2 MSTORE PUSH1 0x20 PUSH1 0x4 DUP3 ADD MSTORE PUSH1 0x1C PUSH1 0x24 DUP3 ADD MSTORE PUSH32 0x4C7A4170703A20696E76616C69642061646170746572506172616D7300000000 PUSH1 0x44 DUP3 ADD MSTORE PUSH1 0x64 ADD PUSH2 0xC8B JUMP JUMPDEST POP PUSH1 0x22 ADD MLOAD SWAP1 JUMP JUMPDEST PUSH2 0xFFFF DUP3 AND PUSH1 0x0 SWAP1 DUP2 MSTORE PUSH1 0x68 PUSH1 0x20 MSTORE PUSH1 0x40 DUP2 KECCAK256 SLOAD SWAP1 DUP2 SWAP1 SUB PUSH2 0x42E9 JUMPI POP PUSH2 0x2710 JUMPDEST DUP1 DUP3 GT ISZERO PUSH2 0x1261 JUMPI PUSH1 0x40 MLOAD PUSH3 0x461BCD PUSH1 0xE5 SHL DUP2 MSTORE PUSH1 0x20 PUSH1 0x4 DUP3 ADD DUP2 SWAP1 MSTORE PUSH1 0x24 DUP3 ADD MSTORE PUSH32 0x4C7A4170703A207061796C6F61642073697A6520697320746F6F206C61726765 PUSH1 0x44 DUP3 ADD MSTORE PUSH1 0x64 ADD PUSH2 0xC8B JUMP JUMPDEST PUSH1 0x1 PUSH1 0x1 PUSH1 0xA0 SHL SUB DUP5 AND PUSH2 0x435F JUMPI PUSH1 0x40 MLOAD PUSH3 0x461BCD PUSH1 0xE5 SHL DUP2 MSTORE PUSH1 0x4 ADD PUSH2 0xC8B SWAP1 PUSH2 0x57F1 JUMP JUMPDEST DUP2 MLOAD DUP4 MLOAD EQ PUSH2 0x4380 JUMPI PUSH1 0x40 MLOAD PUSH3 0x461BCD PUSH1 0xE5 SHL DUP2 MSTORE PUSH1 0x4 ADD PUSH2 0xC8B SWAP1 PUSH2 0x56F5 JUMP JUMPDEST PUSH1 0x0 PUSH2 0x438A PUSH2 0x2853 JUMP JUMPDEST SWAP1 POP PUSH2 0x439B DUP2 PUSH1 0x0 DUP8 DUP8 DUP8 DUP8 PUSH2 0x3585 JUMP JUMPDEST PUSH1 0x0 JUMPDEST DUP5 MLOAD DUP2 LT ISZERO PUSH2 0x4437 JUMPI DUP4 DUP2 DUP2 MLOAD DUP2 LT PUSH2 0x43B9 JUMPI PUSH2 0x43B9 PUSH2 0x5205 JUMP JUMPDEST PUSH1 0x20 MUL PUSH1 0x20 ADD ADD MLOAD PUSH1 0xFB PUSH1 0x0 DUP8 DUP5 DUP2 MLOAD DUP2 LT PUSH2 0x43D7 JUMPI PUSH2 0x43D7 PUSH2 0x5205 JUMP JUMPDEST PUSH1 0x20 MUL PUSH1 0x20 ADD ADD MLOAD DUP2 MSTORE PUSH1 0x20 ADD SWAP1 DUP2 MSTORE PUSH1 0x20 ADD PUSH1 0x0 KECCAK256 PUSH1 0x0 DUP9 PUSH1 0x1 PUSH1 0x1 PUSH1 0xA0 SHL SUB AND PUSH1 0x1 PUSH1 0x1 PUSH1 0xA0 SHL SUB AND DUP2 MSTORE PUSH1 0x20 ADD SWAP1 DUP2 MSTORE PUSH1 0x20 ADD PUSH1 0x0 KECCAK256 PUSH1 0x0 DUP3 DUP3 SLOAD PUSH2 0x441F SWAP2 SWAP1 PUSH2 0x5291 JUMP JUMPDEST SWAP1 SWAP2 SSTORE POP DUP2 SWAP1 POP PUSH2 0x442F DUP2 PUSH2 0x5231 JUMP JUMPDEST SWAP2 POP POP PUSH2 0x439E JUMP JUMPDEST POP DUP5 PUSH1 0x1 PUSH1 0x1 PUSH1 0xA0 SHL SUB AND PUSH1 0x0 PUSH1 0x1 PUSH1 0x1 PUSH1 0xA0 SHL SUB AND DUP3 PUSH1 0x1 PUSH1 0x1 PUSH1 0xA0 SHL SUB AND PUSH32 0x4A39DC06D4C0DBC64B70AF90FD698A233A518AA5D07E595D983B8C0526C8F7FB DUP8 DUP8 PUSH1 0x40 MLOAD PUSH2 0x4488 SWAP3 SWAP2 SWAP1 PUSH2 0x57CC JUMP JUMPDEST PUSH1 0x40 MLOAD DUP1 SWAP2 SUB SWAP1 LOG4 PUSH2 0x1036 DUP2 PUSH1 0x0 DUP8 DUP8 DUP8 DUP8 PUSH2 0x3701 JUMP JUMPDEST DUP1 CALLDATALOAD PUSH2 0xFFFF DUP2 AND DUP2 EQ PUSH2 0x327E JUMPI PUSH1 0x0 DUP1 REVERT JUMPDEST PUSH1 0x0 DUP1 DUP4 PUSH1 0x1F DUP5 ADD SLT PUSH2 0x44C3 JUMPI PUSH1 0x0 DUP1 REVERT JUMPDEST POP DUP2 CALLDATALOAD PUSH1 0x1 PUSH1 0x1 PUSH1 0x40 SHL SUB DUP2 GT ISZERO PUSH2 0x44DA JUMPI PUSH1 0x0 DUP1 REVERT JUMPDEST PUSH1 0x20 DUP4 ADD SWAP2 POP DUP4 PUSH1 0x20 DUP3 DUP6 ADD ADD GT ISZERO PUSH2 0x38C3 JUMPI PUSH1 0x0 DUP1 REVERT JUMPDEST DUP1 CALLDATALOAD PUSH1 0x1 PUSH1 0x1 PUSH1 0x40 SHL SUB DUP2 AND DUP2 EQ PUSH2 0x327E JUMPI PUSH1 0x0 DUP1 REVERT JUMPDEST PUSH1 0x0 DUP1 PUSH1 0x0 DUP1 PUSH1 0x0 DUP1 PUSH1 0x80 DUP8 DUP10 SUB SLT ISZERO PUSH2 0x4522 JUMPI PUSH1 0x0 DUP1 REVERT JUMPDEST PUSH2 0x452B DUP8 PUSH2 0x449F JUMP JUMPDEST SWAP6 POP PUSH1 0x20 DUP8 ADD CALLDATALOAD PUSH1 0x1 PUSH1 0x1 PUSH1 0x40 SHL SUB DUP1 DUP3 GT ISZERO PUSH2 0x4547 JUMPI PUSH1 0x0 DUP1 REVERT JUMPDEST PUSH2 0x4553 DUP11 DUP4 DUP12 ADD PUSH2 0x44B1 JUMP JUMPDEST SWAP1 SWAP8 POP SWAP6 POP DUP6 SWAP2 POP PUSH2 0x4567 PUSH1 0x40 DUP11 ADD PUSH2 0x44F2 JUMP JUMPDEST SWAP5 POP PUSH1 0x60 DUP10 ADD CALLDATALOAD SWAP2 POP DUP1 DUP3 GT ISZERO PUSH2 0x457D JUMPI PUSH1 0x0 DUP1 REVERT JUMPDEST POP PUSH2 0x458A DUP10 DUP3 DUP11 ADD PUSH2 0x44B1 JUMP JUMPDEST SWAP8 SWAP11 SWAP7 SWAP10 POP SWAP5 SWAP8 POP SWAP3 SWAP6 SWAP4 SWAP5 SWAP3 POP POP POP JUMP JUMPDEST PUSH1 0x1 PUSH1 0x1 PUSH1 0xA0 SHL SUB DUP2 AND DUP2 EQ PUSH2 0x2547 JUMPI PUSH1 0x0 DUP1 REVERT JUMPDEST DUP1 CALLDATALOAD PUSH2 0x327E DUP2 PUSH2 0x459C JUMP JUMPDEST PUSH1 0x0 DUP1 PUSH1 0x40 DUP4 DUP6 SUB SLT ISZERO PUSH2 0x45CF JUMPI PUSH1 0x0 DUP1 REVERT JUMPDEST DUP3 CALLDATALOAD PUSH2 0x45DA DUP2 PUSH2 0x459C JUMP JUMPDEST SWAP5 PUSH1 0x20 SWAP4 SWAP1 SWAP4 ADD CALLDATALOAD SWAP4 POP POP POP JUMP JUMPDEST PUSH1 0x1 PUSH1 0x1 PUSH1 0xE0 SHL SUB NOT DUP2 AND DUP2 EQ PUSH2 0x2547 JUMPI PUSH1 0x0 DUP1 REVERT JUMPDEST PUSH1 0x0 PUSH1 0x20 DUP3 DUP5 SUB SLT ISZERO PUSH2 0x4610 JUMPI PUSH1 0x0 DUP1 REVERT JUMPDEST DUP2 CALLDATALOAD PUSH2 0x1BD6 DUP2 PUSH2 0x45E8 JUMP JUMPDEST PUSH1 0x0 JUMPDEST DUP4 DUP2 LT ISZERO PUSH2 0x4636 JUMPI DUP2 DUP2 ADD MLOAD DUP4 DUP3 ADD MSTORE PUSH1 0x20 ADD PUSH2 0x461E JUMP JUMPDEST POP POP PUSH1 0x0 SWAP2 ADD MSTORE JUMP JUMPDEST PUSH1 0x0 DUP2 MLOAD DUP1 DUP5 MSTORE PUSH2 0x4657 DUP2 PUSH1 0x20 DUP7 ADD PUSH1 0x20 DUP7 ADD PUSH2 0x461B JUMP JUMPDEST PUSH1 0x1F ADD PUSH1 0x1F NOT AND SWAP3 SWAP1 SWAP3 ADD PUSH1 0x20 ADD SWAP3 SWAP2 POP POP JUMP JUMPDEST PUSH1 0x20 DUP2 MSTORE PUSH1 0x0 PUSH2 0x1BD6 PUSH1 0x20 DUP4 ADD DUP5 PUSH2 0x463F JUMP JUMPDEST PUSH1 0x0 PUSH1 0x20 DUP3 DUP5 SUB SLT ISZERO PUSH2 0x4690 JUMPI PUSH1 0x0 DUP1 REVERT JUMPDEST PUSH2 0x1BD6 DUP3 PUSH2 0x449F JUMP JUMPDEST PUSH1 0x0 DUP1 PUSH1 0x40 DUP4 DUP6 SUB SLT ISZERO PUSH2 0x46AC JUMPI PUSH1 0x0 DUP1 REVERT JUMPDEST PUSH2 0x45DA DUP4 PUSH2 0x449F JUMP JUMPDEST PUSH1 0x0 PUSH1 0x20 DUP3 DUP5 SUB SLT ISZERO PUSH2 0x46C7 JUMPI PUSH1 0x0 DUP1 REVERT JUMPDEST POP CALLDATALOAD SWAP2 SWAP1 POP JUMP JUMPDEST PUSH4 0x4E487B71 PUSH1 0xE0 SHL PUSH1 0x0 MSTORE PUSH1 0x41 PUSH1 0x4 MSTORE PUSH1 0x24 PUSH1 0x0 REVERT JUMPDEST PUSH1 0x1F DUP3 ADD PUSH1 0x1F NOT AND DUP2 ADD PUSH1 0x1 PUSH1 0x1 PUSH1 0x40 SHL SUB DUP2 GT DUP3 DUP3 LT OR ISZERO PUSH2 0x4709 JUMPI PUSH2 0x4709 PUSH2 0x46CE JUMP JUMPDEST PUSH1 0x40 MSTORE POP POP JUMP JUMPDEST PUSH1 0x0 PUSH1 0x1 PUSH1 0x1 PUSH1 0x40 SHL SUB DUP3 GT ISZERO PUSH2 0x4729 JUMPI PUSH2 0x4729 PUSH2 0x46CE JUMP JUMPDEST POP PUSH1 0x5 SHL PUSH1 0x20 ADD SWAP1 JUMP JUMPDEST PUSH1 0x0 DUP3 PUSH1 0x1F DUP4 ADD SLT PUSH2 0x4744 JUMPI PUSH1 0x0 DUP1 REVERT JUMPDEST DUP2 CALLDATALOAD PUSH1 0x20 PUSH2 0x4751 DUP3 PUSH2 0x4710 JUMP JUMPDEST PUSH1 0x40 MLOAD PUSH2 0x475E DUP3 DUP3 PUSH2 0x46E4 JUMP JUMPDEST DUP4 DUP2 MSTORE PUSH1 0x5 SWAP4 SWAP1 SWAP4 SHL DUP6 ADD DUP3 ADD SWAP3 DUP3 DUP2 ADD SWAP2 POP DUP7 DUP5 GT ISZERO PUSH2 0x477E JUMPI PUSH1 0x0 DUP1 REVERT JUMPDEST DUP3 DUP7 ADD JUMPDEST DUP5 DUP2 LT ISZERO PUSH2 0x4799 JUMPI DUP1 CALLDATALOAD DUP4 MSTORE SWAP2 DUP4 ADD SWAP2 DUP4 ADD PUSH2 0x4782 JUMP JUMPDEST POP SWAP7 SWAP6 POP POP POP POP POP POP JUMP JUMPDEST PUSH1 0x0 DUP1 PUSH1 0x40 DUP4 DUP6 SUB SLT ISZERO PUSH2 0x47B7 JUMPI PUSH1 0x0 DUP1 REVERT JUMPDEST DUP3 CALLDATALOAD PUSH1 0x1 PUSH1 0x1 PUSH1 0x40 SHL SUB DUP1 DUP3 GT ISZERO PUSH2 0x47CE JUMPI PUSH1 0x0 DUP1 REVERT JUMPDEST PUSH2 0x47DA DUP7 DUP4 DUP8 ADD PUSH2 0x4733 JUMP JUMPDEST SWAP4 POP PUSH1 0x20 DUP6 ADD CALLDATALOAD SWAP2 POP DUP1 DUP3 GT ISZERO PUSH2 0x47F0 JUMPI PUSH1 0x0 DUP1 REVERT JUMPDEST POP PUSH2 0x47FD DUP6 DUP3 DUP7 ADD PUSH2 0x4733 JUMP JUMPDEST SWAP2 POP POP SWAP3 POP SWAP3 SWAP1 POP JUMP JUMPDEST PUSH1 0x0 PUSH1 0x20 DUP3 DUP5 SUB SLT ISZERO PUSH2 0x4819 JUMPI PUSH1 0x0 DUP1 REVERT JUMPDEST DUP2 CALLDATALOAD PUSH2 0x1BD6 DUP2 PUSH2 0x459C JUMP JUMPDEST PUSH1 0x0 PUSH1 0x1 PUSH1 0x1 PUSH1 0x40 SHL SUB DUP3 GT ISZERO PUSH2 0x483D JUMPI PUSH2 0x483D PUSH2 0x46CE JUMP JUMPDEST POP PUSH1 0x1F ADD PUSH1 0x1F NOT AND PUSH1 0x20 ADD SWAP1 JUMP JUMPDEST PUSH1 0x0 DUP3 PUSH1 0x1F DUP4 ADD SLT PUSH2 0x485C JUMPI PUSH1 0x0 DUP1 REVERT JUMPDEST DUP2 CALLDATALOAD PUSH2 0x4867 DUP2 PUSH2 0x4824 JUMP JUMPDEST PUSH1 0x40 MLOAD PUSH2 0x4874 DUP3 DUP3 PUSH2 0x46E4 JUMP JUMPDEST DUP3 DUP2 MSTORE DUP6 PUSH1 0x20 DUP5 DUP8 ADD ADD GT ISZERO PUSH2 0x4889 JUMPI PUSH1 0x0 DUP1 REVERT JUMPDEST DUP3 PUSH1 0x20 DUP7 ADD PUSH1 0x20 DUP4 ADD CALLDATACOPY PUSH1 0x0 SWAP3 DUP2 ADD PUSH1 0x20 ADD SWAP3 SWAP1 SWAP3 MSTORE POP SWAP4 SWAP3 POP POP POP JUMP JUMPDEST PUSH1 0x0 DUP1 PUSH1 0x0 DUP1 PUSH1 0x0 PUSH1 0xA0 DUP7 DUP9 SUB SLT ISZERO PUSH2 0x48BF JUMPI PUSH1 0x0 DUP1 REVERT JUMPDEST DUP6 CALLDATALOAD PUSH2 0x48CA DUP2 PUSH2 0x459C JUMP JUMPDEST SWAP5 POP PUSH1 0x20 DUP7 ADD CALLDATALOAD PUSH2 0x48DA DUP2 PUSH2 0x459C JUMP JUMPDEST SWAP4 POP PUSH1 0x40 DUP7 ADD CALLDATALOAD PUSH1 0x1 PUSH1 0x1 PUSH1 0x40 SHL SUB DUP1 DUP3 GT ISZERO PUSH2 0x48F6 JUMPI PUSH1 0x0 DUP1 REVERT JUMPDEST PUSH2 0x4902 DUP10 DUP4 DUP11 ADD PUSH2 0x4733 JUMP JUMPDEST SWAP5 POP PUSH1 0x60 DUP9 ADD CALLDATALOAD SWAP2 POP DUP1 DUP3 GT ISZERO PUSH2 0x4918 JUMPI PUSH1 0x0 DUP1 REVERT JUMPDEST PUSH2 0x4924 DUP10 DUP4 DUP11 ADD PUSH2 0x4733 JUMP JUMPDEST SWAP4 POP PUSH1 0x80 DUP9 ADD CALLDATALOAD SWAP2 POP DUP1 DUP3 GT ISZERO PUSH2 0x493A JUMPI PUSH1 0x0 DUP1 REVERT JUMPDEST POP PUSH2 0x4947 DUP9 DUP3 DUP10 ADD PUSH2 0x484B JUMP JUMPDEST SWAP2 POP POP SWAP3 SWAP6 POP SWAP3 SWAP6 SWAP1 SWAP4 POP JUMP JUMPDEST PUSH1 0x0 DUP1 PUSH1 0x0 PUSH1 0x40 DUP5 DUP7 SUB SLT ISZERO PUSH2 0x4969 JUMPI PUSH1 0x0 DUP1 REVERT JUMPDEST PUSH2 0x4972 DUP5 PUSH2 0x449F JUMP JUMPDEST SWAP3 POP PUSH1 0x20 DUP5 ADD CALLDATALOAD PUSH1 0x1 PUSH1 0x1 PUSH1 0x40 SHL SUB DUP2 GT ISZERO PUSH2 0x498D JUMPI PUSH1 0x0 DUP1 REVERT JUMPDEST PUSH2 0x4999 DUP7 DUP3 DUP8 ADD PUSH2 0x44B1 JUMP JUMPDEST SWAP5 SWAP8 SWAP1 SWAP7 POP SWAP4 SWAP5 POP POP POP POP JUMP JUMPDEST PUSH1 0x0 DUP1 PUSH1 0x0 DUP1 PUSH1 0x80 DUP6 DUP8 SUB SLT ISZERO PUSH2 0x49BC JUMPI PUSH1 0x0 DUP1 REVERT JUMPDEST DUP5 CALLDATALOAD SWAP4 POP PUSH1 0x20 DUP6 ADD CALLDATALOAD SWAP3 POP PUSH1 0x40 DUP6 ADD CALLDATALOAD SWAP2 POP PUSH1 0x60 DUP6 ADD CALLDATALOAD PUSH1 0x1 PUSH1 0x1 PUSH1 0x40 SHL SUB DUP2 GT ISZERO PUSH2 0x49E7 JUMPI PUSH1 0x0 DUP1 REVERT JUMPDEST PUSH2 0x49F3 DUP8 DUP3 DUP9 ADD PUSH2 0x484B JUMP JUMPDEST SWAP2 POP POP SWAP3 SWAP6 SWAP2 SWAP5 POP SWAP3 POP JUMP JUMPDEST PUSH1 0x0 DUP1 PUSH1 0x0 DUP1 PUSH1 0x0 DUP1 PUSH1 0x0 DUP1 PUSH2 0x100 DUP10 DUP12 SUB SLT ISZERO PUSH2 0x4A1C JUMPI PUSH1 0x0 DUP1 REVERT JUMPDEST PUSH2 0x4A25 DUP10 PUSH2 0x45B1 JUMP JUMPDEST SWAP8 POP PUSH2 0x4A33 PUSH1 0x20 DUP11 ADD PUSH2 0x449F JUMP JUMPDEST SWAP7 POP PUSH1 0x40 DUP10 ADD CALLDATALOAD PUSH1 0x1 PUSH1 0x1 PUSH1 0x40 SHL SUB DUP1 DUP3 GT ISZERO PUSH2 0x4A4F JUMPI PUSH1 0x0 DUP1 REVERT JUMPDEST PUSH2 0x4A5B DUP13 DUP4 DUP14 ADD PUSH2 0x484B JUMP JUMPDEST SWAP8 POP PUSH1 0x60 DUP12 ADD CALLDATALOAD SWAP2 POP DUP1 DUP3 GT ISZERO PUSH2 0x4A71 JUMPI PUSH1 0x0 DUP1 REVERT JUMPDEST PUSH2 0x4A7D DUP13 DUP4 DUP14 ADD PUSH2 0x4733 JUMP JUMPDEST SWAP7 POP PUSH1 0x80 DUP12 ADD CALLDATALOAD SWAP2 POP DUP1 DUP3 GT ISZERO PUSH2 0x4A93 JUMPI PUSH1 0x0 DUP1 REVERT JUMPDEST PUSH2 0x4A9F DUP13 DUP4 DUP14 ADD PUSH2 0x4733 JUMP JUMPDEST SWAP6 POP PUSH2 0x4AAD PUSH1 0xA0 DUP13 ADD PUSH2 0x45B1 JUMP JUMPDEST SWAP5 POP PUSH2 0x4ABB PUSH1 0xC0 DUP13 ADD PUSH2 0x45B1 JUMP JUMPDEST SWAP4 POP PUSH1 0xE0 DUP12 ADD CALLDATALOAD SWAP2 POP DUP1 DUP3 GT ISZERO PUSH2 0x4AD1 JUMPI PUSH1 0x0 DUP1 REVERT JUMPDEST POP PUSH2 0x4ADE DUP12 DUP3 DUP13 ADD PUSH2 0x484B JUMP JUMPDEST SWAP2 POP POP SWAP3 SWAP6 SWAP9 POP SWAP3 SWAP6 SWAP9 SWAP1 SWAP4 SWAP7 POP JUMP JUMPDEST PUSH1 0x0 DUP1 PUSH1 0x0 DUP1 PUSH1 0x0 DUP1 PUSH1 0x0 DUP1 PUSH2 0x100 DUP10 DUP12 SUB SLT ISZERO PUSH2 0x4B0B JUMPI PUSH1 0x0 DUP1 REVERT JUMPDEST DUP9 CALLDATALOAD PUSH2 0x4B16 DUP2 PUSH2 0x459C JUMP JUMPDEST SWAP8 POP PUSH2 0x4B24 PUSH1 0x20 DUP11 ADD PUSH2 0x449F JUMP JUMPDEST SWAP7 POP PUSH1 0x40 DUP10 ADD CALLDATALOAD PUSH1 0x1 PUSH1 0x1 PUSH1 0x40 SHL SUB DUP1 DUP3 GT ISZERO PUSH2 0x4B40 JUMPI PUSH1 0x0 DUP1 REVERT JUMPDEST PUSH2 0x4B4C DUP13 DUP4 DUP14 ADD PUSH2 0x484B JUMP JUMPDEST SWAP8 POP PUSH1 0x60 DUP12 ADD CALLDATALOAD SWAP7 POP PUSH1 0x80 DUP12 ADD CALLDATALOAD SWAP6 POP PUSH1 0xA0 DUP12 ADD CALLDATALOAD SWAP2 POP PUSH2 0x4B6C DUP3 PUSH2 0x459C JUMP JUMPDEST SWAP1 SWAP4 POP PUSH1 0xC0 DUP11 ADD CALLDATALOAD SWAP1 PUSH2 0x4B7E DUP3 PUSH2 0x459C JUMP JUMPDEST SWAP1 SWAP3 POP PUSH1 0xE0 DUP11 ADD CALLDATALOAD SWAP1 DUP1 DUP3 GT ISZERO PUSH2 0x4AD1 JUMPI PUSH1 0x0 DUP1 REVERT JUMPDEST PUSH1 0x0 DUP1 PUSH1 0x40 DUP4 DUP6 SUB SLT ISZERO PUSH2 0x4BA7 JUMPI PUSH1 0x0 DUP1 REVERT JUMPDEST DUP3 CALLDATALOAD PUSH1 0x1 PUSH1 0x1 PUSH1 0x40 SHL SUB DUP1 DUP3 GT ISZERO PUSH2 0x4BBE JUMPI PUSH1 0x0 DUP1 REVERT JUMPDEST DUP2 DUP6 ADD SWAP2 POP DUP6 PUSH1 0x1F DUP4 ADD SLT PUSH2 0x4BD2 JUMPI PUSH1 0x0 DUP1 REVERT JUMPDEST DUP2 CALLDATALOAD PUSH1 0x20 PUSH2 0x4BDF DUP3 PUSH2 0x4710 JUMP JUMPDEST PUSH1 0x40 MLOAD PUSH2 0x4BEC DUP3 DUP3 PUSH2 0x46E4 JUMP JUMPDEST DUP4 DUP2 MSTORE PUSH1 0x5 SWAP4 SWAP1 SWAP4 SHL DUP6 ADD DUP3 ADD SWAP3 DUP3 DUP2 ADD SWAP2 POP DUP10 DUP5 GT ISZERO PUSH2 0x4C0C JUMPI PUSH1 0x0 DUP1 REVERT JUMPDEST SWAP5 DUP3 ADD SWAP5 JUMPDEST DUP4 DUP7 LT ISZERO PUSH2 0x4C33 JUMPI DUP6 CALLDATALOAD PUSH2 0x4C24 DUP2 PUSH2 0x459C JUMP JUMPDEST DUP3 MSTORE SWAP5 DUP3 ADD SWAP5 SWAP1 DUP3 ADD SWAP1 PUSH2 0x4C11 JUMP JUMPDEST SWAP7 POP POP DUP7 ADD CALLDATALOAD SWAP3 POP POP DUP1 DUP3 GT ISZERO PUSH2 0x47F0 JUMPI PUSH1 0x0 DUP1 REVERT JUMPDEST PUSH1 0x0 DUP2 MLOAD DUP1 DUP5 MSTORE PUSH1 0x20 DUP1 DUP6 ADD SWAP5 POP DUP1 DUP5 ADD PUSH1 0x0 JUMPDEST DUP4 DUP2 LT ISZERO PUSH2 0x4C79 JUMPI DUP2 MLOAD DUP8 MSTORE SWAP6 DUP3 ADD SWAP6 SWAP1 DUP3 ADD SWAP1 PUSH1 0x1 ADD PUSH2 0x4C5D JUMP JUMPDEST POP SWAP5 SWAP6 SWAP5 POP POP POP POP POP JUMP JUMPDEST PUSH1 0x20 DUP2 MSTORE PUSH1 0x0 PUSH2 0x1BD6 PUSH1 0x20 DUP4 ADD DUP5 PUSH2 0x4C49 JUMP JUMPDEST PUSH1 0x0 DUP1 PUSH1 0x0 PUSH1 0x60 DUP5 DUP7 SUB SLT ISZERO PUSH2 0x4CAC JUMPI PUSH1 0x0 DUP1 REVERT JUMPDEST PUSH2 0x4CB5 DUP5 PUSH2 0x449F JUMP JUMPDEST SWAP3 POP PUSH1 0x20 DUP5 ADD CALLDATALOAD PUSH1 0x1 PUSH1 0x1 PUSH1 0x40 SHL SUB DUP2 GT ISZERO PUSH2 0x4CD0 JUMPI PUSH1 0x0 DUP1 REVERT JUMPDEST PUSH2 0x4CDC DUP7 DUP3 DUP8 ADD PUSH2 0x484B JUMP JUMPDEST SWAP3 POP POP PUSH2 0x4CEB PUSH1 0x40 DUP6 ADD PUSH2 0x44F2 JUMP JUMPDEST SWAP1 POP SWAP3 POP SWAP3 POP SWAP3 JUMP JUMPDEST DUP1 CALLDATALOAD DUP1 ISZERO ISZERO DUP2 EQ PUSH2 0x327E JUMPI PUSH1 0x0 DUP1 REVERT JUMPDEST PUSH1 0x0 DUP1 PUSH1 0x0 DUP1 PUSH1 0x0 DUP1 PUSH1 0xC0 DUP8 DUP10 SUB SLT ISZERO PUSH2 0x4D1D JUMPI PUSH1 0x0 DUP1 REVERT JUMPDEST PUSH2 0x4D26 DUP8 PUSH2 0x449F JUMP JUMPDEST SWAP6 POP PUSH1 0x20 DUP8 ADD CALLDATALOAD PUSH1 0x1 PUSH1 0x1 PUSH1 0x40 SHL SUB DUP1 DUP3 GT ISZERO PUSH2 0x4D42 JUMPI PUSH1 0x0 DUP1 REVERT JUMPDEST PUSH2 0x4D4E DUP11 DUP4 DUP12 ADD PUSH2 0x484B JUMP JUMPDEST SWAP7 POP PUSH1 0x40 DUP10 ADD CALLDATALOAD SWAP6 POP PUSH1 0x60 DUP10 ADD CALLDATALOAD SWAP5 POP PUSH2 0x4D6A PUSH1 0x80 DUP11 ADD PUSH2 0x4CF4 JUMP JUMPDEST SWAP4 POP PUSH1 0xA0 DUP10 ADD CALLDATALOAD SWAP2 POP DUP1 DUP3 GT ISZERO PUSH2 0x4D80 JUMPI PUSH1 0x0 DUP1 REVERT JUMPDEST POP PUSH2 0x4D8D DUP10 DUP3 DUP11 ADD PUSH2 0x484B JUMP JUMPDEST SWAP2 POP POP SWAP3 SWAP6 POP SWAP3 SWAP6 POP SWAP3 SWAP6 JUMP JUMPDEST PUSH1 0x0 DUP1 PUSH1 0x40 DUP4 DUP6 SUB SLT ISZERO PUSH2 0x4DAD JUMPI PUSH1 0x0 DUP1 REVERT JUMPDEST PUSH2 0x4DB6 DUP4 PUSH2 0x449F JUMP JUMPDEST SWAP2 POP PUSH2 0x4DC4 PUSH1 0x20 DUP5 ADD PUSH2 0x449F JUMP JUMPDEST SWAP1 POP SWAP3 POP SWAP3 SWAP1 POP JUMP JUMPDEST PUSH1 0x0 DUP1 PUSH1 0x40 DUP4 DUP6 SUB SLT ISZERO PUSH2 0x4DE0 JUMPI PUSH1 0x0 DUP1 REVERT JUMPDEST DUP3 CALLDATALOAD PUSH2 0x4DEB DUP2 PUSH2 0x459C JUMP JUMPDEST SWAP2 POP PUSH2 0x4DC4 PUSH1 0x20 DUP5 ADD PUSH2 0x4CF4 JUMP JUMPDEST PUSH1 0x0 DUP1 PUSH1 0x0 DUP1 PUSH1 0x0 DUP1 PUSH1 0xC0 DUP8 DUP10 SUB SLT ISZERO PUSH2 0x4E12 JUMPI PUSH1 0x0 DUP1 REVERT JUMPDEST PUSH2 0x4E1B DUP8 PUSH2 0x449F JUMP JUMPDEST SWAP6 POP PUSH1 0x20 DUP8 ADD CALLDATALOAD PUSH1 0x1 PUSH1 0x1 PUSH1 0x40 SHL SUB DUP1 DUP3 GT ISZERO PUSH2 0x4E37 JUMPI PUSH1 0x0 DUP1 REVERT JUMPDEST PUSH2 0x4E43 DUP11 DUP4 DUP12 ADD PUSH2 0x484B JUMP JUMPDEST SWAP7 POP PUSH1 0x40 DUP10 ADD CALLDATALOAD SWAP2 POP DUP1 DUP3 GT ISZERO PUSH2 0x4E59 JUMPI PUSH1 0x0 DUP1 REVERT JUMPDEST PUSH2 0x4E65 DUP11 DUP4 DUP12 ADD PUSH2 0x4733 JUMP JUMPDEST SWAP6 POP PUSH1 0x60 DUP10 ADD CALLDATALOAD SWAP2 POP DUP1 DUP3 GT ISZERO PUSH2 0x4E7B JUMPI PUSH1 0x0 DUP1 REVERT JUMPDEST PUSH2 0x4E87 DUP11 DUP4 DUP12 ADD PUSH2 0x4733 JUMP JUMPDEST SWAP5 POP PUSH2 0x4D6A PUSH1 0x80 DUP11 ADD PUSH2 0x4CF4 JUMP JUMPDEST PUSH1 0x0 DUP1 PUSH1 0x0 DUP1 PUSH1 0x0 PUSH1 0xA0 DUP7 DUP9 SUB SLT ISZERO PUSH2 0x4EAD JUMPI PUSH1 0x0 DUP1 REVERT JUMPDEST DUP6 CALLDATALOAD PUSH2 0x4EB8 DUP2 PUSH2 0x459C JUMP JUMPDEST SWAP5 POP PUSH1 0x20 DUP7 ADD CALLDATALOAD SWAP4 POP PUSH1 0x40 DUP7 ADD CALLDATALOAD SWAP3 POP PUSH1 0x60 DUP7 ADD CALLDATALOAD SWAP2 POP PUSH1 0x80 DUP7 ADD CALLDATALOAD PUSH1 0x1 PUSH1 0x1 PUSH1 0x40 SHL SUB DUP2 GT ISZERO PUSH2 0x4EE8 JUMPI PUSH1 0x0 DUP1 REVERT JUMPDEST PUSH2 0x4947 DUP9 DUP3 DUP10 ADD PUSH2 0x484B JUMP JUMPDEST PUSH1 0x0 DUP1 PUSH1 0x0 DUP1 PUSH1 0x0 PUSH1 0x80 DUP7 DUP9 SUB SLT ISZERO PUSH2 0x4F0C JUMPI PUSH1 0x0 DUP1 REVERT JUMPDEST PUSH2 0x4F15 DUP7 PUSH2 0x449F JUMP JUMPDEST SWAP5 POP PUSH2 0x4F23 PUSH1 0x20 DUP8 ADD PUSH2 0x449F JUMP JUMPDEST SWAP4 POP PUSH1 0x40 DUP7 ADD CALLDATALOAD SWAP3 POP PUSH1 0x60 DUP7 ADD CALLDATALOAD PUSH1 0x1 PUSH1 0x1 PUSH1 0x40 SHL SUB DUP2 GT ISZERO PUSH2 0x4F45 JUMPI PUSH1 0x0 DUP1 REVERT JUMPDEST PUSH2 0x4F51 DUP9 DUP3 DUP10 ADD PUSH2 0x44B1 JUMP JUMPDEST SWAP7 SWAP10 SWAP6 SWAP9 POP SWAP4 SWAP7 POP SWAP3 SWAP5 SWAP4 SWAP3 POP POP POP JUMP JUMPDEST PUSH1 0x0 DUP1 PUSH1 0x0 DUP1 PUSH1 0x0 PUSH1 0xA0 DUP7 DUP9 SUB SLT ISZERO PUSH2 0x4F7A JUMPI PUSH1 0x0 DUP1 REVERT JUMPDEST DUP6 CALLDATALOAD PUSH1 0x1 PUSH1 0x1 PUSH1 0x40 SHL SUB DUP1 DUP3 GT ISZERO PUSH2 0x4F91 JUMPI PUSH1 0x0 DUP1 REVERT JUMPDEST PUSH2 0x4F9D DUP10 DUP4 DUP11 ADD PUSH2 0x484B JUMP JUMPDEST SWAP7 POP PUSH1 0x20 DUP9 ADD CALLDATALOAD SWAP2 POP DUP1 DUP3 GT ISZERO PUSH2 0x4FB3 JUMPI PUSH1 0x0 DUP1 REVERT JUMPDEST PUSH2 0x4FBF DUP10 DUP4 DUP11 ADD PUSH2 0x484B JUMP JUMPDEST SWAP6 POP PUSH1 0x40 DUP9 ADD CALLDATALOAD SWAP2 POP DUP1 DUP3 GT ISZERO PUSH2 0x4FD5 JUMPI PUSH1 0x0 DUP1 REVERT JUMPDEST POP PUSH2 0x4FE2 DUP9 DUP3 DUP10 ADD PUSH2 0x484B JUMP JUMPDEST SWAP4 POP POP PUSH1 0x60 DUP7 ADD CALLDATALOAD PUSH2 0x4FF3 DUP2 PUSH2 0x459C JUMP JUMPDEST SWAP2 POP PUSH1 0x80 DUP7 ADD CALLDATALOAD PUSH2 0x5003 DUP2 PUSH2 0x459C JUMP JUMPDEST DUP1 SWAP2 POP POP SWAP3 SWAP6 POP SWAP3 SWAP6 SWAP1 SWAP4 POP JUMP JUMPDEST PUSH1 0x0 DUP1 PUSH1 0x0 PUSH1 0x60 DUP5 DUP7 SUB SLT ISZERO PUSH2 0x5026 JUMPI PUSH1 0x0 DUP1 REVERT JUMPDEST PUSH2 0x502F DUP5 PUSH2 0x449F JUMP JUMPDEST SWAP3 POP PUSH2 0x503D PUSH1 0x20 DUP6 ADD PUSH2 0x449F JUMP JUMPDEST SWAP2 POP PUSH1 0x40 DUP5 ADD CALLDATALOAD SWAP1 POP SWAP3 POP SWAP3 POP SWAP3 JUMP JUMPDEST PUSH1 0x0 PUSH1 0x20 DUP3 DUP5 SUB SLT ISZERO PUSH2 0x505F JUMPI PUSH1 0x0 DUP1 REVERT JUMPDEST DUP2 CALLDATALOAD PUSH1 0x1 PUSH1 0x1 PUSH1 0x40 SHL SUB DUP2 GT ISZERO PUSH2 0x5075 JUMPI PUSH1 0x0 DUP1 REVERT JUMPDEST PUSH2 0x5081 DUP5 DUP3 DUP6 ADD PUSH2 0x484B JUMP JUMPDEST SWAP5 SWAP4 POP POP POP POP JUMP JUMPDEST PUSH1 0x0 DUP1 PUSH1 0x40 DUP4 DUP6 SUB SLT ISZERO PUSH2 0x509C JUMPI PUSH1 0x0 DUP1 REVERT JUMPDEST DUP3 CALLDATALOAD PUSH2 0x50A7 DUP2 PUSH2 0x459C JUMP JUMPDEST SWAP2 POP PUSH1 0x20 DUP4 ADD CALLDATALOAD PUSH2 0x50B7 DUP2 PUSH2 0x459C JUMP JUMPDEST DUP1 SWAP2 POP POP SWAP3 POP SWAP3 SWAP1 POP JUMP JUMPDEST PUSH1 0x0 PUSH1 0x20 DUP3 DUP5 SUB SLT ISZERO PUSH2 0x50D4 JUMPI PUSH1 0x0 DUP1 REVERT JUMPDEST PUSH2 0x1BD6 DUP3 PUSH2 0x4CF4 JUMP JUMPDEST PUSH1 0x0 DUP1 PUSH1 0x0 DUP1 PUSH1 0x0 PUSH1 0xA0 DUP7 DUP9 SUB SLT ISZERO PUSH2 0x50F5 JUMPI PUSH1 0x0 DUP1 REVERT JUMPDEST DUP6 CALLDATALOAD PUSH2 0x5100 DUP2 PUSH2 0x459C JUMP JUMPDEST SWAP5 POP PUSH1 0x20 DUP7 ADD CALLDATALOAD PUSH2 0x5110 DUP2 PUSH2 0x459C JUMP JUMPDEST SWAP4 POP PUSH1 0x40 DUP7 ADD CALLDATALOAD SWAP3 POP PUSH1 0x60 DUP7 ADD CALLDATALOAD SWAP2 POP PUSH1 0x80 DUP7 ADD CALLDATALOAD PUSH1 0x1 PUSH1 0x1 PUSH1 0x40 SHL SUB DUP2 GT ISZERO PUSH2 0x4EE8 JUMPI PUSH1 0x0 DUP1 REVERT JUMPDEST PUSH1 0x0 DUP1 PUSH1 0x0 DUP1 PUSH1 0x80 DUP6 DUP8 SUB SLT ISZERO PUSH2 0x514F JUMPI PUSH1 0x0 DUP1 REVERT JUMPDEST PUSH2 0x5158 DUP6 PUSH2 0x449F JUMP JUMPDEST SWAP4 POP PUSH2 0x5166 PUSH1 0x20 DUP7 ADD PUSH2 0x449F JUMP JUMPDEST SWAP3 POP PUSH1 0x40 DUP6 ADD CALLDATALOAD PUSH2 0x5176 DUP2 PUSH2 0x459C JUMP JUMPDEST SWAP4 SWAP7 SWAP3 SWAP6 POP SWAP3 SWAP4 PUSH1 0x60 ADD CALLDATALOAD SWAP3 POP POP JUMP JUMPDEST PUSH1 0x1 DUP2 DUP2 SHR SWAP1 DUP3 AND DUP1 PUSH2 0x519A JUMPI PUSH1 0x7F DUP3 AND SWAP2 POP JUMPDEST PUSH1 0x20 DUP3 LT DUP2 SUB PUSH2 0x51BA JUMPI PUSH4 0x4E487B71 PUSH1 0xE0 SHL PUSH1 0x0 MSTORE PUSH1 0x22 PUSH1 0x4 MSTORE PUSH1 0x24 PUSH1 0x0 REVERT JUMPDEST POP SWAP2 SWAP1 POP JUMP JUMPDEST DUP2 DUP4 DUP3 CALLDATACOPY PUSH1 0x0 SWAP2 ADD SWAP1 DUP2 MSTORE SWAP2 SWAP1 POP JUMP JUMPDEST PUSH1 0x20 DUP1 DUP3 MSTORE DUP2 DUP2 ADD MSTORE PUSH32 0x4F776E61626C653A2063616C6C6572206973206E6F7420746865206F776E6572 PUSH1 0x40 DUP3 ADD MSTORE PUSH1 0x60 ADD SWAP1 JUMP JUMPDEST PUSH4 0x4E487B71 PUSH1 0xE0 SHL PUSH1 0x0 MSTORE PUSH1 0x32 PUSH1 0x4 MSTORE PUSH1 0x24 PUSH1 0x0 REVERT JUMPDEST PUSH4 0x4E487B71 PUSH1 0xE0 SHL PUSH1 0x0 MSTORE PUSH1 0x11 PUSH1 0x4 MSTORE PUSH1 0x24 PUSH1 0x0 REVERT JUMPDEST PUSH1 0x0 PUSH1 0x1 DUP3 ADD PUSH2 0x5243 JUMPI PUSH2 0x5243 PUSH2 0x521B JUMP JUMPDEST POP PUSH1 0x1 ADD SWAP1 JUMP JUMPDEST DUP2 DUP4 MSTORE DUP2 DUP2 PUSH1 0x20 DUP6 ADD CALLDATACOPY POP PUSH1 0x0 DUP3 DUP3 ADD PUSH1 0x20 SWAP1 DUP2 ADD SWAP2 SWAP1 SWAP2 MSTORE PUSH1 0x1F SWAP1 SWAP2 ADD PUSH1 0x1F NOT AND SWAP1 SWAP2 ADD ADD SWAP1 JUMP JUMPDEST PUSH2 0xFFFF DUP5 AND DUP2 MSTORE PUSH1 0x40 PUSH1 0x20 DUP3 ADD MSTORE PUSH1 0x0 PUSH2 0x284A PUSH1 0x40 DUP4 ADD DUP5 DUP7 PUSH2 0x524A JUMP JUMPDEST DUP1 DUP3 ADD DUP1 DUP3 GT ISZERO PUSH2 0xED9 JUMPI PUSH2 0xED9 PUSH2 0x521B JUMP JUMPDEST PUSH1 0x20 DUP1 DUP3 MSTORE PUSH1 0x24 SWAP1 DUP3 ADD MSTORE PUSH32 0x4D696E7420616D6F756E74206578636565647320746F74616C20737570706C79 PUSH1 0x40 DUP3 ADD MSTORE PUSH4 0x40DAC2F PUSH1 0xE3 SHL PUSH1 0x60 DUP3 ADD MSTORE PUSH1 0x80 ADD SWAP1 JUMP JUMPDEST DUP5 DUP2 MSTORE DUP4 PUSH1 0x20 DUP3 ADD MSTORE DUP3 PUSH1 0x40 DUP3 ADD MSTORE PUSH1 0x80 PUSH1 0x60 DUP3 ADD MSTORE PUSH1 0x0 PUSH2 0x530D PUSH1 0x80 DUP4 ADD DUP5 PUSH2 0x463F JUMP JUMPDEST SWAP7 SWAP6 POP POP POP POP POP POP JUMP JUMPDEST DUP2 DUP2 SUB DUP2 DUP2 GT ISZERO PUSH2 0xED9 JUMPI PUSH2 0xED9 PUSH2 0x521B JUMP JUMPDEST DUP3 DUP5 DUP3 CALLDATACOPY PUSH1 0x60 SWAP2 SWAP1 SWAP2 SHL PUSH1 0x1 PUSH1 0x1 PUSH1 0x60 SHL SUB NOT AND SWAP2 ADD SWAP1 DUP2 MSTORE PUSH1 0x14 ADD SWAP2 SWAP1 POP JUMP JUMPDEST PUSH1 0x1F DUP3 GT ISZERO PUSH2 0x1261 JUMPI PUSH1 0x0 DUP2 DUP2 MSTORE PUSH1 0x20 DUP2 KECCAK256 PUSH1 0x1F DUP6 ADD PUSH1 0x5 SHR DUP2 ADD PUSH1 0x20 DUP7 LT ISZERO PUSH2 0x5372 JUMPI POP DUP1 JUMPDEST PUSH1 0x1F DUP6 ADD PUSH1 0x5 SHR DUP3 ADD SWAP2 POP JUMPDEST DUP2 DUP2 LT ISZERO PUSH2 0x18B7 JUMPI DUP3 DUP2 SSTORE PUSH1 0x1 ADD PUSH2 0x537E JUMP JUMPDEST DUP2 MLOAD PUSH1 0x1 PUSH1 0x1 PUSH1 0x40 SHL SUB DUP2 GT ISZERO PUSH2 0x53AA JUMPI PUSH2 0x53AA PUSH2 0x46CE JUMP JUMPDEST PUSH2 0x53BE DUP2 PUSH2 0x53B8 DUP5 SLOAD PUSH2 0x5186 JUMP JUMPDEST DUP5 PUSH2 0x534B JUMP JUMPDEST PUSH1 0x20 DUP1 PUSH1 0x1F DUP4 GT PUSH1 0x1 DUP2 EQ PUSH2 0x53F3 JUMPI PUSH1 0x0 DUP5 ISZERO PUSH2 0x53DB JUMPI POP DUP6 DUP4 ADD MLOAD JUMPDEST PUSH1 0x0 NOT PUSH1 0x3 DUP7 SWAP1 SHL SHR NOT AND PUSH1 0x1 DUP6 SWAP1 SHL OR DUP6 SSTORE PUSH2 0x18B7 JUMP JUMPDEST PUSH1 0x0 DUP6 DUP2 MSTORE PUSH1 0x20 DUP2 KECCAK256 PUSH1 0x1F NOT DUP7 AND SWAP2 JUMPDEST DUP3 DUP2 LT ISZERO PUSH2 0x5422 JUMPI DUP9 DUP7 ADD MLOAD DUP3 SSTORE SWAP5 DUP5 ADD SWAP5 PUSH1 0x1 SWAP1 SWAP2 ADD SWAP1 DUP5 ADD PUSH2 0x5403 JUMP JUMPDEST POP DUP6 DUP3 LT ISZERO PUSH2 0x5440 JUMPI DUP8 DUP6 ADD MLOAD PUSH1 0x0 NOT PUSH1 0x3 DUP9 SWAP1 SHL PUSH1 0xF8 AND SHR NOT AND DUP2 SSTORE JUMPDEST POP POP POP POP POP PUSH1 0x1 SWAP1 DUP2 SHL ADD SWAP1 SSTORE POP JUMP JUMPDEST PUSH1 0x60 DUP2 MSTORE PUSH1 0x0 PUSH2 0x5463 PUSH1 0x60 DUP4 ADD DUP7 PUSH2 0x463F JUMP JUMPDEST DUP3 DUP2 SUB PUSH1 0x20 DUP5 ADD MSTORE PUSH2 0x5475 DUP2 DUP7 PUSH2 0x4C49 JUMP JUMPDEST SWAP1 POP DUP3 DUP2 SUB PUSH1 0x40 DUP5 ADD MSTORE PUSH2 0x530D DUP2 DUP6 PUSH2 0x4C49 JUMP JUMPDEST PUSH2 0xFFFF DUP7 AND DUP2 MSTORE PUSH1 0x1 PUSH1 0x1 PUSH1 0xA0 SHL SUB DUP6 AND PUSH1 0x20 DUP3 ADD MSTORE PUSH1 0xA0 PUSH1 0x40 DUP3 ADD DUP2 SWAP1 MSTORE PUSH1 0x0 SWAP1 PUSH2 0x54B7 SWAP1 DUP4 ADD DUP7 PUSH2 0x463F JUMP JUMPDEST DUP5 ISZERO ISZERO PUSH1 0x60 DUP5 ADD MSTORE DUP3 DUP2 SUB PUSH1 0x80 DUP5 ADD MSTORE PUSH2 0x54D1 DUP2 DUP6 PUSH2 0x463F JUMP JUMPDEST SWAP9 SWAP8 POP POP POP POP POP POP POP POP JUMP JUMPDEST PUSH1 0x0 DUP1 PUSH1 0x40 DUP4 DUP6 SUB SLT ISZERO PUSH2 0x54F0 JUMPI PUSH1 0x0 DUP1 REVERT JUMPDEST POP POP DUP1 MLOAD PUSH1 0x20 SWAP1 SWAP2 ADD MLOAD SWAP1 SWAP3 SWAP1 SWAP2 POP JUMP JUMPDEST PUSH1 0x0 PUSH2 0xFFFF DUP1 DUP9 AND DUP4 MSTORE DUP1 DUP8 AND PUSH1 0x20 DUP5 ADD MSTORE POP DUP5 PUSH1 0x40 DUP4 ADD MSTORE PUSH1 0x80 PUSH1 0x60 DUP4 ADD MSTORE PUSH2 0x552F PUSH1 0x80 DUP4 ADD DUP5 DUP7 PUSH2 0x524A JUMP JUMPDEST SWAP8 SWAP7 POP POP POP POP POP POP POP JUMP JUMPDEST PUSH2 0xFFFF DUP7 AND DUP2 MSTORE PUSH1 0x80 PUSH1 0x20 DUP3 ADD MSTORE PUSH1 0x0 PUSH2 0x5558 PUSH1 0x80 DUP4 ADD DUP7 DUP9 PUSH2 0x524A JUMP JUMPDEST PUSH1 0x1 PUSH1 0x1 PUSH1 0x40 SHL SUB SWAP5 SWAP1 SWAP5 AND PUSH1 0x40 DUP4 ADD MSTORE POP PUSH1 0x60 ADD MSTORE SWAP4 SWAP3 POP POP POP JUMP JUMPDEST PUSH1 0x1 PUSH1 0x1 PUSH1 0x40 SHL SUB DUP4 GT ISZERO PUSH2 0x558C JUMPI PUSH2 0x558C PUSH2 0x46CE JUMP JUMPDEST PUSH2 0x55A0 DUP4 PUSH2 0x559A DUP4 SLOAD PUSH2 0x5186 JUMP JUMPDEST DUP4 PUSH2 0x534B JUMP JUMPDEST PUSH1 0x0 PUSH1 0x1F DUP5 GT PUSH1 0x1 DUP2 EQ PUSH2 0x55D4 JUMPI PUSH1 0x0 DUP6 ISZERO PUSH2 0x55BC JUMPI POP DUP4 DUP3 ADD CALLDATALOAD JUMPDEST PUSH1 0x0 NOT PUSH1 0x3 DUP8 SWAP1 SHL SHR NOT AND PUSH1 0x1 DUP7 SWAP1 SHL OR DUP4 SSTORE PUSH2 0x1036 JUMP JUMPDEST PUSH1 0x0 DUP4 DUP2 MSTORE PUSH1 0x20 SWAP1 KECCAK256 PUSH1 0x1F NOT DUP7 AND SWAP1 DUP4 JUMPDEST DUP3 DUP2 LT ISZERO PUSH2 0x5605 JUMPI DUP7 DUP6 ADD CALLDATALOAD DUP3 SSTORE PUSH1 0x20 SWAP5 DUP6 ADD SWAP5 PUSH1 0x1 SWAP1 SWAP3 ADD SWAP2 ADD PUSH2 0x55E5 JUMP JUMPDEST POP DUP7 DUP3 LT ISZERO PUSH2 0x5622 JUMPI PUSH1 0x0 NOT PUSH1 0xF8 DUP9 PUSH1 0x3 SHL AND SHR NOT DUP5 DUP8 ADD CALLDATALOAD AND DUP2 SSTORE JUMPDEST POP POP PUSH1 0x1 DUP6 PUSH1 0x1 SHL ADD DUP4 SSTORE POP POP POP POP POP JUMP JUMPDEST PUSH1 0x0 DUP3 PUSH1 0x1F DUP4 ADD SLT PUSH2 0x5645 JUMPI PUSH1 0x0 DUP1 REVERT JUMPDEST DUP2 MLOAD PUSH2 0x5650 DUP2 PUSH2 0x4824 JUMP JUMPDEST PUSH1 0x40 MLOAD PUSH2 0x565D DUP3 DUP3 PUSH2 0x46E4 JUMP JUMPDEST DUP3 DUP2 MSTORE DUP6 PUSH1 0x20 DUP5 DUP8 ADD ADD GT ISZERO PUSH2 0x5672 JUMPI PUSH1 0x0 DUP1 REVERT JUMPDEST PUSH2 0x284A DUP4 PUSH1 0x20 DUP4 ADD PUSH1 0x20 DUP9 ADD PUSH2 0x461B JUMP JUMPDEST PUSH1 0x0 PUSH1 0x20 DUP3 DUP5 SUB SLT ISZERO PUSH2 0x5695 JUMPI PUSH1 0x0 DUP1 REVERT JUMPDEST DUP2 MLOAD PUSH1 0x1 PUSH1 0x1 PUSH1 0x40 SHL SUB DUP2 GT ISZERO PUSH2 0x56AB JUMPI PUSH1 0x0 DUP1 REVERT JUMPDEST PUSH2 0x5081 DUP5 DUP3 DUP6 ADD PUSH2 0x5634 JUMP JUMPDEST PUSH2 0xFFFF DUP6 AND DUP2 MSTORE PUSH1 0x80 PUSH1 0x20 DUP3 ADD MSTORE PUSH1 0x0 PUSH2 0x56D4 PUSH1 0x80 DUP4 ADD DUP7 PUSH2 0x463F JUMP JUMPDEST PUSH1 0x1 PUSH1 0x1 PUSH1 0x40 SHL SUB DUP6 AND PUSH1 0x40 DUP5 ADD MSTORE DUP3 DUP2 SUB PUSH1 0x60 DUP5 ADD MSTORE PUSH2 0x552F DUP2 DUP6 PUSH2 0x463F JUMP JUMPDEST PUSH1 0x20 DUP1 DUP3 MSTORE PUSH1 0x28 SWAP1 DUP3 ADD MSTORE PUSH32 0x455243313135353A2069647320616E6420616D6F756E7473206C656E67746820 PUSH1 0x40 DUP3 ADD MSTORE PUSH8 0xDAD2E6DAC2E8C6D PUSH1 0xC3 SHL PUSH1 0x60 DUP3 ADD MSTORE PUSH1 0x80 ADD SWAP1 JUMP JUMPDEST PUSH1 0x20 DUP1 DUP3 MSTORE PUSH1 0x25 SWAP1 DUP3 ADD MSTORE PUSH32 0x455243313135353A207472616E7366657220746F20746865207A65726F206164 PUSH1 0x40 DUP3 ADD MSTORE PUSH5 0x6472657373 PUSH1 0xD8 SHL PUSH1 0x60 DUP3 ADD MSTORE PUSH1 0x80 ADD SWAP1 JUMP JUMPDEST PUSH1 0x20 DUP1 DUP3 MSTORE PUSH1 0x2A SWAP1 DUP3 ADD MSTORE PUSH32 0x455243313135353A20696E73756666696369656E742062616C616E636520666F PUSH1 0x40 DUP3 ADD MSTORE PUSH10 0x39103A3930B739B332B9 PUSH1 0xB1 SHL PUSH1 0x60 DUP3 ADD MSTORE PUSH1 0x80 ADD SWAP1 JUMP JUMPDEST PUSH1 0x40 DUP2 MSTORE PUSH1 0x0 PUSH2 0x57DF PUSH1 0x40 DUP4 ADD DUP6 PUSH2 0x4C49 JUMP JUMPDEST DUP3 DUP2 SUB PUSH1 0x20 DUP5 ADD MSTORE PUSH2 0x284A DUP2 DUP6 PUSH2 0x4C49 JUMP JUMPDEST PUSH1 0x20 DUP1 DUP3 MSTORE PUSH1 0x21 SWAP1 DUP3 ADD MSTORE PUSH32 0x455243313135353A206D696E7420746F20746865207A65726F20616464726573 PUSH1 0x40 DUP3 ADD MSTORE PUSH1 0x73 PUSH1 0xF8 SHL PUSH1 0x60 DUP3 ADD MSTORE PUSH1 0x80 ADD SWAP1 JUMP JUMPDEST PUSH1 0x20 DUP1 DUP3 MSTORE PUSH1 0x24 SWAP1 DUP3 ADD MSTORE PUSH32 0x4C7A4170703A205F61646170746572506172616D73206D75737420626520656D PUSH1 0x40 DUP3 ADD MSTORE PUSH4 0x383A3C97 PUSH1 0xE1 SHL PUSH1 0x60 DUP3 ADD MSTORE PUSH1 0x80 ADD SWAP1 JUMP JUMPDEST PUSH1 0x0 DUP3 MLOAD PUSH2 0x5888 DUP2 DUP5 PUSH1 0x20 DUP8 ADD PUSH2 0x461B JUMP JUMPDEST SWAP2 SWAP1 SWAP2 ADD SWAP3 SWAP2 POP POP JUMP JUMPDEST PUSH1 0x0 DUP3 PUSH1 0x1F DUP4 ADD SLT PUSH2 0x58A3 JUMPI PUSH1 0x0 DUP1 REVERT JUMPDEST DUP2 MLOAD PUSH1 0x20 PUSH2 0x58B0 DUP3 PUSH2 0x4710 JUMP JUMPDEST PUSH1 0x40 MLOAD PUSH2 0x58BD DUP3 DUP3 PUSH2 0x46E4 JUMP JUMPDEST DUP4 DUP2 MSTORE PUSH1 0x5 SWAP4 SWAP1 SWAP4 SHL DUP6 ADD DUP3 ADD SWAP3 DUP3 DUP2 ADD SWAP2 POP DUP7 DUP5 GT ISZERO PUSH2 0x58DD JUMPI PUSH1 0x0 DUP1 REVERT JUMPDEST DUP3 DUP7 ADD JUMPDEST DUP5 DUP2 LT ISZERO PUSH2 0x4799 JUMPI DUP1 MLOAD DUP4 MSTORE SWAP2 DUP4 ADD SWAP2 DUP4 ADD PUSH2 0x58E1 JUMP JUMPDEST PUSH1 0x0 DUP1 PUSH1 0x0 PUSH1 0x60 DUP5 DUP7 SUB SLT ISZERO PUSH2 0x590D JUMPI PUSH1 0x0 DUP1 REVERT JUMPDEST DUP4 MLOAD PUSH1 0x1 PUSH1 0x1 PUSH1 0x40 SHL SUB DUP1 DUP3 GT ISZERO PUSH2 0x5924 JUMPI PUSH1 0x0 DUP1 REVERT JUMPDEST PUSH2 0x5930 DUP8 DUP4 DUP9 ADD PUSH2 0x5634 JUMP JUMPDEST SWAP5 POP PUSH1 0x20 DUP7 ADD MLOAD SWAP2 POP DUP1 DUP3 GT ISZERO PUSH2 0x5946 JUMPI PUSH1 0x0 DUP1 REVERT JUMPDEST PUSH2 0x5952 DUP8 DUP4 DUP9 ADD PUSH2 0x5892 JUMP JUMPDEST SWAP4 POP PUSH1 0x40 DUP7 ADD MLOAD SWAP2 POP DUP1 DUP3 GT ISZERO PUSH2 0x5968 JUMPI PUSH1 0x0 DUP1 REVERT JUMPDEST POP PUSH2 0x5975 DUP7 DUP3 DUP8 ADD PUSH2 0x5892 JUMP JUMPDEST SWAP2 POP POP SWAP3 POP SWAP3 POP SWAP3 JUMP JUMPDEST PUSH1 0x20 DUP1 DUP3 MSTORE PUSH1 0x2E SWAP1 DUP3 ADD MSTORE PUSH32 0x496E697469616C697A61626C653A20636F6E747261637420697320616C726561 PUSH1 0x40 DUP3 ADD MSTORE PUSH14 0x191E481A5B9A5D1A585B1A5E9959 PUSH1 0x92 SHL PUSH1 0x60 DUP3 ADD MSTORE PUSH1 0x80 ADD SWAP1 JUMP JUMPDEST PUSH1 0x20 DUP1 DUP3 MSTORE PUSH1 0x2B SWAP1 DUP3 ADD MSTORE PUSH32 0x496E697469616C697A61626C653A20636F6E7472616374206973206E6F742069 PUSH1 0x40 DUP3 ADD MSTORE PUSH11 0x6E697469616C697A696E67 PUSH1 0xA8 SHL PUSH1 0x60 DUP3 ADD MSTORE PUSH1 0x80 ADD SWAP1 JUMP JUMPDEST PUSH2 0xFFFF DUP7 AND DUP2 MSTORE PUSH1 0xA0 PUSH1 0x20 DUP3 ADD MSTORE PUSH1 0x0 PUSH2 0x5A35 PUSH1 0xA0 DUP4 ADD DUP8 PUSH2 0x463F JUMP JUMPDEST PUSH1 0x1 PUSH1 0x1 PUSH1 0x40 SHL SUB DUP7 AND PUSH1 0x40 DUP5 ADD MSTORE DUP3 DUP2 SUB PUSH1 0x60 DUP5 ADD MSTORE PUSH2 0x5A56 DUP2 DUP7 PUSH2 0x463F JUMP JUMPDEST SWAP1 POP DUP3 DUP2 SUB PUSH1 0x80 DUP5 ADD MSTORE PUSH2 0x54D1 DUP2 DUP6 PUSH2 0x463F JUMP JUMPDEST PUSH1 0x1 PUSH1 0x1 PUSH1 0xA0 SHL SUB DUP7 DUP2 AND DUP3 MSTORE DUP6 AND PUSH1 0x20 DUP3 ADD MSTORE PUSH1 0xA0 PUSH1 0x40 DUP3 ADD DUP2 SWAP1 MSTORE PUSH1 0x0 SWAP1 PUSH2 0x5A96 SWAP1 DUP4 ADD DUP7 PUSH2 0x4C49 JUMP JUMPDEST DUP3 DUP2 SUB PUSH1 0x60 DUP5 ADD MSTORE PUSH2 0x5A56 DUP2 DUP7 PUSH2 0x4C49 JUMP JUMPDEST PUSH1 0x0 PUSH1 0x20 DUP3 DUP5 SUB SLT ISZERO PUSH2 0x5ABA JUMPI PUSH1 0x0 DUP1 REVERT JUMPDEST DUP2 MLOAD PUSH2 0x1BD6 DUP2 PUSH2 0x45E8 JUMP JUMPDEST PUSH1 0x0 PUSH1 0x3 RETURNDATASIZE GT ISZERO PUSH2 0x2889 JUMPI PUSH1 0x4 PUSH1 0x0 DUP1 RETURNDATACOPY POP PUSH1 0x0 MLOAD PUSH1 0xE0 SHR SWAP1 JUMP JUMPDEST PUSH1 0x0 PUSH1 0x44 RETURNDATASIZE LT ISZERO PUSH2 0x5AEE JUMPI SWAP1 JUMP JUMPDEST PUSH1 0x40 MLOAD PUSH1 0x3 NOT RETURNDATASIZE DUP2 ADD PUSH1 0x4 DUP4 RETURNDATACOPY DUP2 MLOAD RETURNDATASIZE PUSH1 0x1 PUSH1 0x1 PUSH1 0x40 SHL SUB DUP2 PUSH1 0x24 DUP5 ADD GT DUP2 DUP5 GT OR ISZERO PUSH2 0x5B1D JUMPI POP POP POP POP POP SWAP1 JUMP JUMPDEST DUP3 DUP6 ADD SWAP2 POP DUP2 MLOAD DUP2 DUP2 GT ISZERO PUSH2 0x5B35 JUMPI POP POP POP POP POP POP SWAP1 JUMP JUMPDEST DUP5 RETURNDATASIZE DUP8 ADD ADD PUSH1 0x20 DUP3 DUP6 ADD ADD GT ISZERO PUSH2 0x5B4F JUMPI POP POP POP POP POP POP SWAP1 JUMP JUMPDEST PUSH2 0x5B5E PUSH1 0x20 DUP3 DUP7 ADD ADD DUP8 PUSH2 0x46E4 JUMP JUMPDEST POP SWAP1 SWAP6 SWAP5 POP POP POP POP POP JUMP JUMPDEST PUSH1 0x20 DUP1 DUP3 MSTORE PUSH1 0x28 SWAP1 DUP3 ADD MSTORE PUSH32 0x455243313135353A204552433131353552656365697665722072656A65637465 PUSH1 0x40 DUP3 ADD MSTORE PUSH8 0x6420746F6B656E73 PUSH1 0xC0 SHL PUSH1 0x60 DUP3 ADD MSTORE PUSH1 0x80 ADD SWAP1 JUMP JUMPDEST PUSH4 0x4E487B71 PUSH1 0xE0 SHL PUSH1 0x0 MSTORE PUSH1 0x21 PUSH1 0x4 MSTORE PUSH1 0x24 PUSH1 0x0 REVERT JUMPDEST PUSH1 0x1 PUSH1 0x1 PUSH1 0xA0 SHL SUB DUP7 DUP2 AND DUP3 MSTORE DUP6 AND PUSH1 0x20 DUP3 ADD MSTORE PUSH1 0x40 DUP2 ADD DUP5 SWAP1 MSTORE PUSH1 0x60 DUP2 ADD DUP4 SWAP1 MSTORE PUSH1 0xA0 PUSH1 0x80 DUP3 ADD DUP2 SWAP1 MSTORE PUSH1 0x0 SWAP1 PUSH2 0x552F SWAP1 DUP4 ADD DUP5 PUSH2 0x463F JUMP JUMPDEST PUSH2 0xFFFF DUP8 AND DUP2 MSTORE PUSH1 0xC0 PUSH1 0x20 DUP3 ADD MSTORE PUSH1 0x0 PUSH2 0x5C1E PUSH1 0xC0 DUP4 ADD DUP9 PUSH2 0x463F JUMP JUMPDEST DUP3 DUP2 SUB PUSH1 0x40 DUP5 ADD MSTORE PUSH2 0x5C30 DUP2 DUP9 PUSH2 0x463F JUMP JUMPDEST PUSH1 0x1 PUSH1 0x1 PUSH1 0xA0 SHL SUB DUP8 DUP2 AND PUSH1 0x60 DUP7 ADD MSTORE DUP7 AND PUSH1 0x80 DUP6 ADD MSTORE DUP4 DUP2 SUB PUSH1 0xA0 DUP6 ADD MSTORE SWAP1 POP PUSH2 0x5C5B DUP2 DUP6 PUSH2 0x463F JUMP JUMPDEST SWAP10 SWAP9 POP POP POP POP POP POP POP POP POP JUMP INVALID LOG2 PUSH5 0x6970667358 0x22 SLT KECCAK256 0xF MOD PUSH16 0x673704936B0FD410EE6F503ABE6E4A9E PUSH1 0x7C PUSH5 0x1EF3AE8885 PUSH2 0x3FC7 0xE3 0xB9 PUSH5 0x736F6C6343 STOP ADDMOD SLT STOP CALLER "
		},
		"gasEstimates": {
			"creation": {
				"codeDepositCost": "4742000",
				"executionCost": "5569",
				"totalCost": "4747569"
			},
			"external": {
				"DEFAULT_PAYLOAD_SIZE_LIMIT()": "317",
				"FUNCTION_TYPE_SEND()": "272",
				"FUNCTION_TYPE_SEND_BATCH()": "295",
				"NO_EXTRA_GAS()": "253",
				"balanceOf(address,uint256)": "2765",
				"balanceOfBatch(address[],uint256[])": "infinite",
				"delSigner(address)": "29144",
				"estimateSendBatchFee(uint16,bytes,uint256[],uint256[],bool,bytes)": "infinite",
				"estimateSendFee(uint16,bytes,uint256,uint256,bool,bytes)": "infinite",
				"exists(uint256)": "2562",
				"failedMessages(uint16,bytes,uint64)": "infinite",
				"forceResumeReceive(uint16,bytes)": "infinite",
				"forwarder()": "2463",
				"getConfig(uint16,uint16,address,uint256)": "infinite",
				"getNonce(address)": "2655",
				"getTrustedRemoteAddress(uint16)": "infinite",
				"initialize(string,string,string,address,address)": "infinite",
				"isApprovedForAll(address,address)": "infinite",
				"isSigner(address)": "2610",
				"isTrustedRemote(uint16,bytes)": "infinite",
				"lzEndpoint()": "2449",
				"lzReceive(uint16,bytes,uint64,bytes)": "infinite",
				"minDstGasLookup(uint16,uint16)": "infinite",
				"mint(address,uint256,uint256,uint256,bytes)": "infinite",
				"mint(uint256,uint256,uint256,bytes)": "infinite",
				"name()": "infinite",
				"nonblockingLzReceive(uint16,bytes,uint64,bytes)": "infinite",
				"onERC1155BatchReceived(address,address,uint256[],uint256[],bytes)": "infinite",
				"onERC1155Received(address,address,uint256,uint256,bytes)": "infinite",
				"owner()": "2411",
				"payloadSizeLimitLookup(uint16)": "2608",
				"precrime()": "2450",
				"renounceOwnership()": "30502",
				"retryMessage(uint16,bytes,uint64,bytes)": "infinite",
				"safeBatchTransferFrom(address,address,uint256[],uint256[],bytes)": "infinite",
				"safeTransferFrom(address,address,uint256,uint256,bytes)": "infinite",
				"sendBatchFrom(address,uint16,bytes,uint256[],uint256[],address,address,bytes)": "infinite",
				"sendFrom(address,uint16,bytes,uint256,uint256,address,address,bytes)": "infinite",
				"setApprovalForAll(address,bool)": "29041",
				"setConfig(uint16,uint16,uint256,bytes)": "infinite",
				"setMinDstGas(uint16,uint16,uint256)": "infinite",
				"setNonce(address)": "29204",
				"setPayloadSizeLimit(uint16,uint256)": "27018",
				"setPrecrime(address)": "30099",
				"setReceiveVersion(uint16)": "infinite",
				"setSendVersion(uint16)": "infinite",
				"setSigner(address)": "29107",
				"setTokenURI(string)": "infinite",
				"setTotalSupplyMax(uint256[],uint256[])": "infinite",
				"setTrustedRemote(uint16,bytes)": "infinite",
				"setTrustedRemoteAddress(uint16,bytes)": "infinite",
				"setUseCustomAdapterParams(bool)": "30080",
				"supportsInterface(bytes4)": "infinite",
				"symbol()": "infinite",
				"totalSupply(uint256)": "2538",
				"totalSupplyMax(uint256)": "2516",
				"transferOwnership(address)": "infinite",
				"trustedRemoteLookup(uint16)": "infinite",
				"uri(uint256)": "infinite",
				"useCustomAdapterParams()": "2421"
			},
			"internal": {
				"_msgData()": "infinite",
				"_msgSender()": "2209"
			}
		},
		"methodIdentifiers": {
			"DEFAULT_PAYLOAD_SIZE_LIMIT()": "c4461834",
			"FUNCTION_TYPE_SEND()": "af3fb21c",
			"FUNCTION_TYPE_SEND_BATCH()": "149e3e1f",
			"NO_EXTRA_GAS()": "44770515",
			"balanceOf(address,uint256)": "00fdd58e",
			"balanceOfBatch(address[],uint256[])": "4e1273f4",
			"delSigner(address)": "883b524f",
			"estimateSendBatchFee(uint16,bytes,uint256[],uint256[],bool,bytes)": "b2535663",
			"estimateSendFee(uint16,bytes,uint256,uint256,bool,bytes)": "8608e5f8",
			"exists(uint256)": "4f558e79",
			"failedMessages(uint16,bytes,uint64)": "5b8c41e6",
			"forceResumeReceive(uint16,bytes)": "42d65a8d",
			"forwarder()": "f645d4f9",
			"getConfig(uint16,uint16,address,uint256)": "f5ecbdbc",
			"getNonce(address)": "2d0335ab",
			"getTrustedRemoteAddress(uint16)": "9f38369a",
			"initialize(string,string,string,address,address)": "d6d0faee",
			"isApprovedForAll(address,address)": "e985e9c5",
			"isSigner(address)": "7df73e27",
			"isTrustedRemote(uint16,bytes)": "3d8b38f6",
			"lzEndpoint()": "b353aaa7",
			"lzReceive(uint16,bytes,uint64,bytes)": "001d3567",
			"minDstGasLookup(uint16,uint16)": "8cfd8f5c",
			"mint(address,uint256,uint256,uint256,bytes)": "b49c99b8",
			"mint(uint256,uint256,uint256,bytes)": "4a9eee69",
			"name()": "06fdde03",
			"nonblockingLzReceive(uint16,bytes,uint64,bytes)": "66ad5c8a",
			"onERC1155BatchReceived(address,address,uint256[],uint256[],bytes)": "bc197c81",
			"onERC1155Received(address,address,uint256,uint256,bytes)": "f23a6e61",
			"owner()": "8da5cb5b",
			"payloadSizeLimitLookup(uint16)": "3f1f4fa4",
			"precrime()": "950c8a74",
			"renounceOwnership()": "715018a6",
			"retryMessage(uint16,bytes,uint64,bytes)": "d1deba1f",
			"safeBatchTransferFrom(address,address,uint256[],uint256[],bytes)": "2eb2c2d6",
			"safeTransferFrom(address,address,uint256,uint256,bytes)": "f242432a",
			"sendBatchFrom(address,uint16,bytes,uint256[],uint256[],address,address,bytes)": "4ab4e687",
			"sendFrom(address,uint16,bytes,uint256,uint256,address,address,bytes)": "4db8226a",
			"setApprovalForAll(address,bool)": "a22cb465",
			"setConfig(uint16,uint16,uint256,bytes)": "cbed8b9c",
			"setMinDstGas(uint16,uint16,uint256)": "df2a5b3b",
			"setNonce(address)": "cc8b84bf",
			"setPayloadSizeLimit(uint16,uint256)": "0df37483",
			"setPrecrime(address)": "baf3292d",
			"setReceiveVersion(uint16)": "10ddb137",
			"setSendVersion(uint16)": "07e0db17",
			"setSigner(address)": "6c19e783",
			"setTokenURI(string)": "e0df5b6f",
			"setTotalSupplyMax(uint256[],uint256[])": "26ff1979",
			"setTrustedRemote(uint16,bytes)": "eb8d72b7",
			"setTrustedRemoteAddress(uint16,bytes)": "a6c3d165",
			"setUseCustomAdapterParams(bool)": "eab45d9c",
			"supportsInterface(bytes4)": "01ffc9a7",
			"symbol()": "95d89b41",
			"totalSupply(uint256)": "bd85b039",
			"totalSupplyMax(uint256)": "844e4244",
			"transferOwnership(address)": "f2fde38b",
			"trustedRemoteLookup(uint16)": "7533d788",
			"uri(uint256)": "0e89341c",
			"useCustomAdapterParams()": "ed629c5c"
		}
	},
	"abi": [
		{
			"anonymous": false,
			"inputs": [
				{
					"indexed": true,
					"internalType": "address",
					"name": "account",
					"type": "address"
				},
				{
					"indexed": true,
					"internalType": "address",
					"name": "operator",
					"type": "address"
				},
				{
					"indexed": false,
					"internalType": "bool",
					"name": "approved",
					"type": "bool"
				}
			],
			"name": "ApprovalForAll",
			"type": "event"
		},
		{
			"anonymous": false,
			"inputs": [
				{
					"indexed": false,
					"internalType": "uint8",
					"name": "version",
					"type": "uint8"
				}
			],
			"name": "Initialized",
			"type": "event"
		},
		{
			"anonymous": false,
			"inputs": [
				{
					"indexed": false,
					"internalType": "uint16",
					"name": "_srcChainId",
					"type": "uint16"
				},
				{
					"indexed": false,
					"internalType": "bytes",
					"name": "_srcAddress",
					"type": "bytes"
				},
				{
					"indexed": false,
					"internalType": "uint64",
					"name": "_nonce",
					"type": "uint64"
				},
				{
					"indexed": false,
					"internalType": "bytes",
					"name": "_payload",
					"type": "bytes"
				},
				{
					"indexed": false,
					"internalType": "bytes",
					"name": "_reason",
					"type": "bytes"
				}
			],
			"name": "MessageFailed",
			"type": "event"
		},
		{
			"anonymous": false,
			"inputs": [
				{
					"indexed": true,
					"internalType": "address",
					"name": "previousOwner",
					"type": "address"
				},
				{
					"indexed": true,
					"internalType": "address",
					"name": "newOwner",
					"type": "address"
				}
			],
			"name": "OwnershipTransferred",
			"type": "event"
		},
		{
			"anonymous": false,
			"inputs": [
				{
					"indexed": true,
					"internalType": "uint16",
					"name": "_srcChainId",
					"type": "uint16"
				},
				{
					"indexed": true,
					"internalType": "bytes",
					"name": "_srcAddress",
					"type": "bytes"
				},
				{
					"indexed": true,
					"internalType": "address",
					"name": "_toAddress",
					"type": "address"
				},
				{
					"indexed": false,
					"internalType": "uint256[]",
					"name": "_tokenIds",
					"type": "uint256[]"
				},
				{
					"indexed": false,
					"internalType": "uint256[]",
					"name": "_amounts",
					"type": "uint256[]"
				}
			],
			"name": "ReceiveBatchFromChain",
			"type": "event"
		},
		{
			"anonymous": false,
			"inputs": [
				{
					"indexed": true,
					"internalType": "uint16",
					"name": "_srcChainId",
					"type": "uint16"
				},
				{
					"indexed": true,
					"internalType": "bytes",
					"name": "_srcAddress",
					"type": "bytes"
				},
				{
					"indexed": true,
					"internalType": "address",
					"name": "_toAddress",
					"type": "address"
				},
				{
					"indexed": false,
					"internalType": "uint256",
					"name": "_tokenId",
					"type": "uint256"
				},
				{
					"indexed": false,
					"internalType": "uint256",
					"name": "_amount",
					"type": "uint256"
				}
			],
			"name": "ReceiveFromChain",
			"type": "event"
		},
		{
			"anonymous": false,
			"inputs": [
				{
					"indexed": false,
					"internalType": "uint16",
					"name": "_srcChainId",
					"type": "uint16"
				},
				{
					"indexed": false,
					"internalType": "bytes",
					"name": "_srcAddress",
					"type": "bytes"
				},
				{
					"indexed": false,
					"internalType": "uint64",
					"name": "_nonce",
					"type": "uint64"
				},
				{
					"indexed": false,
					"internalType": "bytes32",
					"name": "_payloadHash",
					"type": "bytes32"
				}
			],
			"name": "RetryMessageSuccess",
			"type": "event"
		},
		{
			"anonymous": false,
			"inputs": [
				{
					"indexed": true,
					"internalType": "uint16",
					"name": "_dstChainId",
					"type": "uint16"
				},
				{
					"indexed": true,
					"internalType": "address",
					"name": "_from",
					"type": "address"
				},
				{
					"indexed": true,
					"internalType": "bytes",
					"name": "_toAddress",
					"type": "bytes"
				},
				{
					"indexed": false,
					"internalType": "uint256[]",
					"name": "_tokenIds",
					"type": "uint256[]"
				},
				{
					"indexed": false,
					"internalType": "uint256[]",
					"name": "_amounts",
					"type": "uint256[]"
				}
			],
			"name": "SendBatchToChain",
			"type": "event"
		},
		{
			"anonymous": false,
			"inputs": [
				{
					"indexed": true,
					"internalType": "uint16",
					"name": "_dstChainId",
					"type": "uint16"
				},
				{
					"indexed": true,
					"internalType": "address",
					"name": "_from",
					"type": "address"
				},
				{
					"indexed": true,
					"internalType": "bytes",
					"name": "_toAddress",
					"type": "bytes"
				},
				{
					"indexed": false,
					"internalType": "uint256",
					"name": "_tokenId",
					"type": "uint256"
				},
				{
					"indexed": false,
					"internalType": "uint256",
					"name": "_amount",
					"type": "uint256"
				}
			],
			"name": "SendToChain",
			"type": "event"
		},
		{
			"anonymous": false,
			"inputs": [
				{
					"indexed": false,
					"internalType": "uint16",
					"name": "_dstChainId",
					"type": "uint16"
				},
				{
					"indexed": false,
					"internalType": "uint16",
					"name": "_type",
					"type": "uint16"
				},
				{
					"indexed": false,
					"internalType": "uint256",
					"name": "_minDstGas",
					"type": "uint256"
				}
			],
			"name": "SetMinDstGas",
			"type": "event"
		},
		{
			"anonymous": false,
			"inputs": [
				{
					"indexed": false,
					"internalType": "address",
					"name": "precrime",
					"type": "address"
				}
			],
			"name": "SetPrecrime",
			"type": "event"
		},
		{
			"anonymous": false,
			"inputs": [
				{
					"indexed": false,
					"internalType": "uint16",
					"name": "_remoteChainId",
					"type": "uint16"
				},
				{
					"indexed": false,
					"internalType": "bytes",
					"name": "_path",
					"type": "bytes"
				}
			],
			"name": "SetTrustedRemote",
			"type": "event"
		},
		{
			"anonymous": false,
			"inputs": [
				{
					"indexed": false,
					"internalType": "uint16",
					"name": "_remoteChainId",
					"type": "uint16"
				},
				{
					"indexed": false,
					"internalType": "bytes",
					"name": "_remoteAddress",
					"type": "bytes"
				}
			],
			"name": "SetTrustedRemoteAddress",
			"type": "event"
		},
		{
			"anonymous": false,
			"inputs": [
				{
					"indexed": false,
					"internalType": "bool",
					"name": "_useCustomAdapterParams",
					"type": "bool"
				}
			],
			"name": "SetUseCustomAdapterParams",
			"type": "event"
		},
		{
			"anonymous": false,
			"inputs": [
				{
					"indexed": true,
					"internalType": "address",
					"name": "operator",
					"type": "address"
				},
				{
					"indexed": true,
					"internalType": "address",
					"name": "from",
					"type": "address"
				},
				{
					"indexed": true,
					"internalType": "address",
					"name": "to",
					"type": "address"
				},
				{
					"indexed": false,
					"internalType": "uint256[]",
					"name": "ids",
					"type": "uint256[]"
				},
				{
					"indexed": false,
					"internalType": "uint256[]",
					"name": "values",
					"type": "uint256[]"
				}
			],
			"name": "TransferBatch",
			"type": "event"
		},
		{
			"anonymous": false,
			"inputs": [
				{
					"indexed": true,
					"internalType": "address",
					"name": "operator",
					"type": "address"
				},
				{
					"indexed": true,
					"internalType": "address",
					"name": "from",
					"type": "address"
				},
				{
					"indexed": true,
					"internalType": "address",
					"name": "to",
					"type": "address"
				},
				{
					"indexed": false,
					"internalType": "uint256",
					"name": "id",
					"type": "uint256"
				},
				{
					"indexed": false,
					"internalType": "uint256",
					"name": "value",
					"type": "uint256"
				}
			],
			"name": "TransferSingle",
			"type": "event"
		},
		{
			"anonymous": false,
			"inputs": [
				{
					"indexed": false,
					"internalType": "string",
					"name": "value",
					"type": "string"
				},
				{
					"indexed": true,
					"internalType": "uint256",
					"name": "id",
					"type": "uint256"
				}
			],
			"name": "URI",
			"type": "event"
		},
		{
			"anonymous": false,
			"inputs": [
				{
					"indexed": true,
					"internalType": "address",
					"name": "from",
					"type": "address"
				},
				{
					"indexed": false,
					"internalType": "uint256",
					"name": "id",
					"type": "uint256"
				},
				{
					"indexed": false,
					"internalType": "uint256",
					"name": "none",
					"type": "uint256"
				},
				{
					"indexed": false,
					"internalType": "uint256",
					"name": "value",
					"type": "uint256"
				},
				{
					"indexed": false,
					"internalType": "bytes",
					"name": "signature",
					"type": "bytes"
				}
			],
			"name": "UseSignature",
			"type": "event"
		},
		{
			"inputs": [],
			"name": "DEFAULT_PAYLOAD_SIZE_LIMIT",
			"outputs": [
				{
					"internalType": "uint256",
					"name": "",
					"type": "uint256"
				}
			],
			"stateMutability": "view",
			"type": "function"
		},
		{
			"inputs": [],
			"name": "FUNCTION_TYPE_SEND",
			"outputs": [
				{
					"internalType": "uint16",
					"name": "",
					"type": "uint16"
				}
			],
			"stateMutability": "view",
			"type": "function"
		},
		{
			"inputs": [],
			"name": "FUNCTION_TYPE_SEND_BATCH",
			"outputs": [
				{
					"internalType": "uint16",
					"name": "",
					"type": "uint16"
				}
			],
			"stateMutability": "view",
			"type": "function"
		},
		{
			"inputs": [],
			"name": "NO_EXTRA_GAS",
			"outputs": [
				{
					"internalType": "uint256",
					"name": "",
					"type": "uint256"
				}
			],
			"stateMutability": "view",
			"type": "function"
		},
		{
			"inputs": [
				{
					"internalType": "address",
					"name": "account",
					"type": "address"
				},
				{
					"internalType": "uint256",
					"name": "id",
					"type": "uint256"
				}
			],
			"name": "balanceOf",
			"outputs": [
				{
					"internalType": "uint256",
					"name": "",
					"type": "uint256"
				}
			],
			"stateMutability": "view",
			"type": "function"
		},
		{
			"inputs": [
				{
					"internalType": "address[]",
					"name": "accounts",
					"type": "address[]"
				},
				{
					"internalType": "uint256[]",
					"name": "ids",
					"type": "uint256[]"
				}
			],
			"name": "balanceOfBatch",
			"outputs": [
				{
					"internalType": "uint256[]",
					"name": "",
					"type": "uint256[]"
				}
			],
			"stateMutability": "view",
			"type": "function"
		},
		{
			"inputs": [
				{
					"internalType": "address",
					"name": "account",
					"type": "address"
				}
			],
			"name": "delSigner",
			"outputs": [],
			"stateMutability": "nonpayable",
			"type": "function"
		},
		{
			"inputs": [
				{
					"internalType": "uint16",
					"name": "_dstChainId",
					"type": "uint16"
				},
				{
					"internalType": "bytes",
					"name": "_toAddress",
					"type": "bytes"
				},
				{
					"internalType": "uint256[]",
					"name": "_tokenIds",
					"type": "uint256[]"
				},
				{
					"internalType": "uint256[]",
					"name": "_amounts",
					"type": "uint256[]"
				},
				{
					"internalType": "bool",
					"name": "_useZro",
					"type": "bool"
				},
				{
					"internalType": "bytes",
					"name": "_adapterParams",
					"type": "bytes"
				}
			],
			"name": "estimateSendBatchFee",
			"outputs": [
				{
					"internalType": "uint256",
					"name": "nativeFee",
					"type": "uint256"
				},
				{
					"internalType": "uint256",
					"name": "zroFee",
					"type": "uint256"
				}
			],
			"stateMutability": "view",
			"type": "function"
		},
		{
			"inputs": [
				{
					"internalType": "uint16",
					"name": "_dstChainId",
					"type": "uint16"
				},
				{
					"internalType": "bytes",
					"name": "_toAddress",
					"type": "bytes"
				},
				{
					"internalType": "uint256",
					"name": "_tokenId",
					"type": "uint256"
				},
				{
					"internalType": "uint256",
					"name": "_amount",
					"type": "uint256"
				},
				{
					"internalType": "bool",
					"name": "_useZro",
					"type": "bool"
				},
				{
					"internalType": "bytes",
					"name": "_adapterParams",
					"type": "bytes"
				}
			],
			"name": "estimateSendFee",
			"outputs": [
				{
					"internalType": "uint256",
					"name": "nativeFee",
					"type": "uint256"
				},
				{
					"internalType": "uint256",
					"name": "zroFee",
					"type": "uint256"
				}
			],
			"stateMutability": "view",
			"type": "function"
		},
		{
			"inputs": [
				{
					"internalType": "uint256",
					"name": "id",
					"type": "uint256"
				}
			],
			"name": "exists",
			"outputs": [
				{
					"internalType": "bool",
					"name": "",
					"type": "bool"
				}
			],
			"stateMutability": "view",
			"type": "function"
		},
		{
			"inputs": [
				{
					"internalType": "uint16",
					"name": "",
					"type": "uint16"
				},
				{
					"internalType": "bytes",
					"name": "",
					"type": "bytes"
				},
				{
					"internalType": "uint64",
					"name": "",
					"type": "uint64"
				}
			],
			"name": "failedMessages",
			"outputs": [
				{
					"internalType": "bytes32",
					"name": "",
					"type": "bytes32"
				}
			],
			"stateMutability": "view",
			"type": "function"
		},
		{
			"inputs": [
				{
					"internalType": "uint16",
					"name": "_srcChainId",
					"type": "uint16"
				},
				{
					"internalType": "bytes",
					"name": "_srcAddress",
					"type": "bytes"
				}
			],
			"name": "forceResumeReceive",
			"outputs": [],
			"stateMutability": "nonpayable",
			"type": "function"
		},
		{
			"inputs": [],
			"name": "forwarder",
			"outputs": [
				{
					"internalType": "address",
					"name": "",
					"type": "address"
				}
			],
			"stateMutability": "view",
			"type": "function"
		},
		{
			"inputs": [
				{
					"internalType": "uint16",
					"name": "_version",
					"type": "uint16"
				},
				{
					"internalType": "uint16",
					"name": "_chainId",
					"type": "uint16"
				},
				{
					"internalType": "address",
					"name": "",
					"type": "address"
				},
				{
					"internalType": "uint256",
					"name": "_configType",
					"type": "uint256"
				}
			],
			"name": "getConfig",
			"outputs": [
				{
					"internalType": "bytes",
					"name": "",
					"type": "bytes"
				}
			],
			"stateMutability": "view",
			"type": "function"
		},
		{
			"inputs": [
				{
					"internalType": "address",
					"name": "account",
					"type": "address"
				}
			],
			"name": "getNonce",
			"outputs": [
				{
					"internalType": "uint256",
					"name": "",
					"type": "uint256"
				}
			],
			"stateMutability": "view",
			"type": "function"
		},
		{
			"inputs": [
				{
					"internalType": "uint16",
					"name": "_remoteChainId",
					"type": "uint16"
				}
			],
			"name": "getTrustedRemoteAddress",
			"outputs": [
				{
					"internalType": "bytes",
					"name": "",
					"type": "bytes"
				}
			],
			"stateMutability": "view",
			"type": "function"
		},
		{
			"inputs": [
				{
					"internalType": "string",
					"name": "uri_",
					"type": "string"
				},
				{
					"internalType": "string",
					"name": "name_",
					"type": "string"
				},
				{
					"internalType": "string",
					"name": "symbol_",
					"type": "string"
				},
				{
					"internalType": "address",
					"name": "endpoint_",
					"type": "address"
				},
				{
					"internalType": "address",
					"name": "forwarder_",
					"type": "address"
				}
			],
			"name": "initialize",
			"outputs": [],
			"stateMutability": "nonpayable",
			"type": "function"
		},
		{
			"inputs": [
				{
					"internalType": "address",
					"name": "account",
					"type": "address"
				},
				{
					"internalType": "address",
					"name": "operator",
					"type": "address"
				}
			],
			"name": "isApprovedForAll",
			"outputs": [
				{
					"internalType": "bool",
					"name": "",
					"type": "bool"
				}
			],
			"stateMutability": "view",
			"type": "function"
		},
		{
			"inputs": [
				{
					"internalType": "address",
					"name": "account",
					"type": "address"
				}
			],
			"name": "isSigner",
			"outputs": [
				{
					"internalType": "bool",
					"name": "",
					"type": "bool"
				}
			],
			"stateMutability": "view",
			"type": "function"
		},
		{
			"inputs": [
				{
					"internalType": "uint16",
					"name": "_srcChainId",
					"type": "uint16"
				},
				{
					"internalType": "bytes",
					"name": "_srcAddress",
					"type": "bytes"
				}
			],
			"name": "isTrustedRemote",
			"outputs": [
				{
					"internalType": "bool",
					"name": "",
					"type": "bool"
				}
			],
			"stateMutability": "view",
			"type": "function"
		},
		{
			"inputs": [],
			"name": "lzEndpoint",
			"outputs": [
				{
					"internalType": "contract ILayerZeroEndpointUpgradeable",
					"name": "",
					"type": "address"
				}
			],
			"stateMutability": "view",
			"type": "function"
		},
		{
			"inputs": [
				{
					"internalType": "uint16",
					"name": "_srcChainId",
					"type": "uint16"
				},
				{
					"internalType": "bytes",
					"name": "_srcAddress",
					"type": "bytes"
				},
				{
					"internalType": "uint64",
					"name": "_nonce",
					"type": "uint64"
				},
				{
					"internalType": "bytes",
					"name": "_payload",
					"type": "bytes"
				}
			],
			"name": "lzReceive",
			"outputs": [],
			"stateMutability": "nonpayable",
			"type": "function"
		},
		{
			"inputs": [
				{
					"internalType": "uint16",
					"name": "",
					"type": "uint16"
				},
				{
					"internalType": "uint16",
					"name": "",
					"type": "uint16"
				}
			],
			"name": "minDstGasLookup",
			"outputs": [
				{
					"internalType": "uint256",
					"name": "",
					"type": "uint256"
				}
			],
			"stateMutability": "view",
			"type": "function"
		},
		{
			"inputs": [
				{
					"internalType": "uint256",
					"name": "id",
					"type": "uint256"
				},
				{
					"internalType": "uint256",
					"name": "none",
					"type": "uint256"
				},
				{
					"internalType": "uint256",
					"name": "amount",
					"type": "uint256"
				},
				{
					"internalType": "bytes",
					"name": "signature",
					"type": "bytes"
				}
			],
			"name": "mint",
			"outputs": [],
			"stateMutability": "nonpayable",
			"type": "function"
		},
		{
			"inputs": [
				{
					"internalType": "address",
					"name": "to",
					"type": "address"
				},
				{
					"internalType": "uint256",
					"name": "id",
					"type": "uint256"
				},
				{
					"internalType": "uint256",
					"name": "none",
					"type": "uint256"
				},
				{
					"internalType": "uint256",
					"name": "amount",
					"type": "uint256"
				},
				{
					"internalType": "bytes",
					"name": "signature",
					"type": "bytes"
				}
			],
			"name": "mint",
			"outputs": [],
			"stateMutability": "nonpayable",
			"type": "function"
		},
		{
			"inputs": [],
			"name": "name",
			"outputs": [
				{
					"internalType": "string",
					"name": "",
					"type": "string"
				}
			],
			"stateMutability": "view",
			"type": "function"
		},
		{
			"inputs": [
				{
					"internalType": "uint16",
					"name": "_srcChainId",
					"type": "uint16"
				},
				{
					"internalType": "bytes",
					"name": "_srcAddress",
					"type": "bytes"
				},
				{
					"internalType": "uint64",
					"name": "_nonce",
					"type": "uint64"
				},
				{
					"internalType": "bytes",
					"name": "_payload",
					"type": "bytes"
				}
			],
			"name": "nonblockingLzReceive",
			"outputs": [],
			"stateMutability": "nonpayable",
			"type": "function"
		},
		{
			"inputs": [
				{
					"internalType": "address",
					"name": "",
					"type": "address"
				},
				{
					"internalType": "address",
					"name": "",
					"type": "address"
				},
				{
					"internalType": "uint256[]",
					"name": "",
					"type": "uint256[]"
				},
				{
					"internalType": "uint256[]",
					"name": "",
					"type": "uint256[]"
				},
				{
					"internalType": "bytes",
					"name": "",
					"type": "bytes"
				}
			],
			"name": "onERC1155BatchReceived",
			"outputs": [
				{
					"internalType": "bytes4",
					"name": "",
					"type": "bytes4"
				}
			],
			"stateMutability": "nonpayable",
			"type": "function"
		},
		{
			"inputs": [
				{
					"internalType": "address",
					"name": "",
					"type": "address"
				},
				{
					"internalType": "address",
					"name": "",
					"type": "address"
				},
				{
					"internalType": "uint256",
					"name": "",
					"type": "uint256"
				},
				{
					"internalType": "uint256",
					"name": "",
					"type": "uint256"
				},
				{
					"internalType": "bytes",
					"name": "",
					"type": "bytes"
				}
			],
			"name": "onERC1155Received",
			"outputs": [
				{
					"internalType": "bytes4",
					"name": "",
					"type": "bytes4"
				}
			],
			"stateMutability": "nonpayable",
			"type": "function"
		},
		{
			"inputs": [],
			"name": "owner",
			"outputs": [
				{
					"internalType": "address",
					"name": "",
					"type": "address"
				}
			],
			"stateMutability": "view",
			"type": "function"
		},
		{
			"inputs": [
				{
					"internalType": "uint16",
					"name": "",
					"type": "uint16"
				}
			],
			"name": "payloadSizeLimitLookup",
			"outputs": [
				{
					"internalType": "uint256",
					"name": "",
					"type": "uint256"
				}
			],
			"stateMutability": "view",
			"type": "function"
		},
		{
			"inputs": [],
			"name": "precrime",
			"outputs": [
				{
					"internalType": "address",
					"name": "",
					"type": "address"
				}
			],
			"stateMutability": "view",
			"type": "function"
		},
		{
			"inputs": [],
			"name": "renounceOwnership",
			"outputs": [],
			"stateMutability": "nonpayable",
			"type": "function"
		},
		{
			"inputs": [
				{
					"internalType": "uint16",
					"name": "_srcChainId",
					"type": "uint16"
				},
				{
					"internalType": "bytes",
					"name": "_srcAddress",
					"type": "bytes"
				},
				{
					"internalType": "uint64",
					"name": "_nonce",
					"type": "uint64"
				},
				{
					"internalType": "bytes",
					"name": "_payload",
					"type": "bytes"
				}
			],
			"name": "retryMessage",
			"outputs": [],
			"stateMutability": "payable",
			"type": "function"
		},
		{
			"inputs": [
				{
					"internalType": "address",
					"name": "from",
					"type": "address"
				},
				{
					"internalType": "address",
					"name": "to",
					"type": "address"
				},
				{
					"internalType": "uint256[]",
					"name": "ids",
					"type": "uint256[]"
				},
				{
					"internalType": "uint256[]",
					"name": "amounts",
					"type": "uint256[]"
				},
				{
					"internalType": "bytes",
					"name": "data",
					"type": "bytes"
				}
			],
			"name": "safeBatchTransferFrom",
			"outputs": [],
			"stateMutability": "nonpayable",
			"type": "function"
		},
		{
			"inputs": [
				{
					"internalType": "address",
					"name": "from",
					"type": "address"
				},
				{
					"internalType": "address",
					"name": "to",
					"type": "address"
				},
				{
					"internalType": "uint256",
					"name": "id",
					"type": "uint256"
				},
				{
					"internalType": "uint256",
					"name": "amount",
					"type": "uint256"
				},
				{
					"internalType": "bytes",
					"name": "data",
					"type": "bytes"
				}
			],
			"name": "safeTransferFrom",
			"outputs": [],
			"stateMutability": "nonpayable",
			"type": "function"
		},
		{
			"inputs": [
				{
					"internalType": "address",
					"name": "_from",
					"type": "address"
				},
				{
					"internalType": "uint16",
					"name": "_dstChainId",
					"type": "uint16"
				},
				{
					"internalType": "bytes",
					"name": "_toAddress",
					"type": "bytes"
				},
				{
					"internalType": "uint256[]",
					"name": "_tokenIds",
					"type": "uint256[]"
				},
				{
					"internalType": "uint256[]",
					"name": "_amounts",
					"type": "uint256[]"
				},
				{
					"internalType": "address payable",
					"name": "_refundAddress",
					"type": "address"
				},
				{
					"internalType": "address",
					"name": "_zroPaymentAddress",
					"type": "address"
				},
				{
					"internalType": "bytes",
					"name": "_adapterParams",
					"type": "bytes"
				}
			],
			"name": "sendBatchFrom",
			"outputs": [],
			"stateMutability": "payable",
			"type": "function"
		},
		{
			"inputs": [
				{
					"internalType": "address",
					"name": "_from",
					"type": "address"
				},
				{
					"internalType": "uint16",
					"name": "_dstChainId",
					"type": "uint16"
				},
				{
					"internalType": "bytes",
					"name": "_toAddress",
					"type": "bytes"
				},
				{
					"internalType": "uint256",
					"name": "_tokenId",
					"type": "uint256"
				},
				{
					"internalType": "uint256",
					"name": "_amount",
					"type": "uint256"
				},
				{
					"internalType": "address payable",
					"name": "_refundAddress",
					"type": "address"
				},
				{
					"internalType": "address",
					"name": "_zroPaymentAddress",
					"type": "address"
				},
				{
					"internalType": "bytes",
					"name": "_adapterParams",
					"type": "bytes"
				}
			],
			"name": "sendFrom",
			"outputs": [],
			"stateMutability": "payable",
			"type": "function"
		},
		{
			"inputs": [
				{
					"internalType": "address",
					"name": "operator",
					"type": "address"
				},
				{
					"internalType": "bool",
					"name": "approved",
					"type": "bool"
				}
			],
			"name": "setApprovalForAll",
			"outputs": [],
			"stateMutability": "nonpayable",
			"type": "function"
		},
		{
			"inputs": [
				{
					"internalType": "uint16",
					"name": "_version",
					"type": "uint16"
				},
				{
					"internalType": "uint16",
					"name": "_chainId",
					"type": "uint16"
				},
				{
					"internalType": "uint256",
					"name": "_configType",
					"type": "uint256"
				},
				{
					"internalType": "bytes",
					"name": "_config",
					"type": "bytes"
				}
			],
			"name": "setConfig",
			"outputs": [],
			"stateMutability": "nonpayable",
			"type": "function"
		},
		{
			"inputs": [
				{
					"internalType": "uint16",
					"name": "_dstChainId",
					"type": "uint16"
				},
				{
					"internalType": "uint16",
					"name": "_packetType",
					"type": "uint16"
				},
				{
					"internalType": "uint256",
					"name": "_minGas",
					"type": "uint256"
				}
			],
			"name": "setMinDstGas",
			"outputs": [],
			"stateMutability": "nonpayable",
			"type": "function"
		},
		{
			"inputs": [
				{
					"internalType": "address",
					"name": "account",
					"type": "address"
				}
			],
			"name": "setNonce",
			"outputs": [],
			"stateMutability": "nonpayable",
			"type": "function"
		},
		{
			"inputs": [
				{
					"internalType": "uint16",
					"name": "_dstChainId",
					"type": "uint16"
				},
				{
					"internalType": "uint256",
					"name": "_size",
					"type": "uint256"
				}
			],
			"name": "setPayloadSizeLimit",
			"outputs": [],
			"stateMutability": "nonpayable",
			"type": "function"
		},
		{
			"inputs": [
				{
					"internalType": "address",
					"name": "_precrime",
					"type": "address"
				}
			],
			"name": "setPrecrime",
			"outputs": [],
			"stateMutability": "nonpayable",
			"type": "function"
		},
		{
			"inputs": [
				{
					"internalType": "uint16",
					"name": "_version",
					"type": "uint16"
				}
			],
			"name": "setReceiveVersion",
			"outputs": [],
			"stateMutability": "nonpayable",
			"type": "function"
		},
		{
			"inputs": [
				{
					"internalType": "uint16",
					"name": "_version",
					"type": "uint16"
				}
			],
			"name": "setSendVersion",
			"outputs": [],
			"stateMutability": "nonpayable",
			"type": "function"
		},
		{
			"inputs": [
				{
					"internalType": "address",
					"name": "account",
					"type": "address"
				}
			],
			"name": "setSigner",
			"outputs": [],
			"stateMutability": "nonpayable",
			"type": "function"
		},
		{
			"inputs": [
				{
					"internalType": "string",
					"name": "uri",
					"type": "string"
				}
			],
			"name": "setTokenURI",
			"outputs": [],
			"stateMutability": "nonpayable",
			"type": "function"
		},
		{
			"inputs": [
				{
					"internalType": "uint256[]",
					"name": "ids",
					"type": "uint256[]"
				},
				{
					"internalType": "uint256[]",
					"name": "amounts",
					"type": "uint256[]"
				}
			],
			"name": "setTotalSupplyMax",
			"outputs": [],
			"stateMutability": "nonpayable",
			"type": "function"
		},
		{
			"inputs": [
				{
					"internalType": "uint16",
					"name": "_srcChainId",
					"type": "uint16"
				},
				{
					"internalType": "bytes",
					"name": "_path",
					"type": "bytes"
				}
			],
			"name": "setTrustedRemote",
			"outputs": [],
			"stateMutability": "nonpayable",
			"type": "function"
		},
		{
			"inputs": [
				{
					"internalType": "uint16",
					"name": "_remoteChainId",
					"type": "uint16"
				},
				{
					"internalType": "bytes",
					"name": "_remoteAddress",
					"type": "bytes"
				}
			],
			"name": "setTrustedRemoteAddress",
			"outputs": [],
			"stateMutability": "nonpayable",
			"type": "function"
		},
		{
			"inputs": [
				{
					"internalType": "bool",
					"name": "_useCustomAdapterParams",
					"type": "bool"
				}
			],
			"name": "setUseCustomAdapterParams",
			"outputs": [],
			"stateMutability": "nonpayable",
			"type": "function"
		},
		{
			"inputs": [
				{
					"internalType": "bytes4",
					"name": "interfaceId",
					"type": "bytes4"
				}
			],
			"name": "supportsInterface",
			"outputs": [
				{
					"internalType": "bool",
					"name": "",
					"type": "bool"
				}
			],
			"stateMutability": "view",
			"type": "function"
		},
		{
			"inputs": [],
			"name": "symbol",
			"outputs": [
				{
					"internalType": "string",
					"name": "",
					"type": "string"
				}
			],
			"stateMutability": "view",
			"type": "function"
		},
		{
			"inputs": [
				{
					"internalType": "uint256",
					"name": "id",
					"type": "uint256"
				}
			],
			"name": "totalSupply",
			"outputs": [
				{
					"internalType": "uint256",
					"name": "",
					"type": "uint256"
				}
			],
			"stateMutability": "view",
			"type": "function"
		},
		{
			"inputs": [
				{
					"internalType": "uint256",
					"name": "id",
					"type": "uint256"
				}
			],
			"name": "totalSupplyMax",
			"outputs": [
				{
					"internalType": "uint256",
					"name": "",
					"type": "uint256"
				}
			],
			"stateMutability": "view",
			"type": "function"
		},
		{
			"inputs": [
				{
					"internalType": "address",
					"name": "newOwner",
					"type": "address"
				}
			],
			"name": "transferOwnership",
			"outputs": [],
			"stateMutability": "nonpayable",
			"type": "function"
		},
		{
			"inputs": [
				{
					"internalType": "uint16",
					"name": "",
					"type": "uint16"
				}
			],
			"name": "trustedRemoteLookup",
			"outputs": [
				{
					"internalType": "bytes",
					"name": "",
					"type": "bytes"
				}
			],
			"stateMutability": "view",
			"type": "function"
		},
		{
			"inputs": [
				{
					"internalType": "uint256",
					"name": "",
					"type": "uint256"
				}
			],
			"name": "uri",
			"outputs": [
				{
					"internalType": "string",
					"name": "",
					"type": "string"
				}
			],
			"stateMutability": "view",
			"type": "function"
		},
		{
			"inputs": [],
			"name": "useCustomAdapterParams",
			"outputs": [
				{
					"internalType": "bool",
					"name": "",
					"type": "bool"
				}
			],
			"stateMutability": "view",
			"type": "function"
		}
	]
}